{
	"AuctionSystem/AuctionSystem.sol": {
		"AuctionSystem": {
			"abi": [
				{
					"inputs": [],
					"stateMutability": "nonpayable",
					"type": "constructor"
				},
				{
					"anonymous": false,
					"inputs": [
						{
							"indexed": false,
							"internalType": "uint256",
							"name": "_auctionIndex",
							"type": "uint256"
						},
						{
							"indexed": false,
							"internalType": "uint256",
							"name": "_amount",
							"type": "uint256"
						},
						{
							"indexed": false,
							"internalType": "address",
							"name": "_bidderAddress",
							"type": "address"
						}
					],
					"name": "AuctionWithdraw",
					"type": "event"
				},
				{
					"anonymous": false,
					"inputs": [
						{
							"indexed": false,
							"internalType": "string",
							"name": "_name",
							"type": "string"
						},
						{
							"indexed": false,
							"internalType": "uint256",
							"name": "_initialPrice",
							"type": "uint256"
						}
					],
					"name": "CreateAuction",
					"type": "event"
				},
				{
					"anonymous": false,
					"inputs": [
						{
							"indexed": false,
							"internalType": "string",
							"name": "_name",
							"type": "string"
						},
						{
							"indexed": false,
							"internalType": "enum AuctionSystem.AuctionStatus",
							"name": "_currentState",
							"type": "uint8"
						},
						{
							"indexed": false,
							"internalType": "uint256",
							"name": "_auctionIndex",
							"type": "uint256"
						}
					],
					"name": "UpdatedAuctionState",
					"type": "event"
				},
				{
					"anonymous": false,
					"inputs": [
						{
							"indexed": false,
							"internalType": "uint256",
							"name": "_auctionIndex",
							"type": "uint256"
						},
						{
							"indexed": false,
							"internalType": "uint256",
							"name": "_newOffer",
							"type": "uint256"
						},
						{
							"indexed": false,
							"internalType": "address",
							"name": "_bidderAddress",
							"type": "address"
						}
					],
					"name": "UpdatedBid",
					"type": "event"
				},
				{
					"inputs": [
						{
							"internalType": "uint256",
							"name": "",
							"type": "uint256"
						}
					],
					"name": "auctions",
					"outputs": [
						{
							"internalType": "string",
							"name": "name",
							"type": "string"
						},
						{
							"internalType": "uint256",
							"name": "initialPrice",
							"type": "uint256"
						},
						{
							"internalType": "uint256",
							"name": "currentPrice",
							"type": "uint256"
						},
						{
							"internalType": "address payable",
							"name": "bidder",
							"type": "address"
						},
						{
							"internalType": "uint256",
							"name": "deadline",
							"type": "uint256"
						},
						{
							"internalType": "uint256",
							"name": "bidCount",
							"type": "uint256"
						},
						{
							"internalType": "enum AuctionSystem.AuctionStatus",
							"name": "status",
							"type": "uint8"
						}
					],
					"stateMutability": "view",
					"type": "function"
				},
				{
					"inputs": [
						{
							"internalType": "uint256",
							"name": "_id",
							"type": "uint256"
						}
					],
					"name": "closeAuction",
					"outputs": [],
					"stateMutability": "nonpayable",
					"type": "function"
				},
				{
					"inputs": [
						{
							"internalType": "string",
							"name": "_name",
							"type": "string"
						},
						{
							"internalType": "uint256",
							"name": "_initialPrice",
							"type": "uint256"
						},
						{
							"internalType": "uint256",
							"name": "_durationInSeconds",
							"type": "uint256"
						}
					],
					"name": "createNewAuction",
					"outputs": [],
					"stateMutability": "nonpayable",
					"type": "function"
				},
				{
					"inputs": [
						{
							"internalType": "uint256",
							"name": "_id",
							"type": "uint256"
						}
					],
					"name": "getAuctionDetails",
					"outputs": [
						{
							"internalType": "address",
							"name": "currentWinner",
							"type": "address"
						},
						{
							"internalType": "uint256",
							"name": "currentPrice",
							"type": "uint256"
						},
						{
							"internalType": "uint256",
							"name": "secondsRemaining",
							"type": "uint256"
						},
						{
							"internalType": "enum AuctionSystem.AuctionStatus",
							"name": "status",
							"type": "uint8"
						}
					],
					"stateMutability": "view",
					"type": "function"
				},
				{
					"inputs": [
						{
							"internalType": "uint256",
							"name": "_id",
							"type": "uint256"
						}
					],
					"name": "getBidCount",
					"outputs": [
						{
							"internalType": "uint256",
							"name": "",
							"type": "uint256"
						}
					],
					"stateMutability": "view",
					"type": "function"
				},
				{
					"inputs": [],
					"name": "getTotalAuctions",
					"outputs": [
						{
							"internalType": "uint256",
							"name": "",
							"type": "uint256"
						}
					],
					"stateMutability": "view",
					"type": "function"
				},
				{
					"inputs": [
						{
							"internalType": "string",
							"name": "",
							"type": "string"
						}
					],
					"name": "namesUsed",
					"outputs": [
						{
							"internalType": "bool",
							"name": "",
							"type": "bool"
						}
					],
					"stateMutability": "view",
					"type": "function"
				},
				{
					"inputs": [
						{
							"internalType": "uint256",
							"name": "_auctionIndex",
							"type": "uint256"
						}
					],
					"name": "sendNewBid",
					"outputs": [],
					"stateMutability": "payable",
					"type": "function"
				},
				{
					"inputs": [
						{
							"internalType": "uint256",
							"name": "_auctionIndex",
							"type": "uint256"
						}
					],
					"name": "withdraw",
					"outputs": [],
					"stateMutability": "payable",
					"type": "function"
				}
			],
			"devdoc": {
				"kind": "dev",
				"methods": {},
				"version": 1
			},
			"evm": {
				"assembly": "    /* \"AuctionSystem/AuctionSystem.sol\":62:4895  contract AuctionSystem {... */\n  mstore(0x40, 0x80)\n    /* \"AuctionSystem/AuctionSystem.sol\":2104:2155  constructor (){... */\n  callvalue\n  dup1\n  iszero\n  tag_1\n  jumpi\n  0x00\n  dup1\n  revert\ntag_1:\n  pop\n    /* \"AuctionSystem/AuctionSystem.sol\":2137:2147  msg.sender */\n  caller\n    /* \"AuctionSystem/AuctionSystem.sol\":2129:2134  owner */\n  0x00\n  dup1\n    /* \"AuctionSystem/AuctionSystem.sol\":2129:2147  owner = msg.sender */\n  0x0100\n  exp\n  dup2\n  sload\n  dup2\n  0xffffffffffffffffffffffffffffffffffffffff\n  mul\n  not\n  and\n  swap1\n  dup4\n  0xffffffffffffffffffffffffffffffffffffffff\n  and\n  mul\n  or\n  swap1\n  sstore\n  pop\n    /* \"AuctionSystem/AuctionSystem.sol\":62:4895  contract AuctionSystem {... */\n  dataSize(sub_0)\n  dup1\n  dataOffset(sub_0)\n  0x00\n  codecopy\n  0x00\n  return\nstop\n\nsub_0: assembly {\n        /* \"AuctionSystem/AuctionSystem.sol\":62:4895  contract AuctionSystem {... */\n      mstore(0x40, 0x80)\n      jumpi(tag_1, lt(calldatasize, 0x04))\n      shr(0xe0, calldataload(0x00))\n      dup1\n      0x744d3411\n      gt\n      tag_11\n      jumpi\n      dup1\n      0x744d3411\n      eq\n      tag_6\n      jumpi\n      dup1\n      0xaa1ed30e\n      eq\n      tag_7\n      jumpi\n      dup1\n      0xc44b5230\n      eq\n      tag_8\n      jumpi\n      dup1\n      0xe33a33b3\n      eq\n      tag_9\n      jumpi\n      dup1\n      0xf20e5e35\n      eq\n      tag_10\n      jumpi\n      jump(tag_1)\n    tag_11:\n      dup1\n      0x236ed8f3\n      eq\n      tag_2\n      jumpi\n      dup1\n      0x2e1a7d4d\n      eq\n      tag_3\n      jumpi\n      dup1\n      0x3ef14cc8\n      eq\n      tag_4\n      jumpi\n      dup1\n      0x571a26a0\n      eq\n      tag_5\n      jumpi\n    tag_1:\n      0x00\n      dup1\n      revert\n        /* \"AuctionSystem/AuctionSystem.sol\":3866:3955  function closeAuction(uint256 _id) public OnlyOwner {... */\n    tag_2:\n      callvalue\n      dup1\n      iszero\n      tag_12\n      jumpi\n      0x00\n      dup1\n      revert\n    tag_12:\n      pop\n      tag_13\n      0x04\n      dup1\n      calldatasize\n      sub\n      dup2\n      add\n      swap1\n      tag_14\n      swap2\n      swap1\n      tag_15\n      jump\t// in\n    tag_14:\n      tag_16\n      jump\t// in\n    tag_13:\n      stop\n        /* \"AuctionSystem/AuctionSystem.sol\":3286:3858  function withdraw(uint256 _auctionIndex) public payable OnlyOwner onlyAuctionExists(_auctionIndex) {... */\n    tag_3:\n      tag_17\n      0x04\n      dup1\n      calldatasize\n      sub\n      dup2\n      add\n      swap1\n      tag_18\n      swap2\n      swap1\n      tag_15\n      jump\t// in\n    tag_18:\n      tag_19\n      jump\t// in\n    tag_17:\n      stop\n        /* \"AuctionSystem/AuctionSystem.sol\":4359:4458  function getTotalAuctions() public view returns (uint256) {... */\n    tag_4:\n      callvalue\n      dup1\n      iszero\n      tag_20\n      jumpi\n      0x00\n      dup1\n      revert\n    tag_20:\n      pop\n      tag_21\n      tag_22\n      jump\t// in\n    tag_21:\n      mload(0x40)\n      tag_23\n      swap2\n      swap1\n      tag_24\n      jump\t// in\n    tag_23:\n      mload(0x40)\n      dup1\n      swap2\n      sub\n      swap1\n      return\n        /* \"AuctionSystem/AuctionSystem.sol\":411:436  Auction[] public auctions */\n    tag_5:\n      callvalue\n      dup1\n      iszero\n      tag_25\n      jumpi\n      0x00\n      dup1\n      revert\n    tag_25:\n      pop\n      tag_26\n      0x04\n      dup1\n      calldatasize\n      sub\n      dup2\n      add\n      swap1\n      tag_27\n      swap2\n      swap1\n      tag_15\n      jump\t// in\n    tag_27:\n      tag_28\n      jump\t// in\n    tag_26:\n      mload(0x40)\n      tag_29\n      swap8\n      swap7\n      swap6\n      swap5\n      swap4\n      swap3\n      swap2\n      swap1\n      tag_30\n      jump\t// in\n    tag_29:\n      mload(0x40)\n      dup1\n      swap2\n      sub\n      swap1\n      return\n        /* \"AuctionSystem/AuctionSystem.sol\":4466:4578  function getBidCount(uint256 _id) public view returns (uint256) {... */\n    tag_6:\n      callvalue\n      dup1\n      iszero\n      tag_31\n      jumpi\n      0x00\n      dup1\n      revert\n    tag_31:\n      pop\n      tag_32\n      0x04\n      dup1\n      calldatasize\n      sub\n      dup2\n      add\n      swap1\n      tag_33\n      swap2\n      swap1\n      tag_15\n      jump\t// in\n    tag_33:\n      tag_34\n      jump\t// in\n    tag_32:\n      mload(0x40)\n      tag_35\n      swap2\n      swap1\n      tag_24\n      jump\t// in\n    tag_35:\n      mload(0x40)\n      dup1\n      swap2\n      sub\n      swap1\n      return\n        /* \"AuctionSystem/AuctionSystem.sol\":2585:3276  function sendNewBid(uint256 _auctionIndex) public payable onlyAuctionExists(_auctionIndex) notOwner checkAuctionStatus(_auctionIndex) checkNewBid(_auctionIndex){... */\n    tag_7:\n      tag_36\n      0x04\n      dup1\n      calldatasize\n      sub\n      dup2\n      add\n      swap1\n      tag_37\n      swap2\n      swap1\n      tag_15\n      jump\t// in\n    tag_37:\n      tag_38\n      jump\t// in\n    tag_36:\n      stop\n        /* \"AuctionSystem/AuctionSystem.sol\":445:485  mapping(string => bool) public namesUsed */\n    tag_8:\n      callvalue\n      dup1\n      iszero\n      tag_39\n      jumpi\n      0x00\n      dup1\n      revert\n    tag_39:\n      pop\n      tag_40\n      0x04\n      dup1\n      calldatasize\n      sub\n      dup2\n      add\n      swap1\n      tag_41\n      swap2\n      swap1\n      tag_42\n      jump\t// in\n    tag_41:\n      tag_43\n      jump\t// in\n    tag_40:\n      mload(0x40)\n      tag_44\n      swap2\n      swap1\n      tag_45\n      jump\t// in\n    tag_44:\n      mload(0x40)\n      dup1\n      swap2\n      sub\n      swap1\n      return\n        /* \"AuctionSystem/AuctionSystem.sol\":2163:2577  function createNewAuction(string memory _name, uint256 _initialPrice, uint256 _durationInSeconds) public OnlyOwner auctionNameAbiable(_name) {... */\n    tag_9:\n      callvalue\n      dup1\n      iszero\n      tag_46\n      jumpi\n      0x00\n      dup1\n      revert\n    tag_46:\n      pop\n      tag_47\n      0x04\n      dup1\n      calldatasize\n      sub\n      dup2\n      add\n      swap1\n      tag_48\n      swap2\n      swap1\n      tag_49\n      jump\t// in\n    tag_48:\n      tag_50\n      jump\t// in\n    tag_47:\n      stop\n        /* \"AuctionSystem/AuctionSystem.sol\":3963:4351  function getAuctionDetails(uint _id) public view returns ( address currentWinner, uint256 currentPrice, uint256 secondsRemaining, AuctionStatus status) {... */\n    tag_10:\n      callvalue\n      dup1\n      iszero\n      tag_51\n      jumpi\n      0x00\n      dup1\n      revert\n    tag_51:\n      pop\n      tag_52\n      0x04\n      dup1\n      calldatasize\n      sub\n      dup2\n      add\n      swap1\n      tag_53\n      swap2\n      swap1\n      tag_15\n      jump\t// in\n    tag_53:\n      tag_54\n      jump\t// in\n    tag_52:\n      mload(0x40)\n      tag_55\n      swap5\n      swap4\n      swap3\n      swap2\n      swap1\n      tag_56\n      jump\t// in\n    tag_55:\n      mload(0x40)\n      dup1\n      swap2\n      sub\n      swap1\n      return\n        /* \"AuctionSystem/AuctionSystem.sol\":3866:3955  function closeAuction(uint256 _id) public OnlyOwner {... */\n    tag_16:\n        /* \"AuctionSystem/AuctionSystem.sol\":560:570  msg.sender */\n      caller\n        /* \"AuctionSystem/AuctionSystem.sol\":551:570  owner == msg.sender */\n      0xffffffffffffffffffffffffffffffffffffffff\n      and\n        /* \"AuctionSystem/AuctionSystem.sol\":551:556  owner */\n      0x00\n      dup1\n      sload\n      swap1\n      0x0100\n      exp\n      swap1\n      div\n      0xffffffffffffffffffffffffffffffffffffffff\n      and\n        /* \"AuctionSystem/AuctionSystem.sol\":551:570  owner == msg.sender */\n      0xffffffffffffffffffffffffffffffffffffffff\n      and\n      eq\n        /* \"AuctionSystem/AuctionSystem.sol\":543:612  require(owner == msg.sender, \"Only the owner can create an auction.\") */\n      tag_58\n      jumpi\n      mload(0x40)\n      0x08c379a000000000000000000000000000000000000000000000000000000000\n      dup2\n      mstore\n      0x04\n      add\n      tag_59\n      swap1\n      tag_60\n      jump\t// in\n    tag_59:\n      mload(0x40)\n      dup1\n      swap2\n      sub\n      swap1\n      revert\n    tag_58:\n        /* \"AuctionSystem/AuctionSystem.sol\":3929:3947  _closeAuction(_id) */\n      tag_62\n        /* \"AuctionSystem/AuctionSystem.sol\":3943:3946  _id */\n      dup2\n        /* \"AuctionSystem/AuctionSystem.sol\":3929:3942  _closeAuction */\n      tag_63\n        /* \"AuctionSystem/AuctionSystem.sol\":3929:3947  _closeAuction(_id) */\n      jump\t// in\n    tag_62:\n        /* \"AuctionSystem/AuctionSystem.sol\":3866:3955  function closeAuction(uint256 _id) public OnlyOwner {... */\n      pop\n      jump\t// out\n        /* \"AuctionSystem/AuctionSystem.sol\":3286:3858  function withdraw(uint256 _auctionIndex) public payable OnlyOwner onlyAuctionExists(_auctionIndex) {... */\n    tag_19:\n        /* \"AuctionSystem/AuctionSystem.sol\":560:570  msg.sender */\n      caller\n        /* \"AuctionSystem/AuctionSystem.sol\":551:570  owner == msg.sender */\n      0xffffffffffffffffffffffffffffffffffffffff\n      and\n        /* \"AuctionSystem/AuctionSystem.sol\":551:556  owner */\n      0x00\n      dup1\n      sload\n      swap1\n      0x0100\n      exp\n      swap1\n      div\n      0xffffffffffffffffffffffffffffffffffffffff\n      and\n        /* \"AuctionSystem/AuctionSystem.sol\":551:570  owner == msg.sender */\n      0xffffffffffffffffffffffffffffffffffffffff\n      and\n      eq\n        /* \"AuctionSystem/AuctionSystem.sol\":543:612  require(owner == msg.sender, \"Only the owner can create an auction.\") */\n      tag_65\n      jumpi\n      mload(0x40)\n      0x08c379a000000000000000000000000000000000000000000000000000000000\n      dup2\n      mstore\n      0x04\n      add\n      tag_66\n      swap1\n      tag_60\n      jump\t// in\n    tag_66:\n      mload(0x40)\n      dup1\n      swap2\n      sub\n      swap1\n      revert\n    tag_65:\n        /* \"AuctionSystem/AuctionSystem.sol\":3370:3383  _auctionIndex */\n      dup1\n        /* \"AuctionSystem/AuctionSystem.sol\":854:862  auctions */\n      0x01\n        /* \"AuctionSystem/AuctionSystem.sol\":854:869  auctions.length */\n      dup1\n      sload\n      swap1\n      pop\n        /* \"AuctionSystem/AuctionSystem.sol\":848:851  _id */\n      dup2\n        /* \"AuctionSystem/AuctionSystem.sol\":848:869  _id < auctions.length */\n      lt\n        /* \"AuctionSystem/AuctionSystem.sol\":840:918  require(_id < auctions.length , \"This ID does not match any created auction.\") */\n      tag_68\n      jumpi\n      mload(0x40)\n      0x08c379a000000000000000000000000000000000000000000000000000000000\n      dup2\n      mstore\n      0x04\n      add\n      tag_69\n      swap1\n      tag_70\n      jump\t// in\n    tag_69:\n      mload(0x40)\n      dup1\n      swap2\n      sub\n      swap1\n      revert\n    tag_68:\n        /* \"AuctionSystem/AuctionSystem.sol\":3396:3419  Auction storage auction */\n      0x00\n        /* \"AuctionSystem/AuctionSystem.sol\":3422:3430  auctions */\n      0x01\n        /* \"AuctionSystem/AuctionSystem.sol\":3431:3444  _auctionIndex */\n      dup4\n        /* \"AuctionSystem/AuctionSystem.sol\":3422:3445  auctions[_auctionIndex] */\n      dup2\n      sload\n      dup2\n      lt\n      tag_72\n      jumpi\n      tag_73\n      tag_74\n      jump\t// in\n    tag_73:\n    tag_72:\n      swap1\n      0x00\n      mstore\n      keccak256(0x00, 0x20)\n      swap1\n      0x07\n      mul\n      add\n        /* \"AuctionSystem/AuctionSystem.sol\":3396:3445  Auction storage auction = auctions[_auctionIndex] */\n      swap1\n      pop\n        /* \"AuctionSystem/AuctionSystem.sol\":3484:3502  AuctionStatus.Open */\n      0x00\n        /* \"AuctionSystem/AuctionSystem.sol\":3466:3502  auction.status != AuctionStatus.Open */\n      0x02\n      dup2\n      gt\n      iszero\n      tag_76\n      jumpi\n      tag_77\n      tag_78\n      jump\t// in\n    tag_77:\n    tag_76:\n        /* \"AuctionSystem/AuctionSystem.sol\":3466:3473  auction */\n      dup2\n        /* \"AuctionSystem/AuctionSystem.sol\":3466:3480  auction.status */\n      0x06\n      add\n      0x00\n      swap1\n      sload\n      swap1\n      0x0100\n      exp\n      swap1\n      div\n      0xff\n      and\n        /* \"AuctionSystem/AuctionSystem.sol\":3466:3502  auction.status != AuctionStatus.Open */\n      0x02\n      dup2\n      gt\n      iszero\n      tag_79\n      jumpi\n      tag_80\n      tag_78\n      jump\t// in\n    tag_80:\n    tag_79:\n      sub\n        /* \"AuctionSystem/AuctionSystem.sol\":3458:3538  require(auction.status != AuctionStatus.Open, \"This auction is not closed yet.\") */\n      tag_81\n      jumpi\n      mload(0x40)\n      0x08c379a000000000000000000000000000000000000000000000000000000000\n      dup2\n      mstore\n      0x04\n      add\n      tag_82\n      swap1\n      tag_83\n      jump\t// in\n    tag_82:\n      mload(0x40)\n      dup1\n      swap2\n      sub\n      swap1\n      revert\n    tag_81:\n        /* \"AuctionSystem/AuctionSystem.sol\":3575:3594  AuctionStatus.Payed */\n      0x02\n        /* \"AuctionSystem/AuctionSystem.sol\":3557:3594  auction.status != AuctionStatus.Payed */\n      dup1\n      dup2\n      gt\n      iszero\n      tag_84\n      jumpi\n      tag_85\n      tag_78\n      jump\t// in\n    tag_85:\n    tag_84:\n        /* \"AuctionSystem/AuctionSystem.sol\":3557:3564  auction */\n      dup2\n        /* \"AuctionSystem/AuctionSystem.sol\":3557:3571  auction.status */\n      0x06\n      add\n      0x00\n      swap1\n      sload\n      swap1\n      0x0100\n      exp\n      swap1\n      div\n      0xff\n      and\n        /* \"AuctionSystem/AuctionSystem.sol\":3557:3594  auction.status != AuctionStatus.Payed */\n      0x02\n      dup2\n      gt\n      iszero\n      tag_86\n      jumpi\n      tag_87\n      tag_78\n      jump\t// in\n    tag_87:\n    tag_86:\n      sub\n        /* \"AuctionSystem/AuctionSystem.sol\":3549:3645  require(auction.status != AuctionStatus.Payed, \"This auction is payed, can't be drawn anymore.\") */\n      tag_88\n      jumpi\n      mload(0x40)\n      0x08c379a000000000000000000000000000000000000000000000000000000000\n      dup2\n      mstore\n      0x04\n      add\n      tag_89\n      swap1\n      tag_90\n      jump\t// in\n    tag_89:\n      mload(0x40)\n      dup1\n      swap2\n      sub\n      swap1\n      revert\n    tag_88:\n        /* \"AuctionSystem/AuctionSystem.sol\":3658:3672  uint256 amount */\n      0x00\n        /* \"AuctionSystem/AuctionSystem.sol\":3676:3683  auction */\n      dup2\n        /* \"AuctionSystem/AuctionSystem.sol\":3676:3696  auction.currentPrice */\n      0x02\n      add\n      sload\n        /* \"AuctionSystem/AuctionSystem.sol\":3658:3696  uint256 amount  = auction.currentPrice */\n      swap1\n      pop\n        /* \"AuctionSystem/AuctionSystem.sol\":3715:3720  owner */\n      0x00\n      dup1\n      sload\n      swap1\n      0x0100\n      exp\n      swap1\n      div\n      0xffffffffffffffffffffffffffffffffffffffff\n      and\n        /* \"AuctionSystem/AuctionSystem.sol\":3707:3730  payable(owner).transfer */\n      0xffffffffffffffffffffffffffffffffffffffff\n      and\n        /* \"AuctionSystem/AuctionSystem.sol\":3707:3738  payable(owner).transfer(amount) */\n      0x08fc\n        /* \"AuctionSystem/AuctionSystem.sol\":3731:3737  amount */\n      dup3\n        /* \"AuctionSystem/AuctionSystem.sol\":3707:3738  payable(owner).transfer(amount) */\n      swap1\n      dup2\n      iszero\n      mul\n      swap1\n      mload(0x40)\n      0x00\n      mload(0x40)\n      dup1\n      dup4\n      sub\n      dup2\n      dup6\n      dup9\n      dup9\n      call\n      swap4\n      pop\n      pop\n      pop\n      pop\n      iszero\n      dup1\n      iszero\n      tag_92\n      jumpi\n      returndatasize\n      0x00\n      dup1\n      returndatacopy\n      revert(0x00, returndatasize)\n    tag_92:\n      pop\n        /* \"AuctionSystem/AuctionSystem.sol\":3766:3785  AuctionStatus.Payed */\n      0x02\n        /* \"AuctionSystem/AuctionSystem.sol\":3749:3756  auction */\n      dup3\n        /* \"AuctionSystem/AuctionSystem.sol\":3749:3763  auction.status */\n      0x06\n      add\n      0x00\n        /* \"AuctionSystem/AuctionSystem.sol\":3749:3785  auction.status = AuctionStatus.Payed */\n      0x0100\n      exp\n      dup2\n      sload\n      dup2\n      0xff\n      mul\n      not\n      and\n      swap1\n      dup4\n      0x02\n      dup2\n      gt\n      iszero\n      tag_93\n      jumpi\n      tag_94\n      tag_78\n      jump\t// in\n    tag_94:\n    tag_93:\n      mul\n      or\n      swap1\n      sstore\n      pop\n        /* \"AuctionSystem/AuctionSystem.sol\":3803:3848  AuctionWithdraw(_auctionIndex, amount, owner) */\n      0x997f26ee6e00428b7ecf9a9493036a5910a83fd47a598e6b0ec6cad8fb59e30e\n        /* \"AuctionSystem/AuctionSystem.sol\":3819:3832  _auctionIndex */\n      dup5\n        /* \"AuctionSystem/AuctionSystem.sol\":3834:3840  amount */\n      dup3\n        /* \"AuctionSystem/AuctionSystem.sol\":3842:3847  owner */\n      0x00\n      dup1\n      sload\n      swap1\n      0x0100\n      exp\n      swap1\n      div\n      0xffffffffffffffffffffffffffffffffffffffff\n      and\n        /* \"AuctionSystem/AuctionSystem.sol\":3803:3848  AuctionWithdraw(_auctionIndex, amount, owner) */\n      mload(0x40)\n      tag_95\n      swap4\n      swap3\n      swap2\n      swap1\n      tag_96\n      jump\t// in\n    tag_95:\n      mload(0x40)\n      dup1\n      swap2\n      sub\n      swap1\n      log1\n        /* \"AuctionSystem/AuctionSystem.sol\":3385:3858  {... */\n      pop\n      pop\n        /* \"AuctionSystem/AuctionSystem.sol\":623:624  _ */\n      pop\n        /* \"AuctionSystem/AuctionSystem.sol\":3286:3858  function withdraw(uint256 _auctionIndex) public payable OnlyOwner onlyAuctionExists(_auctionIndex) {... */\n      pop\n      jump\t// out\n        /* \"AuctionSystem/AuctionSystem.sol\":4359:4458  function getTotalAuctions() public view returns (uint256) {... */\n    tag_22:\n        /* \"AuctionSystem/AuctionSystem.sol\":4408:4415  uint256 */\n      0x00\n        /* \"AuctionSystem/AuctionSystem.sol\":4435:4443  auctions */\n      0x01\n        /* \"AuctionSystem/AuctionSystem.sol\":4435:4450  auctions.length */\n      dup1\n      sload\n      swap1\n      pop\n        /* \"AuctionSystem/AuctionSystem.sol\":4428:4450  return auctions.length */\n      swap1\n      pop\n        /* \"AuctionSystem/AuctionSystem.sol\":4359:4458  function getTotalAuctions() public view returns (uint256) {... */\n      swap1\n      jump\t// out\n        /* \"AuctionSystem/AuctionSystem.sol\":411:436  Auction[] public auctions */\n    tag_28:\n      0x01\n      dup2\n      dup2\n      sload\n      dup2\n      lt\n      tag_98\n      jumpi\n      0x00\n      dup1\n      revert\n    tag_98:\n      swap1\n      0x00\n      mstore\n      keccak256(0x00, 0x20)\n      swap1\n      0x07\n      mul\n      add\n      0x00\n      swap2\n      pop\n      swap1\n      pop\n      dup1\n      0x00\n      add\n      dup1\n      sload\n      tag_100\n      swap1\n      tag_101\n      jump\t// in\n    tag_100:\n      dup1\n      0x1f\n      add\n      0x20\n      dup1\n      swap2\n      div\n      mul\n      0x20\n      add\n      mload(0x40)\n      swap1\n      dup2\n      add\n      0x40\n      mstore\n      dup1\n      swap3\n      swap2\n      swap1\n      dup2\n      dup2\n      mstore\n      0x20\n      add\n      dup3\n      dup1\n      sload\n      tag_102\n      swap1\n      tag_101\n      jump\t// in\n    tag_102:\n      dup1\n      iszero\n      tag_103\n      jumpi\n      dup1\n      0x1f\n      lt\n      tag_104\n      jumpi\n      0x0100\n      dup1\n      dup4\n      sload\n      div\n      mul\n      dup4\n      mstore\n      swap2\n      0x20\n      add\n      swap2\n      jump(tag_103)\n    tag_104:\n      dup3\n      add\n      swap2\n      swap1\n      0x00\n      mstore\n      keccak256(0x00, 0x20)\n      swap1\n    tag_105:\n      dup2\n      sload\n      dup2\n      mstore\n      swap1\n      0x01\n      add\n      swap1\n      0x20\n      add\n      dup1\n      dup4\n      gt\n      tag_105\n      jumpi\n      dup3\n      swap1\n      sub\n      0x1f\n      and\n      dup3\n      add\n      swap2\n    tag_103:\n      pop\n      pop\n      pop\n      pop\n      pop\n      swap1\n      dup1\n      0x01\n      add\n      sload\n      swap1\n      dup1\n      0x02\n      add\n      sload\n      swap1\n      dup1\n      0x03\n      add\n      0x00\n      swap1\n      sload\n      swap1\n      0x0100\n      exp\n      swap1\n      div\n      0xffffffffffffffffffffffffffffffffffffffff\n      and\n      swap1\n      dup1\n      0x04\n      add\n      sload\n      swap1\n      dup1\n      0x05\n      add\n      sload\n      swap1\n      dup1\n      0x06\n      add\n      0x00\n      swap1\n      sload\n      swap1\n      0x0100\n      exp\n      swap1\n      div\n      0xff\n      and\n      swap1\n      pop\n      dup8\n      jump\t// out\n        /* \"AuctionSystem/AuctionSystem.sol\":4466:4578  function getBidCount(uint256 _id) public view returns (uint256) {... */\n    tag_34:\n        /* \"AuctionSystem/AuctionSystem.sol\":4521:4528  uint256 */\n      0x00\n        /* \"AuctionSystem/AuctionSystem.sol\":4548:4556  auctions */\n      0x01\n        /* \"AuctionSystem/AuctionSystem.sol\":4557:4560  _id */\n      dup3\n        /* \"AuctionSystem/AuctionSystem.sol\":4548:4561  auctions[_id] */\n      dup2\n      sload\n      dup2\n      lt\n      tag_107\n      jumpi\n      tag_108\n      tag_74\n      jump\t// in\n    tag_108:\n    tag_107:\n      swap1\n      0x00\n      mstore\n      keccak256(0x00, 0x20)\n      swap1\n      0x07\n      mul\n      add\n        /* \"AuctionSystem/AuctionSystem.sol\":4548:4570  auctions[_id].bidCount */\n      0x05\n      add\n      sload\n        /* \"AuctionSystem/AuctionSystem.sol\":4541:4570  return auctions[_id].bidCount */\n      swap1\n      pop\n        /* \"AuctionSystem/AuctionSystem.sol\":4466:4578  function getBidCount(uint256 _id) public view returns (uint256) {... */\n      swap2\n      swap1\n      pop\n      jump\t// out\n        /* \"AuctionSystem/AuctionSystem.sol\":2585:3276  function sendNewBid(uint256 _auctionIndex) public payable onlyAuctionExists(_auctionIndex) notOwner checkAuctionStatus(_auctionIndex) checkNewBid(_auctionIndex){... */\n    tag_38:\n        /* \"AuctionSystem/AuctionSystem.sol\":2661:2674  _auctionIndex */\n      dup1\n        /* \"AuctionSystem/AuctionSystem.sol\":854:862  auctions */\n      0x01\n        /* \"AuctionSystem/AuctionSystem.sol\":854:869  auctions.length */\n      dup1\n      sload\n      swap1\n      pop\n        /* \"AuctionSystem/AuctionSystem.sol\":848:851  _id */\n      dup2\n        /* \"AuctionSystem/AuctionSystem.sol\":848:869  _id < auctions.length */\n      lt\n        /* \"AuctionSystem/AuctionSystem.sol\":840:918  require(_id < auctions.length , \"This ID does not match any created auction.\") */\n      tag_111\n      jumpi\n      mload(0x40)\n      0x08c379a000000000000000000000000000000000000000000000000000000000\n      dup2\n      mstore\n      0x04\n      add\n      tag_112\n      swap1\n      tag_70\n      jump\t// in\n    tag_112:\n      mload(0x40)\n      dup1\n      swap2\n      sub\n      swap1\n      revert\n    tag_111:\n        /* \"AuctionSystem/AuctionSystem.sol\":1671:1676  owner */\n      0x00\n      dup1\n      sload\n      swap1\n      0x0100\n      exp\n      swap1\n      div\n      0xffffffffffffffffffffffffffffffffffffffff\n      and\n        /* \"AuctionSystem/AuctionSystem.sol\":1657:1676  msg.sender != owner */\n      0xffffffffffffffffffffffffffffffffffffffff\n      and\n        /* \"AuctionSystem/AuctionSystem.sol\":1657:1667  msg.sender */\n      caller\n        /* \"AuctionSystem/AuctionSystem.sol\":1657:1676  msg.sender != owner */\n      0xffffffffffffffffffffffffffffffffffffffff\n      and\n      sub\n        /* \"AuctionSystem/AuctionSystem.sol\":1649:1697  require(msg.sender != owner, \"Owner cannot bid\") */\n      tag_114\n      jumpi\n      mload(0x40)\n      0x08c379a000000000000000000000000000000000000000000000000000000000\n      dup2\n      mstore\n      0x04\n      add\n      tag_115\n      swap1\n      tag_116\n      jump\t// in\n    tag_115:\n      mload(0x40)\n      dup1\n      swap2\n      sub\n      swap1\n      revert\n    tag_114:\n        /* \"AuctionSystem/AuctionSystem.sol\":2704:2717  _auctionIndex */\n      dup2\n        /* \"AuctionSystem/AuctionSystem.sol\":1008:1031  Auction storage auction */\n      0x00\n        /* \"AuctionSystem/AuctionSystem.sol\":1034:1042  auctions */\n      0x01\n        /* \"AuctionSystem/AuctionSystem.sol\":1043:1056  _auctionIndex */\n      dup3\n        /* \"AuctionSystem/AuctionSystem.sol\":1034:1057  auctions[_auctionIndex] */\n      dup2\n      sload\n      dup2\n      lt\n      tag_118\n      jumpi\n      tag_119\n      tag_74\n      jump\t// in\n    tag_119:\n    tag_118:\n      swap1\n      0x00\n      mstore\n      keccak256(0x00, 0x20)\n      swap1\n      0x07\n      mul\n      add\n        /* \"AuctionSystem/AuctionSystem.sol\":1008:1057  Auction storage auction = auctions[_auctionIndex] */\n      swap1\n      pop\n        /* \"AuctionSystem/AuctionSystem.sol\":1092:1110  AuctionStatus.Open */\n      0x00\n        /* \"AuctionSystem/AuctionSystem.sol\":1074:1110  auction.status == AuctionStatus.Open */\n      0x02\n      dup2\n      gt\n      iszero\n      tag_121\n      jumpi\n      tag_122\n      tag_78\n      jump\t// in\n    tag_122:\n    tag_121:\n        /* \"AuctionSystem/AuctionSystem.sol\":1074:1081  auction */\n      dup2\n        /* \"AuctionSystem/AuctionSystem.sol\":1074:1088  auction.status */\n      0x06\n      add\n      0x00\n      swap1\n      sload\n      swap1\n      0x0100\n      exp\n      swap1\n      div\n      0xff\n      and\n        /* \"AuctionSystem/AuctionSystem.sol\":1074:1110  auction.status == AuctionStatus.Open */\n      0x02\n      dup2\n      gt\n      iszero\n      tag_123\n      jumpi\n      tag_124\n      tag_78\n      jump\t// in\n    tag_124:\n    tag_123:\n      eq\n        /* \"AuctionSystem/AuctionSystem.sol\":1074:1149  auction.status == AuctionStatus.Open && auction.deadline <= block.timestamp */\n      dup1\n      iszero\n      tag_125\n      jumpi\n      pop\n        /* \"AuctionSystem/AuctionSystem.sol\":1134:1149  block.timestamp */\n      timestamp\n        /* \"AuctionSystem/AuctionSystem.sol\":1114:1121  auction */\n      dup2\n        /* \"AuctionSystem/AuctionSystem.sol\":1114:1130  auction.deadline */\n      0x04\n      add\n      sload\n        /* \"AuctionSystem/AuctionSystem.sol\":1114:1149  auction.deadline <= block.timestamp */\n      gt\n      iszero\n        /* \"AuctionSystem/AuctionSystem.sol\":1074:1149  auction.status == AuctionStatus.Open && auction.deadline <= block.timestamp */\n    tag_125:\n        /* \"AuctionSystem/AuctionSystem.sol\":1070:1206  if (auction.status == AuctionStatus.Open && auction.deadline <= block.timestamp) {... */\n      iszero\n      tag_126\n      jumpi\n        /* \"AuctionSystem/AuctionSystem.sol\":1166:1194  _closeAuction(_auctionIndex) */\n      tag_127\n        /* \"AuctionSystem/AuctionSystem.sol\":1180:1193  _auctionIndex */\n      dup3\n        /* \"AuctionSystem/AuctionSystem.sol\":1166:1179  _closeAuction */\n      tag_63\n        /* \"AuctionSystem/AuctionSystem.sol\":1166:1194  _closeAuction(_auctionIndex) */\n      jump\t// in\n    tag_127:\n        /* \"AuctionSystem/AuctionSystem.sol\":1070:1206  if (auction.status == AuctionStatus.Open && auction.deadline <= block.timestamp) {... */\n    tag_126:\n        /* \"AuctionSystem/AuctionSystem.sol\":1244:1262  AuctionStatus.Open */\n      0x00\n        /* \"AuctionSystem/AuctionSystem.sol\":1226:1262  auction.status == AuctionStatus.Open */\n      0x02\n      dup2\n      gt\n      iszero\n      tag_128\n      jumpi\n      tag_129\n      tag_78\n      jump\t// in\n    tag_129:\n    tag_128:\n        /* \"AuctionSystem/AuctionSystem.sol\":1226:1233  auction */\n      dup2\n        /* \"AuctionSystem/AuctionSystem.sol\":1226:1240  auction.status */\n      0x06\n      add\n      0x00\n      swap1\n      sload\n      swap1\n      0x0100\n      exp\n      swap1\n      div\n      0xff\n      and\n        /* \"AuctionSystem/AuctionSystem.sol\":1226:1262  auction.status == AuctionStatus.Open */\n      0x02\n      dup2\n      gt\n      iszero\n      tag_130\n      jumpi\n      tag_131\n      tag_78\n      jump\t// in\n    tag_131:\n    tag_130:\n      eq\n        /* \"AuctionSystem/AuctionSystem.sol\":1218:1289  require(auction.status == AuctionStatus.Open, \"This auction is closed\") */\n      tag_132\n      jumpi\n      mload(0x40)\n      0x08c379a000000000000000000000000000000000000000000000000000000000\n      dup2\n      mstore\n      0x04\n      add\n      tag_133\n      swap1\n      tag_134\n      jump\t// in\n    tag_133:\n      mload(0x40)\n      dup1\n      swap2\n      sub\n      swap1\n      revert\n    tag_132:\n        /* \"AuctionSystem/AuctionSystem.sol\":2731:2744  _auctionIndex */\n      dup4\n        /* \"AuctionSystem/AuctionSystem.sol\":1361:1384  Auction storage auction */\n      0x00\n        /* \"AuctionSystem/AuctionSystem.sol\":1387:1395  auctions */\n      0x01\n        /* \"AuctionSystem/AuctionSystem.sol\":1396:1399  _id */\n      dup3\n        /* \"AuctionSystem/AuctionSystem.sol\":1387:1400  auctions[_id] */\n      dup2\n      sload\n      dup2\n      lt\n      tag_136\n      jumpi\n      tag_137\n      tag_74\n      jump\t// in\n    tag_137:\n    tag_136:\n      swap1\n      0x00\n      mstore\n      keccak256(0x00, 0x20)\n      swap1\n      0x07\n      mul\n      add\n        /* \"AuctionSystem/AuctionSystem.sol\":1361:1400  Auction storage auction = auctions[_id] */\n      swap1\n      pop\n        /* \"AuctionSystem/AuctionSystem.sol\":1431:1438  auction */\n      dup1\n        /* \"AuctionSystem/AuctionSystem.sol\":1431:1451  auction.currentPrice */\n      0x02\n      add\n      sload\n        /* \"AuctionSystem/AuctionSystem.sol\":1419:1428  msg.value */\n      callvalue\n        /* \"AuctionSystem/AuctionSystem.sol\":1419:1451  msg.value > auction.currentPrice */\n      gt\n        /* \"AuctionSystem/AuctionSystem.sol\":1411:1495  require(msg.value > auction.currentPrice, \"Offer must be higher than current price\") */\n      tag_139\n      jumpi\n      mload(0x40)\n      0x08c379a000000000000000000000000000000000000000000000000000000000\n      dup2\n      mstore\n      0x04\n      add\n      tag_140\n      swap1\n      tag_141\n      jump\t// in\n    tag_140:\n      mload(0x40)\n      dup1\n      swap2\n      sub\n      swap1\n      revert\n    tag_139:\n        /* \"AuctionSystem/AuctionSystem.sol\":1526:1533  auction */\n      dup1\n        /* \"AuctionSystem/AuctionSystem.sol\":1526:1546  auction.initialPrice */\n      0x01\n      add\n      sload\n        /* \"AuctionSystem/AuctionSystem.sol\":1514:1523  msg.value */\n      callvalue\n        /* \"AuctionSystem/AuctionSystem.sol\":1514:1546  msg.value > auction.initialPrice */\n      gt\n        /* \"AuctionSystem/AuctionSystem.sol\":1506:1590  require(msg.value > auction.initialPrice, \"Offer must be higher than initial price\") */\n      tag_142\n      jumpi\n      mload(0x40)\n      0x08c379a000000000000000000000000000000000000000000000000000000000\n      dup2\n      mstore\n      0x04\n      add\n      tag_143\n      swap1\n      tag_144\n      jump\t// in\n    tag_143:\n      mload(0x40)\n      dup1\n      swap2\n      sub\n      swap1\n      revert\n    tag_142:\n        /* \"AuctionSystem/AuctionSystem.sol\":2759:2782  Auction storage auction */\n      0x00\n        /* \"AuctionSystem/AuctionSystem.sol\":2785:2793  auctions */\n      0x01\n        /* \"AuctionSystem/AuctionSystem.sol\":2794:2807  _auctionIndex */\n      dup8\n        /* \"AuctionSystem/AuctionSystem.sol\":2785:2808  auctions[_auctionIndex] */\n      dup2\n      sload\n      dup2\n      lt\n      tag_146\n      jumpi\n      tag_147\n      tag_74\n      jump\t// in\n    tag_147:\n    tag_146:\n      swap1\n      0x00\n      mstore\n      keccak256(0x00, 0x20)\n      swap1\n      0x07\n      mul\n      add\n        /* \"AuctionSystem/AuctionSystem.sol\":2759:2808  Auction storage auction = auctions[_auctionIndex] */\n      swap1\n      pop\n        /* \"AuctionSystem/AuctionSystem.sol\":2837:2867  address payable previousBidder */\n      0x00\n        /* \"AuctionSystem/AuctionSystem.sol\":2870:2877  auction */\n      dup2\n        /* \"AuctionSystem/AuctionSystem.sol\":2870:2884  auction.bidder */\n      0x03\n      add\n      0x00\n      swap1\n      sload\n      swap1\n      0x0100\n      exp\n      swap1\n      div\n      0xffffffffffffffffffffffffffffffffffffffff\n      and\n        /* \"AuctionSystem/AuctionSystem.sol\":2837:2884  address payable previousBidder = auction.bidder */\n      swap1\n      pop\n        /* \"AuctionSystem/AuctionSystem.sol\":2899:2918  uint256 previousBid */\n      0x00\n        /* \"AuctionSystem/AuctionSystem.sol\":2921:2928  auction */\n      dup3\n        /* \"AuctionSystem/AuctionSystem.sol\":2921:2941  auction.currentPrice */\n      0x02\n      add\n      sload\n        /* \"AuctionSystem/AuctionSystem.sol\":2899:2941  uint256 previousBid = auction.currentPrice */\n      swap1\n      pop\n        /* \"AuctionSystem/AuctionSystem.sol\":2988:2989  0 */\n      0x00\n        /* \"AuctionSystem/AuctionSystem.sol\":2962:2990  previousBidder != address(0) */\n      0xffffffffffffffffffffffffffffffffffffffff\n      and\n        /* \"AuctionSystem/AuctionSystem.sol\":2962:2976  previousBidder */\n      dup3\n        /* \"AuctionSystem/AuctionSystem.sol\":2962:2990  previousBidder != address(0) */\n      0xffffffffffffffffffffffffffffffffffffffff\n      and\n      eq\n        /* \"AuctionSystem/AuctionSystem.sol\":2958:3063  if (previousBidder != address(0)) {... */\n      tag_149\n      jumpi\n        /* \"AuctionSystem/AuctionSystem.sol\":3011:3025  previousBidder */\n      dup2\n        /* \"AuctionSystem/AuctionSystem.sol\":3011:3034  previousBidder.transfer */\n      0xffffffffffffffffffffffffffffffffffffffff\n      and\n        /* \"AuctionSystem/AuctionSystem.sol\":3011:3047  previousBidder.transfer(previousBid) */\n      0x08fc\n        /* \"AuctionSystem/AuctionSystem.sol\":3035:3046  previousBid */\n      dup3\n        /* \"AuctionSystem/AuctionSystem.sol\":3011:3047  previousBidder.transfer(previousBid) */\n      swap1\n      dup2\n      iszero\n      mul\n      swap1\n      mload(0x40)\n      0x00\n      mload(0x40)\n      dup1\n      dup4\n      sub\n      dup2\n      dup6\n      dup9\n      dup9\n      call\n      swap4\n      pop\n      pop\n      pop\n      pop\n      iszero\n      dup1\n      iszero\n      tag_151\n      jumpi\n      returndatasize\n      0x00\n      dup1\n      returndatacopy\n      revert(0x00, returndatasize)\n    tag_151:\n      pop\n        /* \"AuctionSystem/AuctionSystem.sol\":2958:3063  if (previousBidder != address(0)) {... */\n    tag_149:\n        /* \"AuctionSystem/AuctionSystem.sol\":3102:3111  msg.value */\n      callvalue\n        /* \"AuctionSystem/AuctionSystem.sol\":3079:3086  auction */\n      dup4\n        /* \"AuctionSystem/AuctionSystem.sol\":3079:3099  auction.currentPrice */\n      0x02\n      add\n        /* \"AuctionSystem/AuctionSystem.sol\":3079:3111  auction.currentPrice = msg.value */\n      dup2\n      swap1\n      sstore\n      pop\n        /* \"AuctionSystem/AuctionSystem.sol\":3151:3161  msg.sender */\n      caller\n        /* \"AuctionSystem/AuctionSystem.sol\":3126:3133  auction */\n      dup4\n        /* \"AuctionSystem/AuctionSystem.sol\":3126:3140  auction.bidder */\n      0x03\n      add\n      0x00\n        /* \"AuctionSystem/AuctionSystem.sol\":3126:3162  auction.bidder = payable(msg.sender) */\n      0x0100\n      exp\n      dup2\n      sload\n      dup2\n      0xffffffffffffffffffffffffffffffffffffffff\n      mul\n      not\n      and\n      swap1\n      dup4\n      0xffffffffffffffffffffffffffffffffffffffff\n      and\n      mul\n      or\n      swap1\n      sstore\n      pop\n        /* \"AuctionSystem/AuctionSystem.sol\":3197:3198  1 */\n      0x01\n        /* \"AuctionSystem/AuctionSystem.sol\":3177:3184  auction */\n      dup4\n        /* \"AuctionSystem/AuctionSystem.sol\":3177:3193  auction.bidCount */\n      0x05\n      add\n      0x00\n        /* \"AuctionSystem/AuctionSystem.sol\":3177:3198  auction.bidCount += 1 */\n      dup3\n      dup3\n      sload\n      tag_152\n      swap2\n      swap1\n      tag_153\n      jump\t// in\n    tag_152:\n      swap3\n      pop\n      pop\n      dup2\n      swap1\n      sstore\n      pop\n        /* \"AuctionSystem/AuctionSystem.sol\":3220:3268  UpdatedBid(_auctionIndex, msg.value, msg.sender) */\n      0x2f2317489eb3b025da5521ea9c4a7bd075188f0b72c209b7d7a29ff80e7b6220\n        /* \"AuctionSystem/AuctionSystem.sol\":3231:3244  _auctionIndex */\n      dup10\n        /* \"AuctionSystem/AuctionSystem.sol\":3246:3255  msg.value */\n      callvalue\n        /* \"AuctionSystem/AuctionSystem.sol\":3257:3267  msg.sender */\n      caller\n        /* \"AuctionSystem/AuctionSystem.sol\":3220:3268  UpdatedBid(_auctionIndex, msg.value, msg.sender) */\n      mload(0x40)\n      tag_154\n      swap4\n      swap3\n      swap2\n      swap1\n      tag_96\n      jump\t// in\n    tag_154:\n      mload(0x40)\n      dup1\n      swap2\n      sub\n      swap1\n      log1\n        /* \"AuctionSystem/AuctionSystem.sol\":2745:3276  {... */\n      pop\n      pop\n      pop\n        /* \"AuctionSystem/AuctionSystem.sol\":1350:1610  {... */\n      pop\n        /* \"AuctionSystem/AuctionSystem.sol\":1300:1301  _ */\n      pop\n        /* \"AuctionSystem/AuctionSystem.sol\":997:1309  {... */\n      pop\n        /* \"AuctionSystem/AuctionSystem.sol\":1708:1709  _ */\n      pop\n        /* \"AuctionSystem/AuctionSystem.sol\":2585:3276  function sendNewBid(uint256 _auctionIndex) public payable onlyAuctionExists(_auctionIndex) notOwner checkAuctionStatus(_auctionIndex) checkNewBid(_auctionIndex){... */\n      pop\n      pop\n      jump\t// out\n        /* \"AuctionSystem/AuctionSystem.sol\":445:485  mapping(string => bool) public namesUsed */\n    tag_43:\n      0x02\n      dup2\n      dup1\n      mload\n      0x20\n      dup2\n      add\n      dup3\n      add\n      dup1\n      mload\n      dup5\n      dup3\n      mstore\n      0x20\n      dup4\n      add\n      0x20\n      dup6\n      add\n      keccak256\n      dup2\n      dup4\n      mstore\n      dup1\n      swap6\n      pop\n      pop\n      pop\n      pop\n      pop\n      pop\n      0x00\n      swap2\n      pop\n      sload\n      swap1\n      0x0100\n      exp\n      swap1\n      div\n      0xff\n      and\n      dup2\n      jump\t// out\n        /* \"AuctionSystem/AuctionSystem.sol\":2163:2577  function createNewAuction(string memory _name, uint256 _initialPrice, uint256 _durationInSeconds) public OnlyOwner auctionNameAbiable(_name) {... */\n    tag_50:\n        /* \"AuctionSystem/AuctionSystem.sol\":560:570  msg.sender */\n      caller\n        /* \"AuctionSystem/AuctionSystem.sol\":551:570  owner == msg.sender */\n      0xffffffffffffffffffffffffffffffffffffffff\n      and\n        /* \"AuctionSystem/AuctionSystem.sol\":551:556  owner */\n      0x00\n      dup1\n      sload\n      swap1\n      0x0100\n      exp\n      swap1\n      div\n      0xffffffffffffffffffffffffffffffffffffffff\n      and\n        /* \"AuctionSystem/AuctionSystem.sol\":551:570  owner == msg.sender */\n      0xffffffffffffffffffffffffffffffffffffffff\n      and\n      eq\n        /* \"AuctionSystem/AuctionSystem.sol\":543:612  require(owner == msg.sender, \"Only the owner can create an auction.\") */\n      tag_156\n      jumpi\n      mload(0x40)\n      0x08c379a000000000000000000000000000000000000000000000000000000000\n      dup2\n      mstore\n      0x04\n      add\n      tag_157\n      swap1\n      tag_60\n      jump\t// in\n    tag_157:\n      mload(0x40)\n      dup1\n      swap2\n      sub\n      swap1\n      revert\n    tag_156:\n        /* \"AuctionSystem/AuctionSystem.sol\":2297:2302  _name */\n      dup3\n        /* \"AuctionSystem/AuctionSystem.sol\":708:717  namesUsed */\n      0x02\n        /* \"AuctionSystem/AuctionSystem.sol\":718:723  _name */\n      dup2\n        /* \"AuctionSystem/AuctionSystem.sol\":708:724  namesUsed[_name] */\n      mload(0x40)\n      tag_159\n      swap2\n      swap1\n      tag_160\n      jump\t// in\n    tag_159:\n      swap1\n      dup2\n      mstore\n      0x20\n      add\n      mload(0x40)\n      dup1\n      swap2\n      sub\n      swap1\n      keccak256\n      0x00\n      swap1\n      sload\n      swap1\n      0x0100\n      exp\n      swap1\n      div\n      0xff\n      and\n        /* \"AuctionSystem/AuctionSystem.sol\":707:724  !namesUsed[_name] */\n      iszero\n        /* \"AuctionSystem/AuctionSystem.sol\":699:761  require(!namesUsed[_name], \"This auction name is alredy used\") */\n      tag_161\n      jumpi\n      mload(0x40)\n      0x08c379a000000000000000000000000000000000000000000000000000000000\n      dup2\n      mstore\n      0x04\n      add\n      tag_162\n      swap1\n      tag_163\n      jump\t// in\n    tag_162:\n      mload(0x40)\n      dup1\n      swap2\n      sub\n      swap1\n      revert\n    tag_161:\n        /* \"AuctionSystem/AuctionSystem.sol\":2315:2332  uint256 _deadline */\n      0x00\n        /* \"AuctionSystem/AuctionSystem.sol\":2353:2371  _durationInSeconds */\n      dup3\n        /* \"AuctionSystem/AuctionSystem.sol\":2335:2350  block.timestamp */\n      timestamp\n        /* \"AuctionSystem/AuctionSystem.sol\":2335:2371  block.timestamp + _durationInSeconds */\n      tag_165\n      swap2\n      swap1\n      tag_153\n      jump\t// in\n    tag_165:\n        /* \"AuctionSystem/AuctionSystem.sol\":2315:2371  uint256 _deadline = block.timestamp + _durationInSeconds */\n      swap1\n      pop\n        /* \"AuctionSystem/AuctionSystem.sol\":2382:2390  auctions */\n      0x01\n        /* \"AuctionSystem/AuctionSystem.sol\":2396:2483  Auction(_name, _initialPrice, 0, payable(address(0)), _deadline, 0, AuctionStatus.Open) */\n      mload(0x40)\n      dup1\n      0xe0\n      add\n      0x40\n      mstore\n      dup1\n        /* \"AuctionSystem/AuctionSystem.sol\":2404:2409  _name */\n      dup8\n        /* \"AuctionSystem/AuctionSystem.sol\":2396:2483  Auction(_name, _initialPrice, 0, payable(address(0)), _deadline, 0, AuctionStatus.Open) */\n      dup2\n      mstore\n      0x20\n      add\n        /* \"AuctionSystem/AuctionSystem.sol\":2411:2424  _initialPrice */\n      dup7\n        /* \"AuctionSystem/AuctionSystem.sol\":2396:2483  Auction(_name, _initialPrice, 0, payable(address(0)), _deadline, 0, AuctionStatus.Open) */\n      dup2\n      mstore\n      0x20\n      add\n        /* \"AuctionSystem/AuctionSystem.sol\":2426:2427  0 */\n      0x00\n        /* \"AuctionSystem/AuctionSystem.sol\":2396:2483  Auction(_name, _initialPrice, 0, payable(address(0)), _deadline, 0, AuctionStatus.Open) */\n      dup2\n      mstore\n      0x20\n      add\n        /* \"AuctionSystem/AuctionSystem.sol\":2445:2446  0 */\n      0x00\n        /* \"AuctionSystem/AuctionSystem.sol\":2396:2483  Auction(_name, _initialPrice, 0, payable(address(0)), _deadline, 0, AuctionStatus.Open) */\n      0xffffffffffffffffffffffffffffffffffffffff\n      and\n      dup2\n      mstore\n      0x20\n      add\n        /* \"AuctionSystem/AuctionSystem.sol\":2450:2459  _deadline */\n      dup4\n        /* \"AuctionSystem/AuctionSystem.sol\":2396:2483  Auction(_name, _initialPrice, 0, payable(address(0)), _deadline, 0, AuctionStatus.Open) */\n      dup2\n      mstore\n      0x20\n      add\n        /* \"AuctionSystem/AuctionSystem.sol\":2461:2462  0 */\n      0x00\n        /* \"AuctionSystem/AuctionSystem.sol\":2396:2483  Auction(_name, _initialPrice, 0, payable(address(0)), _deadline, 0, AuctionStatus.Open) */\n      dup2\n      mstore\n      0x20\n      add\n        /* \"AuctionSystem/AuctionSystem.sol\":2464:2482  AuctionStatus.Open */\n      0x00\n        /* \"AuctionSystem/AuctionSystem.sol\":2396:2483  Auction(_name, _initialPrice, 0, payable(address(0)), _deadline, 0, AuctionStatus.Open) */\n      0x02\n      dup2\n      gt\n      iszero\n      tag_166\n      jumpi\n      tag_167\n      tag_78\n      jump\t// in\n    tag_167:\n    tag_166:\n      dup2\n      mstore\n      pop\n        /* \"AuctionSystem/AuctionSystem.sol\":2382:2484  auctions.push(Auction(_name, _initialPrice, 0, payable(address(0)), _deadline, 0, AuctionStatus.Open)) */\n      swap1\n      dup1\n      0x01\n      dup2\n      sload\n      add\n      dup1\n      dup3\n      sstore\n      dup1\n      swap2\n      pop\n      pop\n      0x01\n      swap1\n      sub\n      swap1\n      0x00\n      mstore\n      keccak256(0x00, 0x20)\n      swap1\n      0x07\n      mul\n      add\n      0x00\n      swap1\n      swap2\n      swap1\n      swap2\n      swap1\n      swap2\n      pop\n      0x00\n      dup3\n      add\n      mload\n      dup2\n      0x00\n      add\n      swap1\n      dup2\n      tag_169\n      swap2\n      swap1\n      tag_170\n      jump\t// in\n    tag_169:\n      pop\n      0x20\n      dup3\n      add\n      mload\n      dup2\n      0x01\n      add\n      sstore\n      0x40\n      dup3\n      add\n      mload\n      dup2\n      0x02\n      add\n      sstore\n      0x60\n      dup3\n      add\n      mload\n      dup2\n      0x03\n      add\n      exp(0x0100, 0x00)\n      dup2\n      sload\n      dup2\n      0xffffffffffffffffffffffffffffffffffffffff\n      mul\n      not\n      and\n      swap1\n      dup4\n      0xffffffffffffffffffffffffffffffffffffffff\n      and\n      mul\n      or\n      swap1\n      sstore\n      pop\n      0x80\n      dup3\n      add\n      mload\n      dup2\n      0x04\n      add\n      sstore\n      0xa0\n      dup3\n      add\n      mload\n      dup2\n      0x05\n      add\n      sstore\n      0xc0\n      dup3\n      add\n      mload\n      dup2\n      0x06\n      add\n      exp(0x0100, 0x00)\n      dup2\n      sload\n      dup2\n      0xff\n      mul\n      not\n      and\n      swap1\n      dup4\n      0x02\n      dup2\n      gt\n      iszero\n      tag_171\n      jumpi\n      tag_172\n      tag_78\n      jump\t// in\n    tag_172:\n    tag_171:\n      mul\n      or\n      swap1\n      sstore\n      pop\n      pop\n      pop\n        /* \"AuctionSystem/AuctionSystem.sol\":2514:2518  true */\n      0x01\n        /* \"AuctionSystem/AuctionSystem.sol\":2495:2504  namesUsed */\n      0x02\n        /* \"AuctionSystem/AuctionSystem.sol\":2505:2510  _name */\n      dup7\n        /* \"AuctionSystem/AuctionSystem.sol\":2495:2511  namesUsed[_name] */\n      mload(0x40)\n      tag_173\n      swap2\n      swap1\n      tag_160\n      jump\t// in\n    tag_173:\n      swap1\n      dup2\n      mstore\n      0x20\n      add\n      mload(0x40)\n      dup1\n      swap2\n      sub\n      swap1\n      keccak256\n      0x00\n        /* \"AuctionSystem/AuctionSystem.sol\":2495:2518  namesUsed[_name] = true */\n      0x0100\n      exp\n      dup2\n      sload\n      dup2\n      0xff\n      mul\n      not\n      and\n      swap1\n      dup4\n      iszero\n      iszero\n      mul\n      or\n      swap1\n      sstore\n      pop\n        /* \"AuctionSystem/AuctionSystem.sol\":2534:2569  CreateAuction(_name, _initialPrice) */\n      0x411f4da18fed49d65f216aabbd840c349d443c68068da6f337005faf5e31b326\n        /* \"AuctionSystem/AuctionSystem.sol\":2548:2553  _name */\n      dup6\n        /* \"AuctionSystem/AuctionSystem.sol\":2555:2568  _initialPrice */\n      dup6\n        /* \"AuctionSystem/AuctionSystem.sol\":2534:2569  CreateAuction(_name, _initialPrice) */\n      mload(0x40)\n      tag_174\n      swap3\n      swap2\n      swap1\n      tag_175\n      jump\t// in\n    tag_174:\n      mload(0x40)\n      dup1\n      swap2\n      sub\n      swap1\n      log1\n        /* \"AuctionSystem/AuctionSystem.sol\":2304:2577  {... */\n      pop\n        /* \"AuctionSystem/AuctionSystem.sol\":623:624  _ */\n      pop\n        /* \"AuctionSystem/AuctionSystem.sol\":2163:2577  function createNewAuction(string memory _name, uint256 _initialPrice, uint256 _durationInSeconds) public OnlyOwner auctionNameAbiable(_name) {... */\n      pop\n      pop\n      pop\n      jump\t// out\n        /* \"AuctionSystem/AuctionSystem.sol\":3963:4351  function getAuctionDetails(uint _id) public view returns ( address currentWinner, uint256 currentPrice, uint256 secondsRemaining, AuctionStatus status) {... */\n    tag_54:\n        /* \"AuctionSystem/AuctionSystem.sol\":4022:4043  address currentWinner */\n      0x00\n        /* \"AuctionSystem/AuctionSystem.sol\":4045:4065  uint256 currentPrice */\n      dup1\n        /* \"AuctionSystem/AuctionSystem.sol\":4067:4091  uint256 secondsRemaining */\n      0x00\n        /* \"AuctionSystem/AuctionSystem.sol\":4093:4113  AuctionStatus status */\n      dup1\n        /* \"AuctionSystem/AuctionSystem.sol\":4126:4142  Auction memory a */\n      0x00\n        /* \"AuctionSystem/AuctionSystem.sol\":4145:4153  auctions */\n      0x01\n        /* \"AuctionSystem/AuctionSystem.sol\":4154:4157  _id */\n      dup7\n        /* \"AuctionSystem/AuctionSystem.sol\":4145:4158  auctions[_id] */\n      dup2\n      sload\n      dup2\n      lt\n      tag_177\n      jumpi\n      tag_178\n      tag_74\n      jump\t// in\n    tag_178:\n    tag_177:\n      swap1\n      0x00\n      mstore\n      keccak256(0x00, 0x20)\n      swap1\n      0x07\n      mul\n      add\n        /* \"AuctionSystem/AuctionSystem.sol\":4126:4158  Auction memory a = auctions[_id] */\n      mload(0x40)\n      dup1\n      0xe0\n      add\n      0x40\n      mstore\n      swap1\n      dup2\n      0x00\n      dup3\n      add\n      dup1\n      sload\n      tag_180\n      swap1\n      tag_101\n      jump\t// in\n    tag_180:\n      dup1\n      0x1f\n      add\n      0x20\n      dup1\n      swap2\n      div\n      mul\n      0x20\n      add\n      mload(0x40)\n      swap1\n      dup2\n      add\n      0x40\n      mstore\n      dup1\n      swap3\n      swap2\n      swap1\n      dup2\n      dup2\n      mstore\n      0x20\n      add\n      dup3\n      dup1\n      sload\n      tag_181\n      swap1\n      tag_101\n      jump\t// in\n    tag_181:\n      dup1\n      iszero\n      tag_182\n      jumpi\n      dup1\n      0x1f\n      lt\n      tag_183\n      jumpi\n      0x0100\n      dup1\n      dup4\n      sload\n      div\n      mul\n      dup4\n      mstore\n      swap2\n      0x20\n      add\n      swap2\n      jump(tag_182)\n    tag_183:\n      dup3\n      add\n      swap2\n      swap1\n      0x00\n      mstore\n      keccak256(0x00, 0x20)\n      swap1\n    tag_184:\n      dup2\n      sload\n      dup2\n      mstore\n      swap1\n      0x01\n      add\n      swap1\n      0x20\n      add\n      dup1\n      dup4\n      gt\n      tag_184\n      jumpi\n      dup3\n      swap1\n      sub\n      0x1f\n      and\n      dup3\n      add\n      swap2\n    tag_182:\n      pop\n      pop\n      pop\n      pop\n      pop\n      dup2\n      mstore\n      0x20\n      add\n      0x01\n      dup3\n      add\n      sload\n      dup2\n      mstore\n      0x20\n      add\n      0x02\n      dup3\n      add\n      sload\n      dup2\n      mstore\n      0x20\n      add\n      0x03\n      dup3\n      add\n      0x00\n      swap1\n      sload\n      swap1\n      0x0100\n      exp\n      swap1\n      div\n      0xffffffffffffffffffffffffffffffffffffffff\n      and\n      0xffffffffffffffffffffffffffffffffffffffff\n      and\n      0xffffffffffffffffffffffffffffffffffffffff\n      and\n      dup2\n      mstore\n      0x20\n      add\n      0x04\n      dup3\n      add\n      sload\n      dup2\n      mstore\n      0x20\n      add\n      0x05\n      dup3\n      add\n      sload\n      dup2\n      mstore\n      0x20\n      add\n      0x06\n      dup3\n      add\n      0x00\n      swap1\n      sload\n      swap1\n      0x0100\n      exp\n      swap1\n      div\n      0xff\n      and\n      0x02\n      dup2\n      gt\n      iszero\n      tag_185\n      jumpi\n      tag_186\n      tag_78\n      jump\t// in\n    tag_186:\n    tag_185:\n      0x02\n      dup2\n      gt\n      iszero\n      tag_187\n      jumpi\n      tag_188\n      tag_78\n      jump\t// in\n    tag_188:\n    tag_187:\n      dup2\n      mstore\n      pop\n      pop\n      swap1\n      pop\n        /* \"AuctionSystem/AuctionSystem.sol\":4169:4185  uint256 timeLeft */\n      0x00\n        /* \"AuctionSystem/AuctionSystem.sol\":4201:4216  block.timestamp */\n      timestamp\n        /* \"AuctionSystem/AuctionSystem.sol\":4188:4189  a */\n      dup3\n        /* \"AuctionSystem/AuctionSystem.sol\":4188:4198  a.deadline */\n      0x80\n      add\n      mload\n        /* \"AuctionSystem/AuctionSystem.sol\":4188:4216  a.deadline > block.timestamp */\n      gt\n        /* \"AuctionSystem/AuctionSystem.sol\":4188:4277  a.deadline > block.timestamp... */\n      tag_189\n      jumpi\n        /* \"AuctionSystem/AuctionSystem.sol\":4276:4277  0 */\n      0x00\n        /* \"AuctionSystem/AuctionSystem.sol\":4188:4277  a.deadline > block.timestamp... */\n      jump(tag_190)\n    tag_189:\n        /* \"AuctionSystem/AuctionSystem.sol\":4245:4260  block.timestamp */\n      timestamp\n        /* \"AuctionSystem/AuctionSystem.sol\":4232:4233  a */\n      dup3\n        /* \"AuctionSystem/AuctionSystem.sol\":4232:4242  a.deadline */\n      0x80\n      add\n      mload\n        /* \"AuctionSystem/AuctionSystem.sol\":4232:4260  a.deadline - block.timestamp */\n      tag_191\n      swap2\n      swap1\n      tag_192\n      jump\t// in\n    tag_191:\n        /* \"AuctionSystem/AuctionSystem.sol\":4188:4277  a.deadline > block.timestamp... */\n    tag_190:\n        /* \"AuctionSystem/AuctionSystem.sol\":4169:4277  uint256 timeLeft = a.deadline > block.timestamp... */\n      swap1\n      pop\n        /* \"AuctionSystem/AuctionSystem.sol\":4298:4299  a */\n      dup2\n        /* \"AuctionSystem/AuctionSystem.sol\":4298:4306  a.bidder */\n      0x60\n      add\n      mload\n        /* \"AuctionSystem/AuctionSystem.sol\":4308:4309  a */\n      dup3\n        /* \"AuctionSystem/AuctionSystem.sol\":4308:4322  a.currentPrice */\n      0x40\n      add\n      mload\n        /* \"AuctionSystem/AuctionSystem.sol\":4324:4332  timeLeft */\n      dup3\n        /* \"AuctionSystem/AuctionSystem.sol\":4334:4335  a */\n      dup5\n        /* \"AuctionSystem/AuctionSystem.sol\":4334:4342  a.status */\n      0xc0\n      add\n      mload\n        /* \"AuctionSystem/AuctionSystem.sol\":4290:4343  return (a.bidder, a.currentPrice, timeLeft, a.status) */\n      swap6\n      pop\n      swap6\n      pop\n      swap6\n      pop\n      swap6\n      pop\n      pop\n      pop\n        /* \"AuctionSystem/AuctionSystem.sol\":3963:4351  function getAuctionDetails(uint _id) public view returns ( address currentWinner, uint256 currentPrice, uint256 secondsRemaining, AuctionStatus status) {... */\n      swap2\n      swap4\n      pop\n      swap2\n      swap4\n      jump\t// out\n        /* \"AuctionSystem/AuctionSystem.sol\":4592:4892  function _closeAuction(uint256 _id) internal onlyAuctionExists(_id) {... */\n    tag_63:\n        /* \"AuctionSystem/AuctionSystem.sol\":4655:4658  _id */\n      dup1\n        /* \"AuctionSystem/AuctionSystem.sol\":854:862  auctions */\n      0x01\n        /* \"AuctionSystem/AuctionSystem.sol\":854:869  auctions.length */\n      dup1\n      sload\n      swap1\n      pop\n        /* \"AuctionSystem/AuctionSystem.sol\":848:851  _id */\n      dup2\n        /* \"AuctionSystem/AuctionSystem.sol\":848:869  _id < auctions.length */\n      lt\n        /* \"AuctionSystem/AuctionSystem.sol\":840:918  require(_id < auctions.length , \"This ID does not match any created auction.\") */\n      tag_194\n      jumpi\n      mload(0x40)\n      0x08c379a000000000000000000000000000000000000000000000000000000000\n      dup2\n      mstore\n      0x04\n      add\n      tag_195\n      swap1\n      tag_70\n      jump\t// in\n    tag_195:\n      mload(0x40)\n      dup1\n      swap2\n      sub\n      swap1\n      revert\n    tag_194:\n        /* \"AuctionSystem/AuctionSystem.sol\":4671:4694  Auction storage auction */\n      0x00\n        /* \"AuctionSystem/AuctionSystem.sol\":4697:4705  auctions */\n      0x01\n        /* \"AuctionSystem/AuctionSystem.sol\":4706:4709  _id */\n      dup4\n        /* \"AuctionSystem/AuctionSystem.sol\":4697:4710  auctions[_id] */\n      dup2\n      sload\n      dup2\n      lt\n      tag_197\n      jumpi\n      tag_198\n      tag_74\n      jump\t// in\n    tag_198:\n    tag_197:\n      swap1\n      0x00\n      mstore\n      keccak256(0x00, 0x20)\n      swap1\n      0x07\n      mul\n      add\n        /* \"AuctionSystem/AuctionSystem.sol\":4671:4710  Auction storage auction = auctions[_id] */\n      swap1\n      pop\n        /* \"AuctionSystem/AuctionSystem.sol\":4738:4758  AuctionStatus.Closed */\n      0x01\n        /* \"AuctionSystem/AuctionSystem.sol\":4721:4728  auction */\n      dup2\n        /* \"AuctionSystem/AuctionSystem.sol\":4721:4735  auction.status */\n      0x06\n      add\n      0x00\n        /* \"AuctionSystem/AuctionSystem.sol\":4721:4758  auction.status = AuctionStatus.Closed */\n      0x0100\n      exp\n      dup2\n      sload\n      dup2\n      0xff\n      mul\n      not\n      and\n      swap1\n      dup4\n      0x02\n      dup2\n      gt\n      iszero\n      tag_200\n      jumpi\n      tag_201\n      tag_78\n      jump\t// in\n    tag_201:\n    tag_200:\n      mul\n      or\n      swap1\n      sstore\n      pop\n        /* \"AuctionSystem/AuctionSystem.sol\":4769:4794  string memory auctionName */\n      0x00\n        /* \"AuctionSystem/AuctionSystem.sol\":4797:4804  auction */\n      dup2\n        /* \"AuctionSystem/AuctionSystem.sol\":4797:4809  auction.name */\n      0x00\n      add\n        /* \"AuctionSystem/AuctionSystem.sol\":4769:4809  string memory auctionName = auction.name */\n      dup1\n      sload\n      tag_202\n      swap1\n      tag_101\n      jump\t// in\n    tag_202:\n      dup1\n      0x1f\n      add\n      0x20\n      dup1\n      swap2\n      div\n      mul\n      0x20\n      add\n      mload(0x40)\n      swap1\n      dup2\n      add\n      0x40\n      mstore\n      dup1\n      swap3\n      swap2\n      swap1\n      dup2\n      dup2\n      mstore\n      0x20\n      add\n      dup3\n      dup1\n      sload\n      tag_203\n      swap1\n      tag_101\n      jump\t// in\n    tag_203:\n      dup1\n      iszero\n      tag_204\n      jumpi\n      dup1\n      0x1f\n      lt\n      tag_205\n      jumpi\n      0x0100\n      dup1\n      dup4\n      sload\n      div\n      mul\n      dup4\n      mstore\n      swap2\n      0x20\n      add\n      swap2\n      jump(tag_204)\n    tag_205:\n      dup3\n      add\n      swap2\n      swap1\n      0x00\n      mstore\n      keccak256(0x00, 0x20)\n      swap1\n    tag_206:\n      dup2\n      sload\n      dup2\n      mstore\n      swap1\n      0x01\n      add\n      swap1\n      0x20\n      add\n      dup1\n      dup4\n      gt\n      tag_206\n      jumpi\n      dup3\n      swap1\n      sub\n      0x1f\n      and\n      dup3\n      add\n      swap2\n    tag_204:\n      pop\n      pop\n      pop\n      pop\n      pop\n      swap1\n      pop\n        /* \"AuctionSystem/AuctionSystem.sol\":4825:4884  UpdatedAuctionState(auctionName, auctions[_id].status, _id) */\n      0x6a4fc6478f4a93574fcdd50ab147277a7be5c6e0d8287dec5d285fe8e39c51c6\n        /* \"AuctionSystem/AuctionSystem.sol\":4845:4856  auctionName */\n      dup2\n        /* \"AuctionSystem/AuctionSystem.sol\":4858:4866  auctions */\n      0x01\n        /* \"AuctionSystem/AuctionSystem.sol\":4867:4870  _id */\n      dup7\n        /* \"AuctionSystem/AuctionSystem.sol\":4858:4871  auctions[_id] */\n      dup2\n      sload\n      dup2\n      lt\n      tag_207\n      jumpi\n      tag_208\n      tag_74\n      jump\t// in\n    tag_208:\n    tag_207:\n      swap1\n      0x00\n      mstore\n      keccak256(0x00, 0x20)\n      swap1\n      0x07\n      mul\n      add\n        /* \"AuctionSystem/AuctionSystem.sol\":4858:4878  auctions[_id].status */\n      0x06\n      add\n      0x00\n      swap1\n      sload\n      swap1\n      0x0100\n      exp\n      swap1\n      div\n      0xff\n      and\n        /* \"AuctionSystem/AuctionSystem.sol\":4880:4883  _id */\n      dup7\n        /* \"AuctionSystem/AuctionSystem.sol\":4825:4884  UpdatedAuctionState(auctionName, auctions[_id].status, _id) */\n      mload(0x40)\n      tag_210\n      swap4\n      swap3\n      swap2\n      swap1\n      tag_211\n      jump\t// in\n    tag_210:\n      mload(0x40)\n      dup1\n      swap2\n      sub\n      swap1\n      log1\n        /* \"AuctionSystem/AuctionSystem.sol\":4660:4892  {... */\n      pop\n      pop\n        /* \"AuctionSystem/AuctionSystem.sol\":4592:4892  function _closeAuction(uint256 _id) internal onlyAuctionExists(_id) {... */\n      pop\n      pop\n      jump\t// out\n        /* \"#utility.yul\":7:82   */\n    tag_212:\n        /* \"#utility.yul\":40:46   */\n      0x00\n        /* \"#utility.yul\":73:75   */\n      0x40\n        /* \"#utility.yul\":67:76   */\n      mload\n        /* \"#utility.yul\":57:76   */\n      swap1\n      pop\n        /* \"#utility.yul\":7:82   */\n      swap1\n      jump\t// out\n        /* \"#utility.yul\":88:205   */\n    tag_213:\n        /* \"#utility.yul\":197:198   */\n      0x00\n        /* \"#utility.yul\":194:195   */\n      dup1\n        /* \"#utility.yul\":187:199   */\n      revert\n        /* \"#utility.yul\":211:328   */\n    tag_214:\n        /* \"#utility.yul\":320:321   */\n      0x00\n        /* \"#utility.yul\":317:318   */\n      dup1\n        /* \"#utility.yul\":310:322   */\n      revert\n        /* \"#utility.yul\":334:411   */\n    tag_215:\n        /* \"#utility.yul\":371:378   */\n      0x00\n        /* \"#utility.yul\":400:405   */\n      dup2\n        /* \"#utility.yul\":389:405   */\n      swap1\n      pop\n        /* \"#utility.yul\":334:411   */\n      swap2\n      swap1\n      pop\n      jump\t// out\n        /* \"#utility.yul\":417:539   */\n    tag_216:\n        /* \"#utility.yul\":490:514   */\n      tag_287\n        /* \"#utility.yul\":508:513   */\n      dup2\n        /* \"#utility.yul\":490:514   */\n      tag_215\n      jump\t// in\n    tag_287:\n        /* \"#utility.yul\":483:488   */\n      dup2\n        /* \"#utility.yul\":480:515   */\n      eq\n        /* \"#utility.yul\":470:533   */\n      tag_288\n      jumpi\n        /* \"#utility.yul\":529:530   */\n      0x00\n        /* \"#utility.yul\":526:527   */\n      dup1\n        /* \"#utility.yul\":519:531   */\n      revert\n        /* \"#utility.yul\":470:533   */\n    tag_288:\n        /* \"#utility.yul\":417:539   */\n      pop\n      jump\t// out\n        /* \"#utility.yul\":545:684   */\n    tag_217:\n        /* \"#utility.yul\":591:596   */\n      0x00\n        /* \"#utility.yul\":629:635   */\n      dup2\n        /* \"#utility.yul\":616:636   */\n      calldataload\n        /* \"#utility.yul\":607:636   */\n      swap1\n      pop\n        /* \"#utility.yul\":645:678   */\n      tag_290\n        /* \"#utility.yul\":672:677   */\n      dup2\n        /* \"#utility.yul\":645:678   */\n      tag_216\n      jump\t// in\n    tag_290:\n        /* \"#utility.yul\":545:684   */\n      swap3\n      swap2\n      pop\n      pop\n      jump\t// out\n        /* \"#utility.yul\":690:1019   */\n    tag_15:\n        /* \"#utility.yul\":749:755   */\n      0x00\n        /* \"#utility.yul\":798:800   */\n      0x20\n        /* \"#utility.yul\":786:795   */\n      dup3\n        /* \"#utility.yul\":777:784   */\n      dup5\n        /* \"#utility.yul\":773:796   */\n      sub\n        /* \"#utility.yul\":769:801   */\n      slt\n        /* \"#utility.yul\":766:885   */\n      iszero\n      tag_292\n      jumpi\n        /* \"#utility.yul\":804:883   */\n      tag_293\n      tag_213\n      jump\t// in\n    tag_293:\n        /* \"#utility.yul\":766:885   */\n    tag_292:\n        /* \"#utility.yul\":924:925   */\n      0x00\n        /* \"#utility.yul\":949:1002   */\n      tag_294\n        /* \"#utility.yul\":994:1001   */\n      dup5\n        /* \"#utility.yul\":985:991   */\n      dup3\n        /* \"#utility.yul\":974:983   */\n      dup6\n        /* \"#utility.yul\":970:992   */\n      add\n        /* \"#utility.yul\":949:1002   */\n      tag_217\n      jump\t// in\n    tag_294:\n        /* \"#utility.yul\":939:1002   */\n      swap2\n      pop\n        /* \"#utility.yul\":895:1012   */\n      pop\n        /* \"#utility.yul\":690:1019   */\n      swap3\n      swap2\n      pop\n      pop\n      jump\t// out\n        /* \"#utility.yul\":1025:1143   */\n    tag_218:\n        /* \"#utility.yul\":1112:1136   */\n      tag_296\n        /* \"#utility.yul\":1130:1135   */\n      dup2\n        /* \"#utility.yul\":1112:1136   */\n      tag_215\n      jump\t// in\n    tag_296:\n        /* \"#utility.yul\":1107:1110   */\n      dup3\n        /* \"#utility.yul\":1100:1137   */\n      mstore\n        /* \"#utility.yul\":1025:1143   */\n      pop\n      pop\n      jump\t// out\n        /* \"#utility.yul\":1149:1371   */\n    tag_24:\n        /* \"#utility.yul\":1242:1246   */\n      0x00\n        /* \"#utility.yul\":1280:1282   */\n      0x20\n        /* \"#utility.yul\":1269:1278   */\n      dup3\n        /* \"#utility.yul\":1265:1283   */\n      add\n        /* \"#utility.yul\":1257:1283   */\n      swap1\n      pop\n        /* \"#utility.yul\":1293:1364   */\n      tag_298\n        /* \"#utility.yul\":1361:1362   */\n      0x00\n        /* \"#utility.yul\":1350:1359   */\n      dup4\n        /* \"#utility.yul\":1346:1363   */\n      add\n        /* \"#utility.yul\":1337:1343   */\n      dup5\n        /* \"#utility.yul\":1293:1364   */\n      tag_218\n      jump\t// in\n    tag_298:\n        /* \"#utility.yul\":1149:1371   */\n      swap3\n      swap2\n      pop\n      pop\n      jump\t// out\n        /* \"#utility.yul\":1377:1476   */\n    tag_219:\n        /* \"#utility.yul\":1429:1435   */\n      0x00\n        /* \"#utility.yul\":1463:1468   */\n      dup2\n        /* \"#utility.yul\":1457:1469   */\n      mload\n        /* \"#utility.yul\":1447:1469   */\n      swap1\n      pop\n        /* \"#utility.yul\":1377:1476   */\n      swap2\n      swap1\n      pop\n      jump\t// out\n        /* \"#utility.yul\":1482:1651   */\n    tag_220:\n        /* \"#utility.yul\":1566:1577   */\n      0x00\n        /* \"#utility.yul\":1600:1606   */\n      dup3\n        /* \"#utility.yul\":1595:1598   */\n      dup3\n        /* \"#utility.yul\":1588:1607   */\n      mstore\n        /* \"#utility.yul\":1640:1644   */\n      0x20\n        /* \"#utility.yul\":1635:1638   */\n      dup3\n        /* \"#utility.yul\":1631:1645   */\n      add\n        /* \"#utility.yul\":1616:1645   */\n      swap1\n      pop\n        /* \"#utility.yul\":1482:1651   */\n      swap3\n      swap2\n      pop\n      pop\n      jump\t// out\n        /* \"#utility.yul\":1657:1903   */\n    tag_221:\n        /* \"#utility.yul\":1738:1739   */\n      0x00\n        /* \"#utility.yul\":1748:1861   */\n    tag_302:\n        /* \"#utility.yul\":1762:1768   */\n      dup4\n        /* \"#utility.yul\":1759:1760   */\n      dup2\n        /* \"#utility.yul\":1756:1769   */\n      lt\n        /* \"#utility.yul\":1748:1861   */\n      iszero\n      tag_304\n      jumpi\n        /* \"#utility.yul\":1847:1848   */\n      dup1\n        /* \"#utility.yul\":1842:1845   */\n      dup3\n        /* \"#utility.yul\":1838:1849   */\n      add\n        /* \"#utility.yul\":1832:1850   */\n      mload\n        /* \"#utility.yul\":1828:1829   */\n      dup2\n        /* \"#utility.yul\":1823:1826   */\n      dup5\n        /* \"#utility.yul\":1819:1830   */\n      add\n        /* \"#utility.yul\":1812:1851   */\n      mstore\n        /* \"#utility.yul\":1784:1786   */\n      0x20\n        /* \"#utility.yul\":1781:1782   */\n      dup2\n        /* \"#utility.yul\":1777:1787   */\n      add\n        /* \"#utility.yul\":1772:1787   */\n      swap1\n      pop\n        /* \"#utility.yul\":1748:1861   */\n      jump(tag_302)\n    tag_304:\n        /* \"#utility.yul\":1895:1896   */\n      0x00\n        /* \"#utility.yul\":1886:1892   */\n      dup5\n        /* \"#utility.yul\":1881:1884   */\n      dup5\n        /* \"#utility.yul\":1877:1893   */\n      add\n        /* \"#utility.yul\":1870:1897   */\n      mstore\n        /* \"#utility.yul\":1719:1903   */\n      pop\n        /* \"#utility.yul\":1657:1903   */\n      pop\n      pop\n      pop\n      jump\t// out\n        /* \"#utility.yul\":1909:2011   */\n    tag_222:\n        /* \"#utility.yul\":1950:1956   */\n      0x00\n        /* \"#utility.yul\":2001:2003   */\n      0x1f\n        /* \"#utility.yul\":1997:2004   */\n      not\n        /* \"#utility.yul\":1992:1994   */\n      0x1f\n        /* \"#utility.yul\":1985:1990   */\n      dup4\n        /* \"#utility.yul\":1981:1995   */\n      add\n        /* \"#utility.yul\":1977:2005   */\n      and\n        /* \"#utility.yul\":1967:2005   */\n      swap1\n      pop\n        /* \"#utility.yul\":1909:2011   */\n      swap2\n      swap1\n      pop\n      jump\t// out\n        /* \"#utility.yul\":2017:2394   */\n    tag_223:\n        /* \"#utility.yul\":2105:2108   */\n      0x00\n        /* \"#utility.yul\":2133:2172   */\n      tag_307\n        /* \"#utility.yul\":2166:2171   */\n      dup3\n        /* \"#utility.yul\":2133:2172   */\n      tag_219\n      jump\t// in\n    tag_307:\n        /* \"#utility.yul\":2188:2259   */\n      tag_308\n        /* \"#utility.yul\":2252:2258   */\n      dup2\n        /* \"#utility.yul\":2247:2250   */\n      dup6\n        /* \"#utility.yul\":2188:2259   */\n      tag_220\n      jump\t// in\n    tag_308:\n        /* \"#utility.yul\":2181:2259   */\n      swap4\n      pop\n        /* \"#utility.yul\":2268:2333   */\n      tag_309\n        /* \"#utility.yul\":2326:2332   */\n      dup2\n        /* \"#utility.yul\":2321:2324   */\n      dup6\n        /* \"#utility.yul\":2314:2318   */\n      0x20\n        /* \"#utility.yul\":2307:2312   */\n      dup7\n        /* \"#utility.yul\":2303:2319   */\n      add\n        /* \"#utility.yul\":2268:2333   */\n      tag_221\n      jump\t// in\n    tag_309:\n        /* \"#utility.yul\":2358:2387   */\n      tag_310\n        /* \"#utility.yul\":2380:2386   */\n      dup2\n        /* \"#utility.yul\":2358:2387   */\n      tag_222\n      jump\t// in\n    tag_310:\n        /* \"#utility.yul\":2353:2356   */\n      dup5\n        /* \"#utility.yul\":2349:2388   */\n      add\n        /* \"#utility.yul\":2342:2388   */\n      swap2\n      pop\n        /* \"#utility.yul\":2109:2394   */\n      pop\n        /* \"#utility.yul\":2017:2394   */\n      swap3\n      swap2\n      pop\n      pop\n      jump\t// out\n        /* \"#utility.yul\":2400:2526   */\n    tag_224:\n        /* \"#utility.yul\":2437:2444   */\n      0x00\n        /* \"#utility.yul\":2477:2519   */\n      0xffffffffffffffffffffffffffffffffffffffff\n        /* \"#utility.yul\":2470:2475   */\n      dup3\n        /* \"#utility.yul\":2466:2520   */\n      and\n        /* \"#utility.yul\":2455:2520   */\n      swap1\n      pop\n        /* \"#utility.yul\":2400:2526   */\n      swap2\n      swap1\n      pop\n      jump\t// out\n        /* \"#utility.yul\":2532:2636   */\n    tag_225:\n        /* \"#utility.yul\":2577:2584   */\n      0x00\n        /* \"#utility.yul\":2606:2630   */\n      tag_313\n        /* \"#utility.yul\":2624:2629   */\n      dup3\n        /* \"#utility.yul\":2606:2630   */\n      tag_224\n      jump\t// in\n    tag_313:\n        /* \"#utility.yul\":2595:2630   */\n      swap1\n      pop\n        /* \"#utility.yul\":2532:2636   */\n      swap2\n      swap1\n      pop\n      jump\t// out\n        /* \"#utility.yul\":2642:2784   */\n    tag_226:\n        /* \"#utility.yul\":2745:2777   */\n      tag_315\n        /* \"#utility.yul\":2771:2776   */\n      dup2\n        /* \"#utility.yul\":2745:2777   */\n      tag_225\n      jump\t// in\n    tag_315:\n        /* \"#utility.yul\":2740:2743   */\n      dup3\n        /* \"#utility.yul\":2733:2778   */\n      mstore\n        /* \"#utility.yul\":2642:2784   */\n      pop\n      pop\n      jump\t// out\n        /* \"#utility.yul\":2790:2970   */\n    tag_78:\n        /* \"#utility.yul\":2838:2915   */\n      0x4e487b7100000000000000000000000000000000000000000000000000000000\n        /* \"#utility.yul\":2835:2836   */\n      0x00\n        /* \"#utility.yul\":2828:2916   */\n      mstore\n        /* \"#utility.yul\":2935:2939   */\n      0x21\n        /* \"#utility.yul\":2932:2933   */\n      0x04\n        /* \"#utility.yul\":2925:2940   */\n      mstore\n        /* \"#utility.yul\":2959:2963   */\n      0x24\n        /* \"#utility.yul\":2956:2957   */\n      0x00\n        /* \"#utility.yul\":2949:2964   */\n      revert\n        /* \"#utility.yul\":2976:3096   */\n    tag_227:\n        /* \"#utility.yul\":3064:3065   */\n      0x03\n        /* \"#utility.yul\":3057:3062   */\n      dup2\n        /* \"#utility.yul\":3054:3066   */\n      lt\n        /* \"#utility.yul\":3044:3090   */\n      tag_318\n      jumpi\n        /* \"#utility.yul\":3070:3088   */\n      tag_319\n      tag_78\n      jump\t// in\n    tag_319:\n        /* \"#utility.yul\":3044:3090   */\n    tag_318:\n        /* \"#utility.yul\":2976:3096   */\n      pop\n      jump\t// out\n        /* \"#utility.yul\":3102:3243   */\n    tag_228:\n        /* \"#utility.yul\":3154:3161   */\n      0x00\n        /* \"#utility.yul\":3183:3188   */\n      dup2\n        /* \"#utility.yul\":3172:3188   */\n      swap1\n      pop\n        /* \"#utility.yul\":3189:3237   */\n      tag_321\n        /* \"#utility.yul\":3231:3236   */\n      dup3\n        /* \"#utility.yul\":3189:3237   */\n      tag_227\n      jump\t// in\n    tag_321:\n        /* \"#utility.yul\":3102:3243   */\n      swap2\n      swap1\n      pop\n      jump\t// out\n        /* \"#utility.yul\":3249:3390   */\n    tag_229:\n        /* \"#utility.yul\":3312:3321   */\n      0x00\n        /* \"#utility.yul\":3345:3384   */\n      tag_323\n        /* \"#utility.yul\":3378:3383   */\n      dup3\n        /* \"#utility.yul\":3345:3384   */\n      tag_228\n      jump\t// in\n    tag_323:\n        /* \"#utility.yul\":3332:3384   */\n      swap1\n      pop\n        /* \"#utility.yul\":3249:3390   */\n      swap2\n      swap1\n      pop\n      jump\t// out\n        /* \"#utility.yul\":3396:3553   */\n    tag_230:\n        /* \"#utility.yul\":3496:3546   */\n      tag_325\n        /* \"#utility.yul\":3540:3545   */\n      dup2\n        /* \"#utility.yul\":3496:3546   */\n      tag_229\n      jump\t// in\n    tag_325:\n        /* \"#utility.yul\":3491:3494   */\n      dup3\n        /* \"#utility.yul\":3484:3547   */\n      mstore\n        /* \"#utility.yul\":3396:3553   */\n      pop\n      pop\n      jump\t// out\n        /* \"#utility.yul\":3559:4594   */\n    tag_30:\n        /* \"#utility.yul\":3869:3873   */\n      0x00\n        /* \"#utility.yul\":3907:3910   */\n      0xe0\n        /* \"#utility.yul\":3896:3905   */\n      dup3\n        /* \"#utility.yul\":3892:3911   */\n      add\n        /* \"#utility.yul\":3884:3911   */\n      swap1\n      pop\n        /* \"#utility.yul\":3957:3966   */\n      dup2\n        /* \"#utility.yul\":3951:3955   */\n      dup2\n        /* \"#utility.yul\":3947:3967   */\n      sub\n        /* \"#utility.yul\":3943:3944   */\n      0x00\n        /* \"#utility.yul\":3932:3941   */\n      dup4\n        /* \"#utility.yul\":3928:3945   */\n      add\n        /* \"#utility.yul\":3921:3968   */\n      mstore\n        /* \"#utility.yul\":3985:4063   */\n      tag_327\n        /* \"#utility.yul\":4058:4062   */\n      dup2\n        /* \"#utility.yul\":4049:4055   */\n      dup11\n        /* \"#utility.yul\":3985:4063   */\n      tag_223\n      jump\t// in\n    tag_327:\n        /* \"#utility.yul\":3977:4063   */\n      swap1\n      pop\n        /* \"#utility.yul\":4073:4145   */\n      tag_328\n        /* \"#utility.yul\":4141:4143   */\n      0x20\n        /* \"#utility.yul\":4130:4139   */\n      dup4\n        /* \"#utility.yul\":4126:4144   */\n      add\n        /* \"#utility.yul\":4117:4123   */\n      dup10\n        /* \"#utility.yul\":4073:4145   */\n      tag_218\n      jump\t// in\n    tag_328:\n        /* \"#utility.yul\":4155:4227   */\n      tag_329\n        /* \"#utility.yul\":4223:4225   */\n      0x40\n        /* \"#utility.yul\":4212:4221   */\n      dup4\n        /* \"#utility.yul\":4208:4226   */\n      add\n        /* \"#utility.yul\":4199:4205   */\n      dup9\n        /* \"#utility.yul\":4155:4227   */\n      tag_218\n      jump\t// in\n    tag_329:\n        /* \"#utility.yul\":4237:4325   */\n      tag_330\n        /* \"#utility.yul\":4321:4323   */\n      0x60\n        /* \"#utility.yul\":4310:4319   */\n      dup4\n        /* \"#utility.yul\":4306:4324   */\n      add\n        /* \"#utility.yul\":4297:4303   */\n      dup8\n        /* \"#utility.yul\":4237:4325   */\n      tag_226\n      jump\t// in\n    tag_330:\n        /* \"#utility.yul\":4335:4408   */\n      tag_331\n        /* \"#utility.yul\":4403:4406   */\n      0x80\n        /* \"#utility.yul\":4392:4401   */\n      dup4\n        /* \"#utility.yul\":4388:4407   */\n      add\n        /* \"#utility.yul\":4379:4385   */\n      dup7\n        /* \"#utility.yul\":4335:4408   */\n      tag_218\n      jump\t// in\n    tag_331:\n        /* \"#utility.yul\":4418:4491   */\n      tag_332\n        /* \"#utility.yul\":4486:4489   */\n      0xa0\n        /* \"#utility.yul\":4475:4484   */\n      dup4\n        /* \"#utility.yul\":4471:4490   */\n      add\n        /* \"#utility.yul\":4462:4468   */\n      dup6\n        /* \"#utility.yul\":4418:4491   */\n      tag_218\n      jump\t// in\n    tag_332:\n        /* \"#utility.yul\":4501:4587   */\n      tag_333\n        /* \"#utility.yul\":4582:4585   */\n      0xc0\n        /* \"#utility.yul\":4571:4580   */\n      dup4\n        /* \"#utility.yul\":4567:4586   */\n      add\n        /* \"#utility.yul\":4558:4564   */\n      dup5\n        /* \"#utility.yul\":4501:4587   */\n      tag_230\n      jump\t// in\n    tag_333:\n        /* \"#utility.yul\":3559:4594   */\n      swap9\n      swap8\n      pop\n      pop\n      pop\n      pop\n      pop\n      pop\n      pop\n      pop\n      jump\t// out\n        /* \"#utility.yul\":4600:4717   */\n    tag_231:\n        /* \"#utility.yul\":4709:4710   */\n      0x00\n        /* \"#utility.yul\":4706:4707   */\n      dup1\n        /* \"#utility.yul\":4699:4711   */\n      revert\n        /* \"#utility.yul\":4723:4840   */\n    tag_232:\n        /* \"#utility.yul\":4832:4833   */\n      0x00\n        /* \"#utility.yul\":4829:4830   */\n      dup1\n        /* \"#utility.yul\":4822:4834   */\n      revert\n        /* \"#utility.yul\":4846:5026   */\n    tag_233:\n        /* \"#utility.yul\":4894:4971   */\n      0x4e487b7100000000000000000000000000000000000000000000000000000000\n        /* \"#utility.yul\":4891:4892   */\n      0x00\n        /* \"#utility.yul\":4884:4972   */\n      mstore\n        /* \"#utility.yul\":4991:4995   */\n      0x41\n        /* \"#utility.yul\":4988:4989   */\n      0x04\n        /* \"#utility.yul\":4981:4996   */\n      mstore\n        /* \"#utility.yul\":5015:5019   */\n      0x24\n        /* \"#utility.yul\":5012:5013   */\n      0x00\n        /* \"#utility.yul\":5005:5020   */\n      revert\n        /* \"#utility.yul\":5032:5313   */\n    tag_234:\n        /* \"#utility.yul\":5115:5142   */\n      tag_338\n        /* \"#utility.yul\":5137:5141   */\n      dup3\n        /* \"#utility.yul\":5115:5142   */\n      tag_222\n      jump\t// in\n    tag_338:\n        /* \"#utility.yul\":5107:5113   */\n      dup2\n        /* \"#utility.yul\":5103:5143   */\n      add\n        /* \"#utility.yul\":5245:5251   */\n      dup2\n        /* \"#utility.yul\":5233:5243   */\n      dup2\n        /* \"#utility.yul\":5230:5252   */\n      lt\n        /* \"#utility.yul\":5209:5227   */\n      0xffffffffffffffff\n        /* \"#utility.yul\":5197:5207   */\n      dup3\n        /* \"#utility.yul\":5194:5228   */\n      gt\n        /* \"#utility.yul\":5191:5253   */\n      or\n        /* \"#utility.yul\":5188:5276   */\n      iszero\n      tag_339\n      jumpi\n        /* \"#utility.yul\":5256:5274   */\n      tag_340\n      tag_233\n      jump\t// in\n    tag_340:\n        /* \"#utility.yul\":5188:5276   */\n    tag_339:\n        /* \"#utility.yul\":5296:5306   */\n      dup1\n        /* \"#utility.yul\":5292:5294   */\n      0x40\n        /* \"#utility.yul\":5285:5307   */\n      mstore\n        /* \"#utility.yul\":5075:5313   */\n      pop\n        /* \"#utility.yul\":5032:5313   */\n      pop\n      pop\n      jump\t// out\n        /* \"#utility.yul\":5319:5448   */\n    tag_235:\n        /* \"#utility.yul\":5353:5359   */\n      0x00\n        /* \"#utility.yul\":5380:5400   */\n      tag_342\n      tag_212\n      jump\t// in\n    tag_342:\n        /* \"#utility.yul\":5370:5400   */\n      swap1\n      pop\n        /* \"#utility.yul\":5409:5442   */\n      tag_343\n        /* \"#utility.yul\":5437:5441   */\n      dup3\n        /* \"#utility.yul\":5429:5435   */\n      dup3\n        /* \"#utility.yul\":5409:5442   */\n      tag_234\n      jump\t// in\n    tag_343:\n        /* \"#utility.yul\":5319:5448   */\n      swap2\n      swap1\n      pop\n      jump\t// out\n        /* \"#utility.yul\":5454:5762   */\n    tag_236:\n        /* \"#utility.yul\":5516:5520   */\n      0x00\n        /* \"#utility.yul\":5606:5624   */\n      0xffffffffffffffff\n        /* \"#utility.yul\":5598:5604   */\n      dup3\n        /* \"#utility.yul\":5595:5625   */\n      gt\n        /* \"#utility.yul\":5592:5648   */\n      iszero\n      tag_345\n      jumpi\n        /* \"#utility.yul\":5628:5646   */\n      tag_346\n      tag_233\n      jump\t// in\n    tag_346:\n        /* \"#utility.yul\":5592:5648   */\n    tag_345:\n        /* \"#utility.yul\":5666:5695   */\n      tag_347\n        /* \"#utility.yul\":5688:5694   */\n      dup3\n        /* \"#utility.yul\":5666:5695   */\n      tag_222\n      jump\t// in\n    tag_347:\n        /* \"#utility.yul\":5658:5695   */\n      swap1\n      pop\n        /* \"#utility.yul\":5750:5754   */\n      0x20\n        /* \"#utility.yul\":5744:5748   */\n      dup2\n        /* \"#utility.yul\":5740:5755   */\n      add\n        /* \"#utility.yul\":5732:5755   */\n      swap1\n      pop\n        /* \"#utility.yul\":5454:5762   */\n      swap2\n      swap1\n      pop\n      jump\t// out\n        /* \"#utility.yul\":5768:5914   */\n    tag_237:\n        /* \"#utility.yul\":5865:5871   */\n      dup3\n        /* \"#utility.yul\":5860:5863   */\n      dup2\n        /* \"#utility.yul\":5855:5858   */\n      dup4\n        /* \"#utility.yul\":5842:5872   */\n      calldatacopy\n        /* \"#utility.yul\":5906:5907   */\n      0x00\n        /* \"#utility.yul\":5897:5903   */\n      dup4\n        /* \"#utility.yul\":5892:5895   */\n      dup4\n        /* \"#utility.yul\":5888:5904   */\n      add\n        /* \"#utility.yul\":5881:5908   */\n      mstore\n        /* \"#utility.yul\":5768:5914   */\n      pop\n      pop\n      pop\n      jump\t// out\n        /* \"#utility.yul\":5920:6345   */\n    tag_238:\n        /* \"#utility.yul\":5998:6003   */\n      0x00\n        /* \"#utility.yul\":6023:6089   */\n      tag_350\n        /* \"#utility.yul\":6039:6088   */\n      tag_351\n        /* \"#utility.yul\":6081:6087   */\n      dup5\n        /* \"#utility.yul\":6039:6088   */\n      tag_236\n      jump\t// in\n    tag_351:\n        /* \"#utility.yul\":6023:6089   */\n      tag_235\n      jump\t// in\n    tag_350:\n        /* \"#utility.yul\":6014:6089   */\n      swap1\n      pop\n        /* \"#utility.yul\":6112:6118   */\n      dup3\n        /* \"#utility.yul\":6105:6110   */\n      dup2\n        /* \"#utility.yul\":6098:6119   */\n      mstore\n        /* \"#utility.yul\":6150:6154   */\n      0x20\n        /* \"#utility.yul\":6143:6148   */\n      dup2\n        /* \"#utility.yul\":6139:6155   */\n      add\n        /* \"#utility.yul\":6188:6191   */\n      dup5\n        /* \"#utility.yul\":6179:6185   */\n      dup5\n        /* \"#utility.yul\":6174:6177   */\n      dup5\n        /* \"#utility.yul\":6170:6186   */\n      add\n        /* \"#utility.yul\":6167:6192   */\n      gt\n        /* \"#utility.yul\":6164:6276   */\n      iszero\n      tag_352\n      jumpi\n        /* \"#utility.yul\":6195:6274   */\n      tag_353\n      tag_232\n      jump\t// in\n    tag_353:\n        /* \"#utility.yul\":6164:6276   */\n    tag_352:\n        /* \"#utility.yul\":6285:6339   */\n      tag_354\n        /* \"#utility.yul\":6332:6338   */\n      dup5\n        /* \"#utility.yul\":6327:6330   */\n      dup3\n        /* \"#utility.yul\":6322:6325   */\n      dup6\n        /* \"#utility.yul\":6285:6339   */\n      tag_237\n      jump\t// in\n    tag_354:\n        /* \"#utility.yul\":6004:6345   */\n      pop\n        /* \"#utility.yul\":5920:6345   */\n      swap4\n      swap3\n      pop\n      pop\n      pop\n      jump\t// out\n        /* \"#utility.yul\":6365:6705   */\n    tag_239:\n        /* \"#utility.yul\":6421:6426   */\n      0x00\n        /* \"#utility.yul\":6470:6473   */\n      dup3\n        /* \"#utility.yul\":6463:6467   */\n      0x1f\n        /* \"#utility.yul\":6455:6461   */\n      dup4\n        /* \"#utility.yul\":6451:6468   */\n      add\n        /* \"#utility.yul\":6447:6474   */\n      slt\n        /* \"#utility.yul\":6437:6559   */\n      tag_356\n      jumpi\n        /* \"#utility.yul\":6478:6557   */\n      tag_357\n      tag_231\n      jump\t// in\n    tag_357:\n        /* \"#utility.yul\":6437:6559   */\n    tag_356:\n        /* \"#utility.yul\":6595:6601   */\n      dup2\n        /* \"#utility.yul\":6582:6602   */\n      calldataload\n        /* \"#utility.yul\":6620:6699   */\n      tag_358\n        /* \"#utility.yul\":6695:6698   */\n      dup5\n        /* \"#utility.yul\":6687:6693   */\n      dup3\n        /* \"#utility.yul\":6680:6684   */\n      0x20\n        /* \"#utility.yul\":6672:6678   */\n      dup7\n        /* \"#utility.yul\":6668:6685   */\n      add\n        /* \"#utility.yul\":6620:6699   */\n      tag_238\n      jump\t// in\n    tag_358:\n        /* \"#utility.yul\":6611:6699   */\n      swap2\n      pop\n        /* \"#utility.yul\":6427:6705   */\n      pop\n        /* \"#utility.yul\":6365:6705   */\n      swap3\n      swap2\n      pop\n      pop\n      jump\t// out\n        /* \"#utility.yul\":6711:7220   */\n    tag_42:\n        /* \"#utility.yul\":6780:6786   */\n      0x00\n        /* \"#utility.yul\":6829:6831   */\n      0x20\n        /* \"#utility.yul\":6817:6826   */\n      dup3\n        /* \"#utility.yul\":6808:6815   */\n      dup5\n        /* \"#utility.yul\":6804:6827   */\n      sub\n        /* \"#utility.yul\":6800:6832   */\n      slt\n        /* \"#utility.yul\":6797:6916   */\n      iszero\n      tag_360\n      jumpi\n        /* \"#utility.yul\":6835:6914   */\n      tag_361\n      tag_213\n      jump\t// in\n    tag_361:\n        /* \"#utility.yul\":6797:6916   */\n    tag_360:\n        /* \"#utility.yul\":6983:6984   */\n      0x00\n        /* \"#utility.yul\":6972:6981   */\n      dup3\n        /* \"#utility.yul\":6968:6985   */\n      add\n        /* \"#utility.yul\":6955:6986   */\n      calldataload\n        /* \"#utility.yul\":7013:7031   */\n      0xffffffffffffffff\n        /* \"#utility.yul\":7005:7011   */\n      dup2\n        /* \"#utility.yul\":7002:7032   */\n      gt\n        /* \"#utility.yul\":6999:7116   */\n      iszero\n      tag_362\n      jumpi\n        /* \"#utility.yul\":7035:7114   */\n      tag_363\n      tag_214\n      jump\t// in\n    tag_363:\n        /* \"#utility.yul\":6999:7116   */\n    tag_362:\n        /* \"#utility.yul\":7140:7203   */\n      tag_364\n        /* \"#utility.yul\":7195:7202   */\n      dup5\n        /* \"#utility.yul\":7186:7192   */\n      dup3\n        /* \"#utility.yul\":7175:7184   */\n      dup6\n        /* \"#utility.yul\":7171:7193   */\n      add\n        /* \"#utility.yul\":7140:7203   */\n      tag_239\n      jump\t// in\n    tag_364:\n        /* \"#utility.yul\":7130:7203   */\n      swap2\n      pop\n        /* \"#utility.yul\":6926:7213   */\n      pop\n        /* \"#utility.yul\":6711:7220   */\n      swap3\n      swap2\n      pop\n      pop\n      jump\t// out\n        /* \"#utility.yul\":7226:7316   */\n    tag_240:\n        /* \"#utility.yul\":7260:7267   */\n      0x00\n        /* \"#utility.yul\":7303:7308   */\n      dup2\n        /* \"#utility.yul\":7296:7309   */\n      iszero\n        /* \"#utility.yul\":7289:7310   */\n      iszero\n        /* \"#utility.yul\":7278:7310   */\n      swap1\n      pop\n        /* \"#utility.yul\":7226:7316   */\n      swap2\n      swap1\n      pop\n      jump\t// out\n        /* \"#utility.yul\":7322:7431   */\n    tag_241:\n        /* \"#utility.yul\":7403:7424   */\n      tag_367\n        /* \"#utility.yul\":7418:7423   */\n      dup2\n        /* \"#utility.yul\":7403:7424   */\n      tag_240\n      jump\t// in\n    tag_367:\n        /* \"#utility.yul\":7398:7401   */\n      dup3\n        /* \"#utility.yul\":7391:7425   */\n      mstore\n        /* \"#utility.yul\":7322:7431   */\n      pop\n      pop\n      jump\t// out\n        /* \"#utility.yul\":7437:7647   */\n    tag_45:\n        /* \"#utility.yul\":7524:7528   */\n      0x00\n        /* \"#utility.yul\":7562:7564   */\n      0x20\n        /* \"#utility.yul\":7551:7560   */\n      dup3\n        /* \"#utility.yul\":7547:7565   */\n      add\n        /* \"#utility.yul\":7539:7565   */\n      swap1\n      pop\n        /* \"#utility.yul\":7575:7640   */\n      tag_369\n        /* \"#utility.yul\":7637:7638   */\n      0x00\n        /* \"#utility.yul\":7626:7635   */\n      dup4\n        /* \"#utility.yul\":7622:7639   */\n      add\n        /* \"#utility.yul\":7613:7619   */\n      dup5\n        /* \"#utility.yul\":7575:7640   */\n      tag_241\n      jump\t// in\n    tag_369:\n        /* \"#utility.yul\":7437:7647   */\n      swap3\n      swap2\n      pop\n      pop\n      jump\t// out\n        /* \"#utility.yul\":7653:8452   */\n    tag_49:\n        /* \"#utility.yul\":7740:7746   */\n      0x00\n        /* \"#utility.yul\":7748:7754   */\n      dup1\n        /* \"#utility.yul\":7756:7762   */\n      0x00\n        /* \"#utility.yul\":7805:7807   */\n      0x60\n        /* \"#utility.yul\":7793:7802   */\n      dup5\n        /* \"#utility.yul\":7784:7791   */\n      dup7\n        /* \"#utility.yul\":7780:7803   */\n      sub\n        /* \"#utility.yul\":7776:7808   */\n      slt\n        /* \"#utility.yul\":7773:7892   */\n      iszero\n      tag_371\n      jumpi\n        /* \"#utility.yul\":7811:7890   */\n      tag_372\n      tag_213\n      jump\t// in\n    tag_372:\n        /* \"#utility.yul\":7773:7892   */\n    tag_371:\n        /* \"#utility.yul\":7959:7960   */\n      0x00\n        /* \"#utility.yul\":7948:7957   */\n      dup5\n        /* \"#utility.yul\":7944:7961   */\n      add\n        /* \"#utility.yul\":7931:7962   */\n      calldataload\n        /* \"#utility.yul\":7989:8007   */\n      0xffffffffffffffff\n        /* \"#utility.yul\":7981:7987   */\n      dup2\n        /* \"#utility.yul\":7978:8008   */\n      gt\n        /* \"#utility.yul\":7975:8092   */\n      iszero\n      tag_373\n      jumpi\n        /* \"#utility.yul\":8011:8090   */\n      tag_374\n      tag_214\n      jump\t// in\n    tag_374:\n        /* \"#utility.yul\":7975:8092   */\n    tag_373:\n        /* \"#utility.yul\":8116:8179   */\n      tag_375\n        /* \"#utility.yul\":8171:8178   */\n      dup7\n        /* \"#utility.yul\":8162:8168   */\n      dup3\n        /* \"#utility.yul\":8151:8160   */\n      dup8\n        /* \"#utility.yul\":8147:8169   */\n      add\n        /* \"#utility.yul\":8116:8179   */\n      tag_239\n      jump\t// in\n    tag_375:\n        /* \"#utility.yul\":8106:8179   */\n      swap4\n      pop\n        /* \"#utility.yul\":7902:8189   */\n      pop\n        /* \"#utility.yul\":8228:8230   */\n      0x20\n        /* \"#utility.yul\":8254:8307   */\n      tag_376\n        /* \"#utility.yul\":8299:8306   */\n      dup7\n        /* \"#utility.yul\":8290:8296   */\n      dup3\n        /* \"#utility.yul\":8279:8288   */\n      dup8\n        /* \"#utility.yul\":8275:8297   */\n      add\n        /* \"#utility.yul\":8254:8307   */\n      tag_217\n      jump\t// in\n    tag_376:\n        /* \"#utility.yul\":8244:8307   */\n      swap3\n      pop\n        /* \"#utility.yul\":8199:8317   */\n      pop\n        /* \"#utility.yul\":8356:8358   */\n      0x40\n        /* \"#utility.yul\":8382:8435   */\n      tag_377\n        /* \"#utility.yul\":8427:8434   */\n      dup7\n        /* \"#utility.yul\":8418:8424   */\n      dup3\n        /* \"#utility.yul\":8407:8416   */\n      dup8\n        /* \"#utility.yul\":8403:8425   */\n      add\n        /* \"#utility.yul\":8382:8435   */\n      tag_217\n      jump\t// in\n    tag_377:\n        /* \"#utility.yul\":8372:8435   */\n      swap2\n      pop\n        /* \"#utility.yul\":8327:8445   */\n      pop\n        /* \"#utility.yul\":7653:8452   */\n      swap3\n      pop\n      swap3\n      pop\n      swap3\n      jump\t// out\n        /* \"#utility.yul\":8458:8554   */\n    tag_242:\n        /* \"#utility.yul\":8495:8502   */\n      0x00\n        /* \"#utility.yul\":8524:8548   */\n      tag_379\n        /* \"#utility.yul\":8542:8547   */\n      dup3\n        /* \"#utility.yul\":8524:8548   */\n      tag_224\n      jump\t// in\n    tag_379:\n        /* \"#utility.yul\":8513:8548   */\n      swap1\n      pop\n        /* \"#utility.yul\":8458:8554   */\n      swap2\n      swap1\n      pop\n      jump\t// out\n        /* \"#utility.yul\":8560:8678   */\n    tag_243:\n        /* \"#utility.yul\":8647:8671   */\n      tag_381\n        /* \"#utility.yul\":8665:8670   */\n      dup2\n        /* \"#utility.yul\":8647:8671   */\n      tag_242\n      jump\t// in\n    tag_381:\n        /* \"#utility.yul\":8642:8645   */\n      dup3\n        /* \"#utility.yul\":8635:8672   */\n      mstore\n        /* \"#utility.yul\":8560:8678   */\n      pop\n      pop\n      jump\t// out\n        /* \"#utility.yul\":8684:9263   */\n    tag_56:\n        /* \"#utility.yul\":8874:8878   */\n      0x00\n        /* \"#utility.yul\":8912:8915   */\n      0x80\n        /* \"#utility.yul\":8901:8910   */\n      dup3\n        /* \"#utility.yul\":8897:8916   */\n      add\n        /* \"#utility.yul\":8889:8916   */\n      swap1\n      pop\n        /* \"#utility.yul\":8926:8997   */\n      tag_383\n        /* \"#utility.yul\":8994:8995   */\n      0x00\n        /* \"#utility.yul\":8983:8992   */\n      dup4\n        /* \"#utility.yul\":8979:8996   */\n      add\n        /* \"#utility.yul\":8970:8976   */\n      dup8\n        /* \"#utility.yul\":8926:8997   */\n      tag_243\n      jump\t// in\n    tag_383:\n        /* \"#utility.yul\":9007:9079   */\n      tag_384\n        /* \"#utility.yul\":9075:9077   */\n      0x20\n        /* \"#utility.yul\":9064:9073   */\n      dup4\n        /* \"#utility.yul\":9060:9078   */\n      add\n        /* \"#utility.yul\":9051:9057   */\n      dup7\n        /* \"#utility.yul\":9007:9079   */\n      tag_218\n      jump\t// in\n    tag_384:\n        /* \"#utility.yul\":9089:9161   */\n      tag_385\n        /* \"#utility.yul\":9157:9159   */\n      0x40\n        /* \"#utility.yul\":9146:9155   */\n      dup4\n        /* \"#utility.yul\":9142:9160   */\n      add\n        /* \"#utility.yul\":9133:9139   */\n      dup6\n        /* \"#utility.yul\":9089:9161   */\n      tag_218\n      jump\t// in\n    tag_385:\n        /* \"#utility.yul\":9171:9256   */\n      tag_386\n        /* \"#utility.yul\":9252:9254   */\n      0x60\n        /* \"#utility.yul\":9241:9250   */\n      dup4\n        /* \"#utility.yul\":9237:9255   */\n      add\n        /* \"#utility.yul\":9228:9234   */\n      dup5\n        /* \"#utility.yul\":9171:9256   */\n      tag_230\n      jump\t// in\n    tag_386:\n        /* \"#utility.yul\":8684:9263   */\n      swap6\n      swap5\n      pop\n      pop\n      pop\n      pop\n      pop\n      jump\t// out\n        /* \"#utility.yul\":9269:9493   */\n    tag_244:\n        /* \"#utility.yul\":9409:9443   */\n      0x4f6e6c7920746865206f776e65722063616e2063726561746520616e20617563\n        /* \"#utility.yul\":9405:9406   */\n      0x00\n        /* \"#utility.yul\":9397:9403   */\n      dup3\n        /* \"#utility.yul\":9393:9407   */\n      add\n        /* \"#utility.yul\":9386:9444   */\n      mstore\n        /* \"#utility.yul\":9478:9485   */\n      0x74696f6e2e000000000000000000000000000000000000000000000000000000\n        /* \"#utility.yul\":9473:9475   */\n      0x20\n        /* \"#utility.yul\":9465:9471   */\n      dup3\n        /* \"#utility.yul\":9461:9476   */\n      add\n        /* \"#utility.yul\":9454:9486   */\n      mstore\n        /* \"#utility.yul\":9269:9493   */\n      pop\n      jump\t// out\n        /* \"#utility.yul\":9499:9865   */\n    tag_245:\n        /* \"#utility.yul\":9641:9644   */\n      0x00\n        /* \"#utility.yul\":9662:9729   */\n      tag_389\n        /* \"#utility.yul\":9726:9728   */\n      0x25\n        /* \"#utility.yul\":9721:9724   */\n      dup4\n        /* \"#utility.yul\":9662:9729   */\n      tag_220\n      jump\t// in\n    tag_389:\n        /* \"#utility.yul\":9655:9729   */\n      swap2\n      pop\n        /* \"#utility.yul\":9738:9831   */\n      tag_390\n        /* \"#utility.yul\":9827:9830   */\n      dup3\n        /* \"#utility.yul\":9738:9831   */\n      tag_244\n      jump\t// in\n    tag_390:\n        /* \"#utility.yul\":9856:9858   */\n      0x40\n        /* \"#utility.yul\":9851:9854   */\n      dup3\n        /* \"#utility.yul\":9847:9859   */\n      add\n        /* \"#utility.yul\":9840:9859   */\n      swap1\n      pop\n        /* \"#utility.yul\":9499:9865   */\n      swap2\n      swap1\n      pop\n      jump\t// out\n        /* \"#utility.yul\":9871:10290   */\n    tag_60:\n        /* \"#utility.yul\":10037:10041   */\n      0x00\n        /* \"#utility.yul\":10075:10077   */\n      0x20\n        /* \"#utility.yul\":10064:10073   */\n      dup3\n        /* \"#utility.yul\":10060:10078   */\n      add\n        /* \"#utility.yul\":10052:10078   */\n      swap1\n      pop\n        /* \"#utility.yul\":10124:10133   */\n      dup2\n        /* \"#utility.yul\":10118:10122   */\n      dup2\n        /* \"#utility.yul\":10114:10134   */\n      sub\n        /* \"#utility.yul\":10110:10111   */\n      0x00\n        /* \"#utility.yul\":10099:10108   */\n      dup4\n        /* \"#utility.yul\":10095:10112   */\n      add\n        /* \"#utility.yul\":10088:10135   */\n      mstore\n        /* \"#utility.yul\":10152:10283   */\n      tag_392\n        /* \"#utility.yul\":10278:10282   */\n      dup2\n        /* \"#utility.yul\":10152:10283   */\n      tag_245\n      jump\t// in\n    tag_392:\n        /* \"#utility.yul\":10144:10283   */\n      swap1\n      pop\n        /* \"#utility.yul\":9871:10290   */\n      swap2\n      swap1\n      pop\n      jump\t// out\n        /* \"#utility.yul\":10296:10526   */\n    tag_246:\n        /* \"#utility.yul\":10436:10470   */\n      0x5468697320494420646f6573206e6f74206d6174636820616e79206372656174\n        /* \"#utility.yul\":10432:10433   */\n      0x00\n        /* \"#utility.yul\":10424:10430   */\n      dup3\n        /* \"#utility.yul\":10420:10434   */\n      add\n        /* \"#utility.yul\":10413:10471   */\n      mstore\n        /* \"#utility.yul\":10505:10518   */\n      0x65642061756374696f6e2e000000000000000000000000000000000000000000\n        /* \"#utility.yul\":10500:10502   */\n      0x20\n        /* \"#utility.yul\":10492:10498   */\n      dup3\n        /* \"#utility.yul\":10488:10503   */\n      add\n        /* \"#utility.yul\":10481:10519   */\n      mstore\n        /* \"#utility.yul\":10296:10526   */\n      pop\n      jump\t// out\n        /* \"#utility.yul\":10532:10898   */\n    tag_247:\n        /* \"#utility.yul\":10674:10677   */\n      0x00\n        /* \"#utility.yul\":10695:10762   */\n      tag_395\n        /* \"#utility.yul\":10759:10761   */\n      0x2b\n        /* \"#utility.yul\":10754:10757   */\n      dup4\n        /* \"#utility.yul\":10695:10762   */\n      tag_220\n      jump\t// in\n    tag_395:\n        /* \"#utility.yul\":10688:10762   */\n      swap2\n      pop\n        /* \"#utility.yul\":10771:10864   */\n      tag_396\n        /* \"#utility.yul\":10860:10863   */\n      dup3\n        /* \"#utility.yul\":10771:10864   */\n      tag_246\n      jump\t// in\n    tag_396:\n        /* \"#utility.yul\":10889:10891   */\n      0x40\n        /* \"#utility.yul\":10884:10887   */\n      dup3\n        /* \"#utility.yul\":10880:10892   */\n      add\n        /* \"#utility.yul\":10873:10892   */\n      swap1\n      pop\n        /* \"#utility.yul\":10532:10898   */\n      swap2\n      swap1\n      pop\n      jump\t// out\n        /* \"#utility.yul\":10904:11323   */\n    tag_70:\n        /* \"#utility.yul\":11070:11074   */\n      0x00\n        /* \"#utility.yul\":11108:11110   */\n      0x20\n        /* \"#utility.yul\":11097:11106   */\n      dup3\n        /* \"#utility.yul\":11093:11111   */\n      add\n        /* \"#utility.yul\":11085:11111   */\n      swap1\n      pop\n        /* \"#utility.yul\":11157:11166   */\n      dup2\n        /* \"#utility.yul\":11151:11155   */\n      dup2\n        /* \"#utility.yul\":11147:11167   */\n      sub\n        /* \"#utility.yul\":11143:11144   */\n      0x00\n        /* \"#utility.yul\":11132:11141   */\n      dup4\n        /* \"#utility.yul\":11128:11145   */\n      add\n        /* \"#utility.yul\":11121:11168   */\n      mstore\n        /* \"#utility.yul\":11185:11316   */\n      tag_398\n        /* \"#utility.yul\":11311:11315   */\n      dup2\n        /* \"#utility.yul\":11185:11316   */\n      tag_247\n      jump\t// in\n    tag_398:\n        /* \"#utility.yul\":11177:11316   */\n      swap1\n      pop\n        /* \"#utility.yul\":10904:11323   */\n      swap2\n      swap1\n      pop\n      jump\t// out\n        /* \"#utility.yul\":11329:11509   */\n    tag_74:\n        /* \"#utility.yul\":11377:11454   */\n      0x4e487b7100000000000000000000000000000000000000000000000000000000\n        /* \"#utility.yul\":11374:11375   */\n      0x00\n        /* \"#utility.yul\":11367:11455   */\n      mstore\n        /* \"#utility.yul\":11474:11478   */\n      0x32\n        /* \"#utility.yul\":11471:11472   */\n      0x04\n        /* \"#utility.yul\":11464:11479   */\n      mstore\n        /* \"#utility.yul\":11498:11502   */\n      0x24\n        /* \"#utility.yul\":11495:11496   */\n      0x00\n        /* \"#utility.yul\":11488:11503   */\n      revert\n        /* \"#utility.yul\":11515:11696   */\n    tag_248:\n        /* \"#utility.yul\":11655:11688   */\n      0x546869732061756374696f6e206973206e6f7420636c6f736564207965742e00\n        /* \"#utility.yul\":11651:11652   */\n      0x00\n        /* \"#utility.yul\":11643:11649   */\n      dup3\n        /* \"#utility.yul\":11639:11653   */\n      add\n        /* \"#utility.yul\":11632:11689   */\n      mstore\n        /* \"#utility.yul\":11515:11696   */\n      pop\n      jump\t// out\n        /* \"#utility.yul\":11702:12068   */\n    tag_249:\n        /* \"#utility.yul\":11844:11847   */\n      0x00\n        /* \"#utility.yul\":11865:11932   */\n      tag_402\n        /* \"#utility.yul\":11929:11931   */\n      0x1f\n        /* \"#utility.yul\":11924:11927   */\n      dup4\n        /* \"#utility.yul\":11865:11932   */\n      tag_220\n      jump\t// in\n    tag_402:\n        /* \"#utility.yul\":11858:11932   */\n      swap2\n      pop\n        /* \"#utility.yul\":11941:12034   */\n      tag_403\n        /* \"#utility.yul\":12030:12033   */\n      dup3\n        /* \"#utility.yul\":11941:12034   */\n      tag_248\n      jump\t// in\n    tag_403:\n        /* \"#utility.yul\":12059:12061   */\n      0x20\n        /* \"#utility.yul\":12054:12057   */\n      dup3\n        /* \"#utility.yul\":12050:12062   */\n      add\n        /* \"#utility.yul\":12043:12062   */\n      swap1\n      pop\n        /* \"#utility.yul\":11702:12068   */\n      swap2\n      swap1\n      pop\n      jump\t// out\n        /* \"#utility.yul\":12074:12493   */\n    tag_83:\n        /* \"#utility.yul\":12240:12244   */\n      0x00\n        /* \"#utility.yul\":12278:12280   */\n      0x20\n        /* \"#utility.yul\":12267:12276   */\n      dup3\n        /* \"#utility.yul\":12263:12281   */\n      add\n        /* \"#utility.yul\":12255:12281   */\n      swap1\n      pop\n        /* \"#utility.yul\":12327:12336   */\n      dup2\n        /* \"#utility.yul\":12321:12325   */\n      dup2\n        /* \"#utility.yul\":12317:12337   */\n      sub\n        /* \"#utility.yul\":12313:12314   */\n      0x00\n        /* \"#utility.yul\":12302:12311   */\n      dup4\n        /* \"#utility.yul\":12298:12315   */\n      add\n        /* \"#utility.yul\":12291:12338   */\n      mstore\n        /* \"#utility.yul\":12355:12486   */\n      tag_405\n        /* \"#utility.yul\":12481:12485   */\n      dup2\n        /* \"#utility.yul\":12355:12486   */\n      tag_249\n      jump\t// in\n    tag_405:\n        /* \"#utility.yul\":12347:12486   */\n      swap1\n      pop\n        /* \"#utility.yul\":12074:12493   */\n      swap2\n      swap1\n      pop\n      jump\t// out\n        /* \"#utility.yul\":12499:12732   */\n    tag_250:\n        /* \"#utility.yul\":12639:12673   */\n      0x546869732061756374696f6e2069732070617965642c2063616e277420626520\n        /* \"#utility.yul\":12635:12636   */\n      0x00\n        /* \"#utility.yul\":12627:12633   */\n      dup3\n        /* \"#utility.yul\":12623:12637   */\n      add\n        /* \"#utility.yul\":12616:12674   */\n      mstore\n        /* \"#utility.yul\":12708:12724   */\n      0x647261776e20616e796d6f72652e000000000000000000000000000000000000\n        /* \"#utility.yul\":12703:12705   */\n      0x20\n        /* \"#utility.yul\":12695:12701   */\n      dup3\n        /* \"#utility.yul\":12691:12706   */\n      add\n        /* \"#utility.yul\":12684:12725   */\n      mstore\n        /* \"#utility.yul\":12499:12732   */\n      pop\n      jump\t// out\n        /* \"#utility.yul\":12738:13104   */\n    tag_251:\n        /* \"#utility.yul\":12880:12883   */\n      0x00\n        /* \"#utility.yul\":12901:12968   */\n      tag_408\n        /* \"#utility.yul\":12965:12967   */\n      0x2e\n        /* \"#utility.yul\":12960:12963   */\n      dup4\n        /* \"#utility.yul\":12901:12968   */\n      tag_220\n      jump\t// in\n    tag_408:\n        /* \"#utility.yul\":12894:12968   */\n      swap2\n      pop\n        /* \"#utility.yul\":12977:13070   */\n      tag_409\n        /* \"#utility.yul\":13066:13069   */\n      dup3\n        /* \"#utility.yul\":12977:13070   */\n      tag_250\n      jump\t// in\n    tag_409:\n        /* \"#utility.yul\":13095:13097   */\n      0x40\n        /* \"#utility.yul\":13090:13093   */\n      dup3\n        /* \"#utility.yul\":13086:13098   */\n      add\n        /* \"#utility.yul\":13079:13098   */\n      swap1\n      pop\n        /* \"#utility.yul\":12738:13104   */\n      swap2\n      swap1\n      pop\n      jump\t// out\n        /* \"#utility.yul\":13110:13529   */\n    tag_90:\n        /* \"#utility.yul\":13276:13280   */\n      0x00\n        /* \"#utility.yul\":13314:13316   */\n      0x20\n        /* \"#utility.yul\":13303:13312   */\n      dup3\n        /* \"#utility.yul\":13299:13317   */\n      add\n        /* \"#utility.yul\":13291:13317   */\n      swap1\n      pop\n        /* \"#utility.yul\":13363:13372   */\n      dup2\n        /* \"#utility.yul\":13357:13361   */\n      dup2\n        /* \"#utility.yul\":13353:13373   */\n      sub\n        /* \"#utility.yul\":13349:13350   */\n      0x00\n        /* \"#utility.yul\":13338:13347   */\n      dup4\n        /* \"#utility.yul\":13334:13351   */\n      add\n        /* \"#utility.yul\":13327:13374   */\n      mstore\n        /* \"#utility.yul\":13391:13522   */\n      tag_411\n        /* \"#utility.yul\":13517:13521   */\n      dup2\n        /* \"#utility.yul\":13391:13522   */\n      tag_251\n      jump\t// in\n    tag_411:\n        /* \"#utility.yul\":13383:13522   */\n      swap1\n      pop\n        /* \"#utility.yul\":13110:13529   */\n      swap2\n      swap1\n      pop\n      jump\t// out\n        /* \"#utility.yul\":13535:13977   */\n    tag_96:\n        /* \"#utility.yul\":13684:13688   */\n      0x00\n        /* \"#utility.yul\":13722:13724   */\n      0x60\n        /* \"#utility.yul\":13711:13720   */\n      dup3\n        /* \"#utility.yul\":13707:13725   */\n      add\n        /* \"#utility.yul\":13699:13725   */\n      swap1\n      pop\n        /* \"#utility.yul\":13735:13806   */\n      tag_413\n        /* \"#utility.yul\":13803:13804   */\n      0x00\n        /* \"#utility.yul\":13792:13801   */\n      dup4\n        /* \"#utility.yul\":13788:13805   */\n      add\n        /* \"#utility.yul\":13779:13785   */\n      dup7\n        /* \"#utility.yul\":13735:13806   */\n      tag_218\n      jump\t// in\n    tag_413:\n        /* \"#utility.yul\":13816:13888   */\n      tag_414\n        /* \"#utility.yul\":13884:13886   */\n      0x20\n        /* \"#utility.yul\":13873:13882   */\n      dup4\n        /* \"#utility.yul\":13869:13887   */\n      add\n        /* \"#utility.yul\":13860:13866   */\n      dup6\n        /* \"#utility.yul\":13816:13888   */\n      tag_218\n      jump\t// in\n    tag_414:\n        /* \"#utility.yul\":13898:13970   */\n      tag_415\n        /* \"#utility.yul\":13966:13968   */\n      0x40\n        /* \"#utility.yul\":13955:13964   */\n      dup4\n        /* \"#utility.yul\":13951:13969   */\n      add\n        /* \"#utility.yul\":13942:13948   */\n      dup5\n        /* \"#utility.yul\":13898:13970   */\n      tag_243\n      jump\t// in\n    tag_415:\n        /* \"#utility.yul\":13535:13977   */\n      swap5\n      swap4\n      pop\n      pop\n      pop\n      pop\n      jump\t// out\n        /* \"#utility.yul\":13983:14163   */\n    tag_252:\n        /* \"#utility.yul\":14031:14108   */\n      0x4e487b7100000000000000000000000000000000000000000000000000000000\n        /* \"#utility.yul\":14028:14029   */\n      0x00\n        /* \"#utility.yul\":14021:14109   */\n      mstore\n        /* \"#utility.yul\":14128:14132   */\n      0x22\n        /* \"#utility.yul\":14125:14126   */\n      0x04\n        /* \"#utility.yul\":14118:14133   */\n      mstore\n        /* \"#utility.yul\":14152:14156   */\n      0x24\n        /* \"#utility.yul\":14149:14150   */\n      0x00\n        /* \"#utility.yul\":14142:14157   */\n      revert\n        /* \"#utility.yul\":14169:14489   */\n    tag_101:\n        /* \"#utility.yul\":14213:14219   */\n      0x00\n        /* \"#utility.yul\":14250:14251   */\n      0x02\n        /* \"#utility.yul\":14244:14248   */\n      dup3\n        /* \"#utility.yul\":14240:14252   */\n      div\n        /* \"#utility.yul\":14230:14252   */\n      swap1\n      pop\n        /* \"#utility.yul\":14297:14298   */\n      0x01\n        /* \"#utility.yul\":14291:14295   */\n      dup3\n        /* \"#utility.yul\":14287:14299   */\n      and\n        /* \"#utility.yul\":14318:14336   */\n      dup1\n        /* \"#utility.yul\":14308:14389   */\n      tag_418\n      jumpi\n        /* \"#utility.yul\":14374:14378   */\n      0x7f\n        /* \"#utility.yul\":14366:14372   */\n      dup3\n        /* \"#utility.yul\":14362:14379   */\n      and\n        /* \"#utility.yul\":14352:14379   */\n      swap2\n      pop\n        /* \"#utility.yul\":14308:14389   */\n    tag_418:\n        /* \"#utility.yul\":14436:14438   */\n      0x20\n        /* \"#utility.yul\":14428:14434   */\n      dup3\n        /* \"#utility.yul\":14425:14439   */\n      lt\n        /* \"#utility.yul\":14405:14423   */\n      dup2\n        /* \"#utility.yul\":14402:14440   */\n      sub\n        /* \"#utility.yul\":14399:14483   */\n      tag_419\n      jumpi\n        /* \"#utility.yul\":14455:14473   */\n      tag_420\n      tag_252\n      jump\t// in\n    tag_420:\n        /* \"#utility.yul\":14399:14483   */\n    tag_419:\n        /* \"#utility.yul\":14220:14489   */\n      pop\n        /* \"#utility.yul\":14169:14489   */\n      swap2\n      swap1\n      pop\n      jump\t// out\n        /* \"#utility.yul\":14495:14661   */\n    tag_253:\n        /* \"#utility.yul\":14635:14653   */\n      0x4f776e65722063616e6e6f742062696400000000000000000000000000000000\n        /* \"#utility.yul\":14631:14632   */\n      0x00\n        /* \"#utility.yul\":14623:14629   */\n      dup3\n        /* \"#utility.yul\":14619:14633   */\n      add\n        /* \"#utility.yul\":14612:14654   */\n      mstore\n        /* \"#utility.yul\":14495:14661   */\n      pop\n      jump\t// out\n        /* \"#utility.yul\":14667:15033   */\n    tag_254:\n        /* \"#utility.yul\":14809:14812   */\n      0x00\n        /* \"#utility.yul\":14830:14897   */\n      tag_423\n        /* \"#utility.yul\":14894:14896   */\n      0x10\n        /* \"#utility.yul\":14889:14892   */\n      dup4\n        /* \"#utility.yul\":14830:14897   */\n      tag_220\n      jump\t// in\n    tag_423:\n        /* \"#utility.yul\":14823:14897   */\n      swap2\n      pop\n        /* \"#utility.yul\":14906:14999   */\n      tag_424\n        /* \"#utility.yul\":14995:14998   */\n      dup3\n        /* \"#utility.yul\":14906:14999   */\n      tag_253\n      jump\t// in\n    tag_424:\n        /* \"#utility.yul\":15024:15026   */\n      0x20\n        /* \"#utility.yul\":15019:15022   */\n      dup3\n        /* \"#utility.yul\":15015:15027   */\n      add\n        /* \"#utility.yul\":15008:15027   */\n      swap1\n      pop\n        /* \"#utility.yul\":14667:15033   */\n      swap2\n      swap1\n      pop\n      jump\t// out\n        /* \"#utility.yul\":15039:15458   */\n    tag_116:\n        /* \"#utility.yul\":15205:15209   */\n      0x00\n        /* \"#utility.yul\":15243:15245   */\n      0x20\n        /* \"#utility.yul\":15232:15241   */\n      dup3\n        /* \"#utility.yul\":15228:15246   */\n      add\n        /* \"#utility.yul\":15220:15246   */\n      swap1\n      pop\n        /* \"#utility.yul\":15292:15301   */\n      dup2\n        /* \"#utility.yul\":15286:15290   */\n      dup2\n        /* \"#utility.yul\":15282:15302   */\n      sub\n        /* \"#utility.yul\":15278:15279   */\n      0x00\n        /* \"#utility.yul\":15267:15276   */\n      dup4\n        /* \"#utility.yul\":15263:15280   */\n      add\n        /* \"#utility.yul\":15256:15303   */\n      mstore\n        /* \"#utility.yul\":15320:15451   */\n      tag_426\n        /* \"#utility.yul\":15446:15450   */\n      dup2\n        /* \"#utility.yul\":15320:15451   */\n      tag_254\n      jump\t// in\n    tag_426:\n        /* \"#utility.yul\":15312:15451   */\n      swap1\n      pop\n        /* \"#utility.yul\":15039:15458   */\n      swap2\n      swap1\n      pop\n      jump\t// out\n        /* \"#utility.yul\":15464:15636   */\n    tag_255:\n        /* \"#utility.yul\":15604:15628   */\n      0x546869732061756374696f6e20697320636c6f73656400000000000000000000\n        /* \"#utility.yul\":15600:15601   */\n      0x00\n        /* \"#utility.yul\":15592:15598   */\n      dup3\n        /* \"#utility.yul\":15588:15602   */\n      add\n        /* \"#utility.yul\":15581:15629   */\n      mstore\n        /* \"#utility.yul\":15464:15636   */\n      pop\n      jump\t// out\n        /* \"#utility.yul\":15642:16008   */\n    tag_256:\n        /* \"#utility.yul\":15784:15787   */\n      0x00\n        /* \"#utility.yul\":15805:15872   */\n      tag_429\n        /* \"#utility.yul\":15869:15871   */\n      0x16\n        /* \"#utility.yul\":15864:15867   */\n      dup4\n        /* \"#utility.yul\":15805:15872   */\n      tag_220\n      jump\t// in\n    tag_429:\n        /* \"#utility.yul\":15798:15872   */\n      swap2\n      pop\n        /* \"#utility.yul\":15881:15974   */\n      tag_430\n        /* \"#utility.yul\":15970:15973   */\n      dup3\n        /* \"#utility.yul\":15881:15974   */\n      tag_255\n      jump\t// in\n    tag_430:\n        /* \"#utility.yul\":15999:16001   */\n      0x20\n        /* \"#utility.yul\":15994:15997   */\n      dup3\n        /* \"#utility.yul\":15990:16002   */\n      add\n        /* \"#utility.yul\":15983:16002   */\n      swap1\n      pop\n        /* \"#utility.yul\":15642:16008   */\n      swap2\n      swap1\n      pop\n      jump\t// out\n        /* \"#utility.yul\":16014:16433   */\n    tag_134:\n        /* \"#utility.yul\":16180:16184   */\n      0x00\n        /* \"#utility.yul\":16218:16220   */\n      0x20\n        /* \"#utility.yul\":16207:16216   */\n      dup3\n        /* \"#utility.yul\":16203:16221   */\n      add\n        /* \"#utility.yul\":16195:16221   */\n      swap1\n      pop\n        /* \"#utility.yul\":16267:16276   */\n      dup2\n        /* \"#utility.yul\":16261:16265   */\n      dup2\n        /* \"#utility.yul\":16257:16277   */\n      sub\n        /* \"#utility.yul\":16253:16254   */\n      0x00\n        /* \"#utility.yul\":16242:16251   */\n      dup4\n        /* \"#utility.yul\":16238:16255   */\n      add\n        /* \"#utility.yul\":16231:16278   */\n      mstore\n        /* \"#utility.yul\":16295:16426   */\n      tag_432\n        /* \"#utility.yul\":16421:16425   */\n      dup2\n        /* \"#utility.yul\":16295:16426   */\n      tag_256\n      jump\t// in\n    tag_432:\n        /* \"#utility.yul\":16287:16426   */\n      swap1\n      pop\n        /* \"#utility.yul\":16014:16433   */\n      swap2\n      swap1\n      pop\n      jump\t// out\n        /* \"#utility.yul\":16439:16665   */\n    tag_257:\n        /* \"#utility.yul\":16579:16613   */\n      0x4f66666572206d75737420626520686967686572207468616e2063757272656e\n        /* \"#utility.yul\":16575:16576   */\n      0x00\n        /* \"#utility.yul\":16567:16573   */\n      dup3\n        /* \"#utility.yul\":16563:16577   */\n      add\n        /* \"#utility.yul\":16556:16614   */\n      mstore\n        /* \"#utility.yul\":16648:16657   */\n      0x7420707269636500000000000000000000000000000000000000000000000000\n        /* \"#utility.yul\":16643:16645   */\n      0x20\n        /* \"#utility.yul\":16635:16641   */\n      dup3\n        /* \"#utility.yul\":16631:16646   */\n      add\n        /* \"#utility.yul\":16624:16658   */\n      mstore\n        /* \"#utility.yul\":16439:16665   */\n      pop\n      jump\t// out\n        /* \"#utility.yul\":16671:17037   */\n    tag_258:\n        /* \"#utility.yul\":16813:16816   */\n      0x00\n        /* \"#utility.yul\":16834:16901   */\n      tag_435\n        /* \"#utility.yul\":16898:16900   */\n      0x27\n        /* \"#utility.yul\":16893:16896   */\n      dup4\n        /* \"#utility.yul\":16834:16901   */\n      tag_220\n      jump\t// in\n    tag_435:\n        /* \"#utility.yul\":16827:16901   */\n      swap2\n      pop\n        /* \"#utility.yul\":16910:17003   */\n      tag_436\n        /* \"#utility.yul\":16999:17002   */\n      dup3\n        /* \"#utility.yul\":16910:17003   */\n      tag_257\n      jump\t// in\n    tag_436:\n        /* \"#utility.yul\":17028:17030   */\n      0x40\n        /* \"#utility.yul\":17023:17026   */\n      dup3\n        /* \"#utility.yul\":17019:17031   */\n      add\n        /* \"#utility.yul\":17012:17031   */\n      swap1\n      pop\n        /* \"#utility.yul\":16671:17037   */\n      swap2\n      swap1\n      pop\n      jump\t// out\n        /* \"#utility.yul\":17043:17462   */\n    tag_141:\n        /* \"#utility.yul\":17209:17213   */\n      0x00\n        /* \"#utility.yul\":17247:17249   */\n      0x20\n        /* \"#utility.yul\":17236:17245   */\n      dup3\n        /* \"#utility.yul\":17232:17250   */\n      add\n        /* \"#utility.yul\":17224:17250   */\n      swap1\n      pop\n        /* \"#utility.yul\":17296:17305   */\n      dup2\n        /* \"#utility.yul\":17290:17294   */\n      dup2\n        /* \"#utility.yul\":17286:17306   */\n      sub\n        /* \"#utility.yul\":17282:17283   */\n      0x00\n        /* \"#utility.yul\":17271:17280   */\n      dup4\n        /* \"#utility.yul\":17267:17284   */\n      add\n        /* \"#utility.yul\":17260:17307   */\n      mstore\n        /* \"#utility.yul\":17324:17455   */\n      tag_438\n        /* \"#utility.yul\":17450:17454   */\n      dup2\n        /* \"#utility.yul\":17324:17455   */\n      tag_258\n      jump\t// in\n    tag_438:\n        /* \"#utility.yul\":17316:17455   */\n      swap1\n      pop\n        /* \"#utility.yul\":17043:17462   */\n      swap2\n      swap1\n      pop\n      jump\t// out\n        /* \"#utility.yul\":17468:17694   */\n    tag_259:\n        /* \"#utility.yul\":17608:17642   */\n      0x4f66666572206d75737420626520686967686572207468616e20696e69746961\n        /* \"#utility.yul\":17604:17605   */\n      0x00\n        /* \"#utility.yul\":17596:17602   */\n      dup3\n        /* \"#utility.yul\":17592:17606   */\n      add\n        /* \"#utility.yul\":17585:17643   */\n      mstore\n        /* \"#utility.yul\":17677:17686   */\n      0x6c20707269636500000000000000000000000000000000000000000000000000\n        /* \"#utility.yul\":17672:17674   */\n      0x20\n        /* \"#utility.yul\":17664:17670   */\n      dup3\n        /* \"#utility.yul\":17660:17675   */\n      add\n        /* \"#utility.yul\":17653:17687   */\n      mstore\n        /* \"#utility.yul\":17468:17694   */\n      pop\n      jump\t// out\n        /* \"#utility.yul\":17700:18066   */\n    tag_260:\n        /* \"#utility.yul\":17842:17845   */\n      0x00\n        /* \"#utility.yul\":17863:17930   */\n      tag_441\n        /* \"#utility.yul\":17927:17929   */\n      0x27\n        /* \"#utility.yul\":17922:17925   */\n      dup4\n        /* \"#utility.yul\":17863:17930   */\n      tag_220\n      jump\t// in\n    tag_441:\n        /* \"#utility.yul\":17856:17930   */\n      swap2\n      pop\n        /* \"#utility.yul\":17939:18032   */\n      tag_442\n        /* \"#utility.yul\":18028:18031   */\n      dup3\n        /* \"#utility.yul\":17939:18032   */\n      tag_259\n      jump\t// in\n    tag_442:\n        /* \"#utility.yul\":18057:18059   */\n      0x40\n        /* \"#utility.yul\":18052:18055   */\n      dup3\n        /* \"#utility.yul\":18048:18060   */\n      add\n        /* \"#utility.yul\":18041:18060   */\n      swap1\n      pop\n        /* \"#utility.yul\":17700:18066   */\n      swap2\n      swap1\n      pop\n      jump\t// out\n        /* \"#utility.yul\":18072:18491   */\n    tag_144:\n        /* \"#utility.yul\":18238:18242   */\n      0x00\n        /* \"#utility.yul\":18276:18278   */\n      0x20\n        /* \"#utility.yul\":18265:18274   */\n      dup3\n        /* \"#utility.yul\":18261:18279   */\n      add\n        /* \"#utility.yul\":18253:18279   */\n      swap1\n      pop\n        /* \"#utility.yul\":18325:18334   */\n      dup2\n        /* \"#utility.yul\":18319:18323   */\n      dup2\n        /* \"#utility.yul\":18315:18335   */\n      sub\n        /* \"#utility.yul\":18311:18312   */\n      0x00\n        /* \"#utility.yul\":18300:18309   */\n      dup4\n        /* \"#utility.yul\":18296:18313   */\n      add\n        /* \"#utility.yul\":18289:18336   */\n      mstore\n        /* \"#utility.yul\":18353:18484   */\n      tag_444\n        /* \"#utility.yul\":18479:18483   */\n      dup2\n        /* \"#utility.yul\":18353:18484   */\n      tag_260\n      jump\t// in\n    tag_444:\n        /* \"#utility.yul\":18345:18484   */\n      swap1\n      pop\n        /* \"#utility.yul\":18072:18491   */\n      swap2\n      swap1\n      pop\n      jump\t// out\n        /* \"#utility.yul\":18497:18677   */\n    tag_261:\n        /* \"#utility.yul\":18545:18622   */\n      0x4e487b7100000000000000000000000000000000000000000000000000000000\n        /* \"#utility.yul\":18542:18543   */\n      0x00\n        /* \"#utility.yul\":18535:18623   */\n      mstore\n        /* \"#utility.yul\":18642:18646   */\n      0x11\n        /* \"#utility.yul\":18639:18640   */\n      0x04\n        /* \"#utility.yul\":18632:18647   */\n      mstore\n        /* \"#utility.yul\":18666:18670   */\n      0x24\n        /* \"#utility.yul\":18663:18664   */\n      0x00\n        /* \"#utility.yul\":18656:18671   */\n      revert\n        /* \"#utility.yul\":18683:18874   */\n    tag_153:\n        /* \"#utility.yul\":18723:18726   */\n      0x00\n        /* \"#utility.yul\":18742:18762   */\n      tag_447\n        /* \"#utility.yul\":18760:18761   */\n      dup3\n        /* \"#utility.yul\":18742:18762   */\n      tag_215\n      jump\t// in\n    tag_447:\n        /* \"#utility.yul\":18737:18762   */\n      swap2\n      pop\n        /* \"#utility.yul\":18776:18796   */\n      tag_448\n        /* \"#utility.yul\":18794:18795   */\n      dup4\n        /* \"#utility.yul\":18776:18796   */\n      tag_215\n      jump\t// in\n    tag_448:\n        /* \"#utility.yul\":18771:18796   */\n      swap3\n      pop\n        /* \"#utility.yul\":18819:18820   */\n      dup3\n        /* \"#utility.yul\":18816:18817   */\n      dup3\n        /* \"#utility.yul\":18812:18821   */\n      add\n        /* \"#utility.yul\":18805:18821   */\n      swap1\n      pop\n        /* \"#utility.yul\":18840:18843   */\n      dup1\n        /* \"#utility.yul\":18837:18838   */\n      dup3\n        /* \"#utility.yul\":18834:18844   */\n      gt\n        /* \"#utility.yul\":18831:18867   */\n      iszero\n      tag_449\n      jumpi\n        /* \"#utility.yul\":18847:18865   */\n      tag_450\n      tag_261\n      jump\t// in\n    tag_450:\n        /* \"#utility.yul\":18831:18867   */\n    tag_449:\n        /* \"#utility.yul\":18683:18874   */\n      swap3\n      swap2\n      pop\n      pop\n      jump\t// out\n        /* \"#utility.yul\":18880:19028   */\n    tag_262:\n        /* \"#utility.yul\":18982:18993   */\n      0x00\n        /* \"#utility.yul\":19019:19022   */\n      dup2\n        /* \"#utility.yul\":19004:19022   */\n      swap1\n      pop\n        /* \"#utility.yul\":18880:19028   */\n      swap3\n      swap2\n      pop\n      pop\n      jump\t// out\n        /* \"#utility.yul\":19034:19424   */\n    tag_263:\n        /* \"#utility.yul\":19140:19143   */\n      0x00\n        /* \"#utility.yul\":19168:19207   */\n      tag_453\n        /* \"#utility.yul\":19201:19206   */\n      dup3\n        /* \"#utility.yul\":19168:19207   */\n      tag_219\n      jump\t// in\n    tag_453:\n        /* \"#utility.yul\":19223:19312   */\n      tag_454\n        /* \"#utility.yul\":19305:19311   */\n      dup2\n        /* \"#utility.yul\":19300:19303   */\n      dup6\n        /* \"#utility.yul\":19223:19312   */\n      tag_262\n      jump\t// in\n    tag_454:\n        /* \"#utility.yul\":19216:19312   */\n      swap4\n      pop\n        /* \"#utility.yul\":19321:19386   */\n      tag_455\n        /* \"#utility.yul\":19379:19385   */\n      dup2\n        /* \"#utility.yul\":19374:19377   */\n      dup6\n        /* \"#utility.yul\":19367:19371   */\n      0x20\n        /* \"#utility.yul\":19360:19365   */\n      dup7\n        /* \"#utility.yul\":19356:19372   */\n      add\n        /* \"#utility.yul\":19321:19386   */\n      tag_221\n      jump\t// in\n    tag_455:\n        /* \"#utility.yul\":19411:19417   */\n      dup1\n        /* \"#utility.yul\":19406:19409   */\n      dup5\n        /* \"#utility.yul\":19402:19418   */\n      add\n        /* \"#utility.yul\":19395:19418   */\n      swap2\n      pop\n        /* \"#utility.yul\":19144:19424   */\n      pop\n        /* \"#utility.yul\":19034:19424   */\n      swap3\n      swap2\n      pop\n      pop\n      jump\t// out\n        /* \"#utility.yul\":19430:19705   */\n    tag_160:\n        /* \"#utility.yul\":19562:19565   */\n      0x00\n        /* \"#utility.yul\":19584:19679   */\n      tag_457\n        /* \"#utility.yul\":19675:19678   */\n      dup3\n        /* \"#utility.yul\":19666:19672   */\n      dup5\n        /* \"#utility.yul\":19584:19679   */\n      tag_263\n      jump\t// in\n    tag_457:\n        /* \"#utility.yul\":19577:19679   */\n      swap2\n      pop\n        /* \"#utility.yul\":19696:19699   */\n      dup2\n        /* \"#utility.yul\":19689:19699   */\n      swap1\n      pop\n        /* \"#utility.yul\":19430:19705   */\n      swap3\n      swap2\n      pop\n      pop\n      jump\t// out\n        /* \"#utility.yul\":19711:19893   */\n    tag_264:\n        /* \"#utility.yul\":19851:19885   */\n      0x546869732061756374696f6e206e616d6520697320616c726564792075736564\n        /* \"#utility.yul\":19847:19848   */\n      0x00\n        /* \"#utility.yul\":19839:19845   */\n      dup3\n        /* \"#utility.yul\":19835:19849   */\n      add\n        /* \"#utility.yul\":19828:19886   */\n      mstore\n        /* \"#utility.yul\":19711:19893   */\n      pop\n      jump\t// out\n        /* \"#utility.yul\":19899:20265   */\n    tag_265:\n        /* \"#utility.yul\":20041:20044   */\n      0x00\n        /* \"#utility.yul\":20062:20129   */\n      tag_460\n        /* \"#utility.yul\":20126:20128   */\n      0x20\n        /* \"#utility.yul\":20121:20124   */\n      dup4\n        /* \"#utility.yul\":20062:20129   */\n      tag_220\n      jump\t// in\n    tag_460:\n        /* \"#utility.yul\":20055:20129   */\n      swap2\n      pop\n        /* \"#utility.yul\":20138:20231   */\n      tag_461\n        /* \"#utility.yul\":20227:20230   */\n      dup3\n        /* \"#utility.yul\":20138:20231   */\n      tag_264\n      jump\t// in\n    tag_461:\n        /* \"#utility.yul\":20256:20258   */\n      0x20\n        /* \"#utility.yul\":20251:20254   */\n      dup3\n        /* \"#utility.yul\":20247:20259   */\n      add\n        /* \"#utility.yul\":20240:20259   */\n      swap1\n      pop\n        /* \"#utility.yul\":19899:20265   */\n      swap2\n      swap1\n      pop\n      jump\t// out\n        /* \"#utility.yul\":20271:20690   */\n    tag_163:\n        /* \"#utility.yul\":20437:20441   */\n      0x00\n        /* \"#utility.yul\":20475:20477   */\n      0x20\n        /* \"#utility.yul\":20464:20473   */\n      dup3\n        /* \"#utility.yul\":20460:20478   */\n      add\n        /* \"#utility.yul\":20452:20478   */\n      swap1\n      pop\n        /* \"#utility.yul\":20524:20533   */\n      dup2\n        /* \"#utility.yul\":20518:20522   */\n      dup2\n        /* \"#utility.yul\":20514:20534   */\n      sub\n        /* \"#utility.yul\":20510:20511   */\n      0x00\n        /* \"#utility.yul\":20499:20508   */\n      dup4\n        /* \"#utility.yul\":20495:20512   */\n      add\n        /* \"#utility.yul\":20488:20535   */\n      mstore\n        /* \"#utility.yul\":20552:20683   */\n      tag_463\n        /* \"#utility.yul\":20678:20682   */\n      dup2\n        /* \"#utility.yul\":20552:20683   */\n      tag_265\n      jump\t// in\n    tag_463:\n        /* \"#utility.yul\":20544:20683   */\n      swap1\n      pop\n        /* \"#utility.yul\":20271:20690   */\n      swap2\n      swap1\n      pop\n      jump\t// out\n        /* \"#utility.yul\":20696:20837   */\n    tag_266:\n        /* \"#utility.yul\":20745:20749   */\n      0x00\n        /* \"#utility.yul\":20768:20771   */\n      dup2\n        /* \"#utility.yul\":20760:20771   */\n      swap1\n      pop\n        /* \"#utility.yul\":20791:20794   */\n      dup2\n        /* \"#utility.yul\":20788:20789   */\n      0x00\n        /* \"#utility.yul\":20781:20795   */\n      mstore\n        /* \"#utility.yul\":20825:20829   */\n      0x20\n        /* \"#utility.yul\":20822:20823   */\n      0x00\n        /* \"#utility.yul\":20812:20830   */\n      keccak256\n        /* \"#utility.yul\":20804:20830   */\n      swap1\n      pop\n        /* \"#utility.yul\":20696:20837   */\n      swap2\n      swap1\n      pop\n      jump\t// out\n        /* \"#utility.yul\":20843:20936   */\n    tag_267:\n        /* \"#utility.yul\":20880:20886   */\n      0x00\n        /* \"#utility.yul\":20927:20929   */\n      0x20\n        /* \"#utility.yul\":20922:20924   */\n      0x1f\n        /* \"#utility.yul\":20915:20920   */\n      dup4\n        /* \"#utility.yul\":20911:20925   */\n      add\n        /* \"#utility.yul\":20907:20930   */\n      div\n        /* \"#utility.yul\":20897:20930   */\n      swap1\n      pop\n        /* \"#utility.yul\":20843:20936   */\n      swap2\n      swap1\n      pop\n      jump\t// out\n        /* \"#utility.yul\":20942:21049   */\n    tag_268:\n        /* \"#utility.yul\":20986:20994   */\n      0x00\n        /* \"#utility.yul\":21036:21041   */\n      dup3\n        /* \"#utility.yul\":21030:21034   */\n      dup3\n        /* \"#utility.yul\":21026:21042   */\n      shl\n        /* \"#utility.yul\":21005:21042   */\n      swap1\n      pop\n        /* \"#utility.yul\":20942:21049   */\n      swap3\n      swap2\n      pop\n      pop\n      jump\t// out\n        /* \"#utility.yul\":21055:21448   */\n    tag_269:\n        /* \"#utility.yul\":21124:21130   */\n      0x00\n        /* \"#utility.yul\":21174:21175   */\n      0x08\n        /* \"#utility.yul\":21162:21172   */\n      dup4\n        /* \"#utility.yul\":21158:21176   */\n      mul\n        /* \"#utility.yul\":21197:21294   */\n      tag_468\n        /* \"#utility.yul\":21227:21293   */\n      0xffffffffffffffffffffffffffffffffffffffffffffffffffffffffffffffff\n        /* \"#utility.yul\":21216:21225   */\n      dup3\n        /* \"#utility.yul\":21197:21294   */\n      tag_268\n      jump\t// in\n    tag_468:\n        /* \"#utility.yul\":21315:21354   */\n      tag_469\n        /* \"#utility.yul\":21345:21353   */\n      dup7\n        /* \"#utility.yul\":21334:21343   */\n      dup4\n        /* \"#utility.yul\":21315:21354   */\n      tag_268\n      jump\t// in\n    tag_469:\n        /* \"#utility.yul\":21303:21354   */\n      swap6\n      pop\n        /* \"#utility.yul\":21387:21391   */\n      dup1\n        /* \"#utility.yul\":21383:21392   */\n      not\n        /* \"#utility.yul\":21376:21381   */\n      dup5\n        /* \"#utility.yul\":21372:21393   */\n      and\n        /* \"#utility.yul\":21363:21393   */\n      swap4\n      pop\n        /* \"#utility.yul\":21436:21440   */\n      dup1\n        /* \"#utility.yul\":21426:21434   */\n      dup7\n        /* \"#utility.yul\":21422:21441   */\n      and\n        /* \"#utility.yul\":21415:21420   */\n      dup5\n        /* \"#utility.yul\":21412:21442   */\n      or\n        /* \"#utility.yul\":21402:21442   */\n      swap3\n      pop\n        /* \"#utility.yul\":21131:21448   */\n      pop\n      pop\n        /* \"#utility.yul\":21055:21448   */\n      swap4\n      swap3\n      pop\n      pop\n      pop\n      jump\t// out\n        /* \"#utility.yul\":21454:21514   */\n    tag_270:\n        /* \"#utility.yul\":21482:21485   */\n      0x00\n        /* \"#utility.yul\":21503:21508   */\n      dup2\n        /* \"#utility.yul\":21496:21508   */\n      swap1\n      pop\n        /* \"#utility.yul\":21454:21514   */\n      swap2\n      swap1\n      pop\n      jump\t// out\n        /* \"#utility.yul\":21520:21662   */\n    tag_271:\n        /* \"#utility.yul\":21570:21579   */\n      0x00\n        /* \"#utility.yul\":21603:21656   */\n      tag_472\n        /* \"#utility.yul\":21621:21655   */\n      tag_473\n        /* \"#utility.yul\":21630:21654   */\n      tag_474\n        /* \"#utility.yul\":21648:21653   */\n      dup5\n        /* \"#utility.yul\":21630:21654   */\n      tag_215\n      jump\t// in\n    tag_474:\n        /* \"#utility.yul\":21621:21655   */\n      tag_270\n      jump\t// in\n    tag_473:\n        /* \"#utility.yul\":21603:21656   */\n      tag_215\n      jump\t// in\n    tag_472:\n        /* \"#utility.yul\":21590:21656   */\n      swap1\n      pop\n        /* \"#utility.yul\":21520:21662   */\n      swap2\n      swap1\n      pop\n      jump\t// out\n        /* \"#utility.yul\":21668:21743   */\n    tag_272:\n        /* \"#utility.yul\":21711:21714   */\n      0x00\n        /* \"#utility.yul\":21732:21737   */\n      dup2\n        /* \"#utility.yul\":21725:21737   */\n      swap1\n      pop\n        /* \"#utility.yul\":21668:21743   */\n      swap2\n      swap1\n      pop\n      jump\t// out\n        /* \"#utility.yul\":21749:22018   */\n    tag_273:\n        /* \"#utility.yul\":21859:21898   */\n      tag_477\n        /* \"#utility.yul\":21890:21897   */\n      dup4\n        /* \"#utility.yul\":21859:21898   */\n      tag_271\n      jump\t// in\n    tag_477:\n        /* \"#utility.yul\":21920:22011   */\n      tag_478\n        /* \"#utility.yul\":21969:22010   */\n      tag_479\n        /* \"#utility.yul\":21993:22009   */\n      dup3\n        /* \"#utility.yul\":21969:22010   */\n      tag_272\n      jump\t// in\n    tag_479:\n        /* \"#utility.yul\":21961:21967   */\n      dup5\n        /* \"#utility.yul\":21954:21958   */\n      dup5\n        /* \"#utility.yul\":21948:21959   */\n      sload\n        /* \"#utility.yul\":21920:22011   */\n      tag_269\n      jump\t// in\n    tag_478:\n        /* \"#utility.yul\":21914:21918   */\n      dup3\n        /* \"#utility.yul\":21907:22012   */\n      sstore\n        /* \"#utility.yul\":21825:22018   */\n      pop\n        /* \"#utility.yul\":21749:22018   */\n      pop\n      pop\n      pop\n      jump\t// out\n        /* \"#utility.yul\":22024:22097   */\n    tag_274:\n        /* \"#utility.yul\":22069:22072   */\n      0x00\n        /* \"#utility.yul\":22024:22097   */\n      swap1\n      jump\t// out\n        /* \"#utility.yul\":22103:22292   */\n    tag_275:\n        /* \"#utility.yul\":22180:22212   */\n      tag_482\n      tag_274\n      jump\t// in\n    tag_482:\n        /* \"#utility.yul\":22221:22286   */\n      tag_483\n        /* \"#utility.yul\":22279:22285   */\n      dup2\n        /* \"#utility.yul\":22271:22277   */\n      dup5\n        /* \"#utility.yul\":22265:22269   */\n      dup5\n        /* \"#utility.yul\":22221:22286   */\n      tag_273\n      jump\t// in\n    tag_483:\n        /* \"#utility.yul\":22156:22292   */\n      pop\n        /* \"#utility.yul\":22103:22292   */\n      pop\n      pop\n      jump\t// out\n        /* \"#utility.yul\":22298:22484   */\n    tag_276:\n        /* \"#utility.yul\":22358:22478   */\n    tag_485:\n        /* \"#utility.yul\":22375:22378   */\n      dup2\n        /* \"#utility.yul\":22368:22373   */\n      dup2\n        /* \"#utility.yul\":22365:22379   */\n      lt\n        /* \"#utility.yul\":22358:22478   */\n      iszero\n      tag_487\n      jumpi\n        /* \"#utility.yul\":22429:22468   */\n      tag_488\n        /* \"#utility.yul\":22466:22467   */\n      0x00\n        /* \"#utility.yul\":22459:22464   */\n      dup3\n        /* \"#utility.yul\":22429:22468   */\n      tag_275\n      jump\t// in\n    tag_488:\n        /* \"#utility.yul\":22402:22403   */\n      0x01\n        /* \"#utility.yul\":22395:22400   */\n      dup2\n        /* \"#utility.yul\":22391:22404   */\n      add\n        /* \"#utility.yul\":22382:22404   */\n      swap1\n      pop\n        /* \"#utility.yul\":22358:22478   */\n      jump(tag_485)\n    tag_487:\n        /* \"#utility.yul\":22298:22484   */\n      pop\n      pop\n      jump\t// out\n        /* \"#utility.yul\":22490:23033   */\n    tag_277:\n        /* \"#utility.yul\":22591:22593   */\n      0x1f\n        /* \"#utility.yul\":22586:22589   */\n      dup3\n        /* \"#utility.yul\":22583:22594   */\n      gt\n        /* \"#utility.yul\":22580:23026   */\n      iszero\n      tag_490\n      jumpi\n        /* \"#utility.yul\":22625:22663   */\n      tag_491\n        /* \"#utility.yul\":22657:22662   */\n      dup2\n        /* \"#utility.yul\":22625:22663   */\n      tag_266\n      jump\t// in\n    tag_491:\n        /* \"#utility.yul\":22709:22738   */\n      tag_492\n        /* \"#utility.yul\":22727:22737   */\n      dup5\n        /* \"#utility.yul\":22709:22738   */\n      tag_267\n      jump\t// in\n    tag_492:\n        /* \"#utility.yul\":22699:22707   */\n      dup2\n        /* \"#utility.yul\":22695:22739   */\n      add\n        /* \"#utility.yul\":22892:22894   */\n      0x20\n        /* \"#utility.yul\":22880:22890   */\n      dup6\n        /* \"#utility.yul\":22877:22895   */\n      lt\n        /* \"#utility.yul\":22874:22923   */\n      iszero\n      tag_493\n      jumpi\n        /* \"#utility.yul\":22913:22921   */\n      dup2\n        /* \"#utility.yul\":22898:22921   */\n      swap1\n      pop\n        /* \"#utility.yul\":22874:22923   */\n    tag_493:\n        /* \"#utility.yul\":22936:23016   */\n      tag_494\n        /* \"#utility.yul\":22992:23014   */\n      tag_495\n        /* \"#utility.yul\":23010:23013   */\n      dup6\n        /* \"#utility.yul\":22992:23014   */\n      tag_267\n      jump\t// in\n    tag_495:\n        /* \"#utility.yul\":22982:22990   */\n      dup4\n        /* \"#utility.yul\":22978:23015   */\n      add\n        /* \"#utility.yul\":22965:22976   */\n      dup3\n        /* \"#utility.yul\":22936:23016   */\n      tag_276\n      jump\t// in\n    tag_494:\n        /* \"#utility.yul\":22595:23026   */\n      pop\n      pop\n        /* \"#utility.yul\":22580:23026   */\n    tag_490:\n        /* \"#utility.yul\":22490:23033   */\n      pop\n      pop\n      pop\n      jump\t// out\n        /* \"#utility.yul\":23039:23156   */\n    tag_278:\n        /* \"#utility.yul\":23093:23101   */\n      0x00\n        /* \"#utility.yul\":23143:23148   */\n      dup3\n        /* \"#utility.yul\":23137:23141   */\n      dup3\n        /* \"#utility.yul\":23133:23149   */\n      shr\n        /* \"#utility.yul\":23112:23149   */\n      swap1\n      pop\n        /* \"#utility.yul\":23039:23156   */\n      swap3\n      swap2\n      pop\n      pop\n      jump\t// out\n        /* \"#utility.yul\":23162:23331   */\n    tag_279:\n        /* \"#utility.yul\":23206:23212   */\n      0x00\n        /* \"#utility.yul\":23239:23290   */\n      tag_498\n        /* \"#utility.yul\":23287:23288   */\n      0x00\n        /* \"#utility.yul\":23283:23289   */\n      not\n        /* \"#utility.yul\":23275:23280   */\n      dup5\n        /* \"#utility.yul\":23272:23273   */\n      0x08\n        /* \"#utility.yul\":23268:23281   */\n      mul\n        /* \"#utility.yul\":23239:23290   */\n      tag_278\n      jump\t// in\n    tag_498:\n        /* \"#utility.yul\":23235:23291   */\n      not\n        /* \"#utility.yul\":23320:23324   */\n      dup1\n        /* \"#utility.yul\":23314:23318   */\n      dup4\n        /* \"#utility.yul\":23310:23325   */\n      and\n        /* \"#utility.yul\":23300:23325   */\n      swap2\n      pop\n        /* \"#utility.yul\":23213:23331   */\n      pop\n        /* \"#utility.yul\":23162:23331   */\n      swap3\n      swap2\n      pop\n      pop\n      jump\t// out\n        /* \"#utility.yul\":23336:23631   */\n    tag_280:\n        /* \"#utility.yul\":23412:23416   */\n      0x00\n        /* \"#utility.yul\":23558:23587   */\n      tag_500\n        /* \"#utility.yul\":23583:23586   */\n      dup4\n        /* \"#utility.yul\":23577:23581   */\n      dup4\n        /* \"#utility.yul\":23558:23587   */\n      tag_279\n      jump\t// in\n    tag_500:\n        /* \"#utility.yul\":23550:23587   */\n      swap2\n      pop\n        /* \"#utility.yul\":23620:23623   */\n      dup3\n        /* \"#utility.yul\":23617:23618   */\n      0x02\n        /* \"#utility.yul\":23613:23624   */\n      mul\n        /* \"#utility.yul\":23607:23611   */\n      dup3\n        /* \"#utility.yul\":23604:23625   */\n      or\n        /* \"#utility.yul\":23596:23625   */\n      swap1\n      pop\n        /* \"#utility.yul\":23336:23631   */\n      swap3\n      swap2\n      pop\n      pop\n      jump\t// out\n        /* \"#utility.yul\":23636:25031   */\n    tag_170:\n        /* \"#utility.yul\":23753:23790   */\n      tag_502\n        /* \"#utility.yul\":23786:23789   */\n      dup3\n        /* \"#utility.yul\":23753:23790   */\n      tag_219\n      jump\t// in\n    tag_502:\n        /* \"#utility.yul\":23855:23873   */\n      0xffffffffffffffff\n        /* \"#utility.yul\":23847:23853   */\n      dup2\n        /* \"#utility.yul\":23844:23874   */\n      gt\n        /* \"#utility.yul\":23841:23897   */\n      iszero\n      tag_503\n      jumpi\n        /* \"#utility.yul\":23877:23895   */\n      tag_504\n      tag_233\n      jump\t// in\n    tag_504:\n        /* \"#utility.yul\":23841:23897   */\n    tag_503:\n        /* \"#utility.yul\":23921:23959   */\n      tag_505\n        /* \"#utility.yul\":23953:23957   */\n      dup3\n        /* \"#utility.yul\":23947:23958   */\n      sload\n        /* \"#utility.yul\":23921:23959   */\n      tag_101\n      jump\t// in\n    tag_505:\n        /* \"#utility.yul\":24006:24073   */\n      tag_506\n        /* \"#utility.yul\":24066:24072   */\n      dup3\n        /* \"#utility.yul\":24058:24064   */\n      dup3\n        /* \"#utility.yul\":24052:24056   */\n      dup6\n        /* \"#utility.yul\":24006:24073   */\n      tag_277\n      jump\t// in\n    tag_506:\n        /* \"#utility.yul\":24100:24101   */\n      0x00\n        /* \"#utility.yul\":24124:24128   */\n      0x20\n        /* \"#utility.yul\":24111:24128   */\n      swap1\n      pop\n        /* \"#utility.yul\":24156:24158   */\n      0x1f\n        /* \"#utility.yul\":24148:24154   */\n      dup4\n        /* \"#utility.yul\":24145:24159   */\n      gt\n        /* \"#utility.yul\":24173:24174   */\n      0x01\n        /* \"#utility.yul\":24168:24786   */\n      dup2\n      eq\n      tag_508\n      jumpi\n        /* \"#utility.yul\":24830:24831   */\n      0x00\n        /* \"#utility.yul\":24847:24853   */\n      dup5\n        /* \"#utility.yul\":24844:24921   */\n      iszero\n      tag_509\n      jumpi\n        /* \"#utility.yul\":24896:24905   */\n      dup3\n        /* \"#utility.yul\":24891:24894   */\n      dup8\n        /* \"#utility.yul\":24887:24906   */\n      add\n        /* \"#utility.yul\":24881:24907   */\n      mload\n        /* \"#utility.yul\":24872:24907   */\n      swap1\n      pop\n        /* \"#utility.yul\":24844:24921   */\n    tag_509:\n        /* \"#utility.yul\":24947:25014   */\n      tag_510\n        /* \"#utility.yul\":25007:25013   */\n      dup6\n        /* \"#utility.yul\":25000:25005   */\n      dup3\n        /* \"#utility.yul\":24947:25014   */\n      tag_280\n      jump\t// in\n    tag_510:\n        /* \"#utility.yul\":24941:24945   */\n      dup7\n        /* \"#utility.yul\":24934:25015   */\n      sstore\n        /* \"#utility.yul\":24803:25025   */\n      pop\n        /* \"#utility.yul\":24138:25025   */\n      jump(tag_507)\n        /* \"#utility.yul\":24168:24786   */\n    tag_508:\n        /* \"#utility.yul\":24220:24224   */\n      0x1f\n        /* \"#utility.yul\":24216:24225   */\n      not\n        /* \"#utility.yul\":24208:24214   */\n      dup5\n        /* \"#utility.yul\":24204:24226   */\n      and\n        /* \"#utility.yul\":24254:24291   */\n      tag_511\n        /* \"#utility.yul\":24286:24290   */\n      dup7\n        /* \"#utility.yul\":24254:24291   */\n      tag_266\n      jump\t// in\n    tag_511:\n        /* \"#utility.yul\":24313:24314   */\n      0x00\n        /* \"#utility.yul\":24327:24535   */\n    tag_512:\n        /* \"#utility.yul\":24341:24348   */\n      dup3\n        /* \"#utility.yul\":24338:24339   */\n      dup2\n        /* \"#utility.yul\":24335:24349   */\n      lt\n        /* \"#utility.yul\":24327:24535   */\n      iszero\n      tag_514\n      jumpi\n        /* \"#utility.yul\":24420:24429   */\n      dup5\n        /* \"#utility.yul\":24415:24418   */\n      dup10\n        /* \"#utility.yul\":24411:24430   */\n      add\n        /* \"#utility.yul\":24405:24431   */\n      mload\n        /* \"#utility.yul\":24397:24403   */\n      dup3\n        /* \"#utility.yul\":24390:24432   */\n      sstore\n        /* \"#utility.yul\":24471:24472   */\n      0x01\n        /* \"#utility.yul\":24463:24469   */\n      dup3\n        /* \"#utility.yul\":24459:24473   */\n      add\n        /* \"#utility.yul\":24449:24473   */\n      swap2\n      pop\n        /* \"#utility.yul\":24518:24520   */\n      0x20\n        /* \"#utility.yul\":24507:24516   */\n      dup6\n        /* \"#utility.yul\":24503:24521   */\n      add\n        /* \"#utility.yul\":24490:24521   */\n      swap5\n      pop\n        /* \"#utility.yul\":24364:24368   */\n      0x20\n        /* \"#utility.yul\":24361:24362   */\n      dup2\n        /* \"#utility.yul\":24357:24369   */\n      add\n        /* \"#utility.yul\":24352:24369   */\n      swap1\n      pop\n        /* \"#utility.yul\":24327:24535   */\n      jump(tag_512)\n    tag_514:\n        /* \"#utility.yul\":24563:24569   */\n      dup7\n        /* \"#utility.yul\":24554:24561   */\n      dup4\n        /* \"#utility.yul\":24551:24570   */\n      lt\n        /* \"#utility.yul\":24548:24727   */\n      iszero\n      tag_515\n      jumpi\n        /* \"#utility.yul\":24621:24630   */\n      dup5\n        /* \"#utility.yul\":24616:24619   */\n      dup10\n        /* \"#utility.yul\":24612:24631   */\n      add\n        /* \"#utility.yul\":24606:24632   */\n      mload\n        /* \"#utility.yul\":24664:24712   */\n      tag_516\n        /* \"#utility.yul\":24706:24710   */\n      0x1f\n        /* \"#utility.yul\":24698:24704   */\n      dup10\n        /* \"#utility.yul\":24694:24711   */\n      and\n        /* \"#utility.yul\":24683:24692   */\n      dup3\n        /* \"#utility.yul\":24664:24712   */\n      tag_279\n      jump\t// in\n    tag_516:\n        /* \"#utility.yul\":24656:24662   */\n      dup4\n        /* \"#utility.yul\":24649:24713   */\n      sstore\n        /* \"#utility.yul\":24571:24727   */\n      pop\n        /* \"#utility.yul\":24548:24727   */\n    tag_515:\n        /* \"#utility.yul\":24773:24774   */\n      0x01\n        /* \"#utility.yul\":24769:24770   */\n      0x02\n        /* \"#utility.yul\":24761:24767   */\n      dup9\n        /* \"#utility.yul\":24757:24771   */\n      mul\n        /* \"#utility.yul\":24753:24775   */\n      add\n        /* \"#utility.yul\":24747:24751   */\n      dup9\n        /* \"#utility.yul\":24740:24776   */\n      sstore\n        /* \"#utility.yul\":24175:24786   */\n      pop\n      pop\n      pop\n        /* \"#utility.yul\":24138:25025   */\n    tag_507:\n      pop\n        /* \"#utility.yul\":23728:25031   */\n      pop\n      pop\n      pop\n        /* \"#utility.yul\":23636:25031   */\n      pop\n      pop\n      jump\t// out\n        /* \"#utility.yul\":25037:25460   */\n    tag_175:\n        /* \"#utility.yul\":25178:25182   */\n      0x00\n        /* \"#utility.yul\":25216:25218   */\n      0x40\n        /* \"#utility.yul\":25205:25214   */\n      dup3\n        /* \"#utility.yul\":25201:25219   */\n      add\n        /* \"#utility.yul\":25193:25219   */\n      swap1\n      pop\n        /* \"#utility.yul\":25265:25274   */\n      dup2\n        /* \"#utility.yul\":25259:25263   */\n      dup2\n        /* \"#utility.yul\":25255:25275   */\n      sub\n        /* \"#utility.yul\":25251:25252   */\n      0x00\n        /* \"#utility.yul\":25240:25249   */\n      dup4\n        /* \"#utility.yul\":25236:25253   */\n      add\n        /* \"#utility.yul\":25229:25276   */\n      mstore\n        /* \"#utility.yul\":25293:25371   */\n      tag_518\n        /* \"#utility.yul\":25366:25370   */\n      dup2\n        /* \"#utility.yul\":25357:25363   */\n      dup6\n        /* \"#utility.yul\":25293:25371   */\n      tag_223\n      jump\t// in\n    tag_518:\n        /* \"#utility.yul\":25285:25371   */\n      swap1\n      pop\n        /* \"#utility.yul\":25381:25453   */\n      tag_519\n        /* \"#utility.yul\":25449:25451   */\n      0x20\n        /* \"#utility.yul\":25438:25447   */\n      dup4\n        /* \"#utility.yul\":25434:25452   */\n      add\n        /* \"#utility.yul\":25425:25431   */\n      dup5\n        /* \"#utility.yul\":25381:25453   */\n      tag_218\n      jump\t// in\n    tag_519:\n        /* \"#utility.yul\":25037:25460   */\n      swap4\n      swap3\n      pop\n      pop\n      pop\n      jump\t// out\n        /* \"#utility.yul\":25466:25660   */\n    tag_192:\n        /* \"#utility.yul\":25506:25510   */\n      0x00\n        /* \"#utility.yul\":25526:25546   */\n      tag_521\n        /* \"#utility.yul\":25544:25545   */\n      dup3\n        /* \"#utility.yul\":25526:25546   */\n      tag_215\n      jump\t// in\n    tag_521:\n        /* \"#utility.yul\":25521:25546   */\n      swap2\n      pop\n        /* \"#utility.yul\":25560:25580   */\n      tag_522\n        /* \"#utility.yul\":25578:25579   */\n      dup4\n        /* \"#utility.yul\":25560:25580   */\n      tag_215\n      jump\t// in\n    tag_522:\n        /* \"#utility.yul\":25555:25580   */\n      swap3\n      pop\n        /* \"#utility.yul\":25604:25605   */\n      dup3\n        /* \"#utility.yul\":25601:25602   */\n      dup3\n        /* \"#utility.yul\":25597:25606   */\n      sub\n        /* \"#utility.yul\":25589:25606   */\n      swap1\n      pop\n        /* \"#utility.yul\":25628:25629   */\n      dup2\n        /* \"#utility.yul\":25622:25626   */\n      dup2\n        /* \"#utility.yul\":25619:25630   */\n      gt\n        /* \"#utility.yul\":25616:25653   */\n      iszero\n      tag_523\n      jumpi\n        /* \"#utility.yul\":25633:25651   */\n      tag_524\n      tag_261\n      jump\t// in\n    tag_524:\n        /* \"#utility.yul\":25616:25653   */\n    tag_523:\n        /* \"#utility.yul\":25466:25660   */\n      swap3\n      swap2\n      pop\n      pop\n      jump\t// out\n        /* \"#utility.yul\":25666:26225   */\n    tag_211:\n        /* \"#utility.yul\":25848:25852   */\n      0x00\n        /* \"#utility.yul\":25886:25888   */\n      0x60\n        /* \"#utility.yul\":25875:25884   */\n      dup3\n        /* \"#utility.yul\":25871:25889   */\n      add\n        /* \"#utility.yul\":25863:25889   */\n      swap1\n      pop\n        /* \"#utility.yul\":25935:25944   */\n      dup2\n        /* \"#utility.yul\":25929:25933   */\n      dup2\n        /* \"#utility.yul\":25925:25945   */\n      sub\n        /* \"#utility.yul\":25921:25922   */\n      0x00\n        /* \"#utility.yul\":25910:25919   */\n      dup4\n        /* \"#utility.yul\":25906:25923   */\n      add\n        /* \"#utility.yul\":25899:25946   */\n      mstore\n        /* \"#utility.yul\":25963:26041   */\n      tag_526\n        /* \"#utility.yul\":26036:26040   */\n      dup2\n        /* \"#utility.yul\":26027:26033   */\n      dup7\n        /* \"#utility.yul\":25963:26041   */\n      tag_223\n      jump\t// in\n    tag_526:\n        /* \"#utility.yul\":25955:26041   */\n      swap1\n      pop\n        /* \"#utility.yul\":26051:26136   */\n      tag_527\n        /* \"#utility.yul\":26132:26134   */\n      0x20\n        /* \"#utility.yul\":26121:26130   */\n      dup4\n        /* \"#utility.yul\":26117:26135   */\n      add\n        /* \"#utility.yul\":26108:26114   */\n      dup6\n        /* \"#utility.yul\":26051:26136   */\n      tag_230\n      jump\t// in\n    tag_527:\n        /* \"#utility.yul\":26146:26218   */\n      tag_528\n        /* \"#utility.yul\":26214:26216   */\n      0x40\n        /* \"#utility.yul\":26203:26212   */\n      dup4\n        /* \"#utility.yul\":26199:26217   */\n      add\n        /* \"#utility.yul\":26190:26196   */\n      dup5\n        /* \"#utility.yul\":26146:26218   */\n      tag_218\n      jump\t// in\n    tag_528:\n        /* \"#utility.yul\":25666:26225   */\n      swap5\n      swap4\n      pop\n      pop\n      pop\n      pop\n      jump\t// out\n\n    auxdata: 0xa2646970667358221220b94638ab3b23d02c94f8396821d96e270bdec33f7544797b844145175f3272b464736f6c63430008180033\n}\n",
				"bytecode": {
					"linkReferences": {},
					"object": "608060405234801561000f575f80fd5b50335f806101000a81548173ffffffffffffffffffffffffffffffffffffffff021916908373ffffffffffffffffffffffffffffffffffffffff160217905550611ed48061005c5f395ff3fe608060405260043610610085575f3560e01c8063744d341111610058578063744d341114610139578063aa1ed30e14610175578063c44b523014610191578063e33a33b3146101cd578063f20e5e35146101f557610085565b8063236ed8f3146100895780632e1a7d4d146100b15780633ef14cc8146100cd578063571a26a0146100f7575b5f80fd5b348015610094575f80fd5b506100af60048036038101906100aa9190611148565b610234565b005b6100cb60048036038101906100c69190611148565b6102cd565b005b3480156100d8575f80fd5b506100e16105a8565b6040516100ee9190611182565b60405180910390f35b348015610102575f80fd5b5061011d60048036038101906101189190611148565b6105b4565b60405161013097969594939291906112d7565b60405180910390f35b348015610144575f80fd5b5061015f600480360381019061015a9190611148565b6106b2565b60405161016c9190611182565b60405180910390f35b61018f600480360381019061018a9190611148565b6106de565b005b34801561019c575f80fd5b506101b760048036038101906101b29190611477565b610ac9565b6040516101c491906114d8565b60405180910390f35b3480156101d8575f80fd5b506101f360048036038101906101ee91906114f1565b610afe565b005b348015610200575f80fd5b5061021b60048036038101906102169190611148565b610db2565b60405161022b949392919061157d565b60405180910390f35b3373ffffffffffffffffffffffffffffffffffffffff165f8054906101000a900473ffffffffffffffffffffffffffffffffffffffff1673ffffffffffffffffffffffffffffffffffffffff16146102c1576040517f08c379a00000000000000000000000000000000000000000000000000000000081526004016102b890611630565b60405180910390fd5b6102ca81610f70565b50565b3373ffffffffffffffffffffffffffffffffffffffff165f8054906101000a900473ffffffffffffffffffffffffffffffffffffffff1673ffffffffffffffffffffffffffffffffffffffff161461035a576040517f08c379a000000000000000000000000000000000000000000000000000000000815260040161035190611630565b60405180910390fd5b8060018054905081106103a2576040517f08c379a0000000000000000000000000000000000000000000000000000000008152600401610399906116be565b60405180910390fd5b5f600183815481106103b7576103b66116dc565b5b905f5260205f20906007020190505f60028111156103d8576103d7611264565b5b816006015f9054906101000a900460ff1660028111156103fb576103fa611264565b5b0361043b576040517f08c379a000000000000000000000000000000000000000000000000000000000815260040161043290611753565b60405180910390fd5b60028081111561044e5761044d611264565b5b816006015f9054906101000a900460ff16600281111561047157610470611264565b5b036104b1576040517f08c379a00000000000000000000000000000000000000000000000000000000081526004016104a8906117e1565b60405180910390fd5b5f816002015490505f8054906101000a900473ffffffffffffffffffffffffffffffffffffffff1673ffffffffffffffffffffffffffffffffffffffff166108fc8290811502906040515f60405180830381858888f1935050505015801561051b573d5f803e3d5ffd5b506002826006015f6101000a81548160ff0219169083600281111561054357610542611264565b5b02179055507f997f26ee6e00428b7ecf9a9493036a5910a83fd47a598e6b0ec6cad8fb59e30e84825f8054906101000a900473ffffffffffffffffffffffffffffffffffffffff1660405161059a939291906117ff565b60405180910390a150505050565b5f600180549050905090565b600181815481106105c3575f80fd5b905f5260205f2090600702015f91509050805f0180546105e290611861565b80601f016020809104026020016040519081016040528092919081815260200182805461060e90611861565b80156106595780601f1061063057610100808354040283529160200191610659565b820191905f5260205f20905b81548152906001019060200180831161063c57829003601f168201915b505050505090806001015490806002015490806003015f9054906101000a900473ffffffffffffffffffffffffffffffffffffffff1690806004015490806005015490806006015f9054906101000a900460ff16905087565b5f600182815481106106c7576106c66116dc565b5b905f5260205f209060070201600501549050919050565b806001805490508110610726576040517f08c379a000000000000000000000000000000000000000000000000000000000815260040161071d906116be565b60405180910390fd5b5f8054906101000a900473ffffffffffffffffffffffffffffffffffffffff1673ffffffffffffffffffffffffffffffffffffffff163373ffffffffffffffffffffffffffffffffffffffff16036107b3576040517f08c379a00000000000000000000000000000000000000000000000000000000081526004016107aa906118db565b60405180910390fd5b815f600182815481106107c9576107c86116dc565b5b905f5260205f20906007020190505f60028111156107ea576107e9611264565b5b816006015f9054906101000a900460ff16600281111561080d5761080c611264565b5b14801561081e575042816004015411155b1561082d5761082c82610f70565b5b5f60028111156108405761083f611264565b5b816006015f9054906101000a900460ff16600281111561086357610862611264565b5b146108a3576040517f08c379a000000000000000000000000000000000000000000000000000000000815260040161089a90611943565b60405180910390fd5b835f600182815481106108b9576108b86116dc565b5b905f5260205f20906007020190508060020154341161090d576040517f08c379a0000000000000000000000000000000000000000000000000000000008152600401610904906119d1565b60405180910390fd5b80600101543411610953576040517f08c379a000000000000000000000000000000000000000000000000000000000815260040161094a90611a5f565b60405180910390fd5b5f60018781548110610968576109676116dc565b5b905f5260205f20906007020190505f816003015f9054906101000a900473ffffffffffffffffffffffffffffffffffffffff1690505f826002015490505f73ffffffffffffffffffffffffffffffffffffffff168273ffffffffffffffffffffffffffffffffffffffff1614610a1d578173ffffffffffffffffffffffffffffffffffffffff166108fc8290811502906040515f60405180830381858888f19350505050158015610a1b573d5f803e3d5ffd5b505b34836002018190555033836003015f6101000a81548173ffffffffffffffffffffffffffffffffffffffff021916908373ffffffffffffffffffffffffffffffffffffffff1602179055506001836005015f828254610a7c9190611aaa565b925050819055507f2f2317489eb3b025da5521ea9c4a7bd075188f0b72c209b7d7a29ff80e7b6220893433604051610ab6939291906117ff565b60405180910390a1505050505050505050565b6002818051602081018201805184825260208301602085012081835280955050505050505f915054906101000a900460ff1681565b3373ffffffffffffffffffffffffffffffffffffffff165f8054906101000a900473ffffffffffffffffffffffffffffffffffffffff1673ffffffffffffffffffffffffffffffffffffffff1614610b8b576040517f08c379a0000000000000000000000000000000000000000000000000000000008152600401610b8290611630565b60405180910390fd5b82600281604051610b9c9190611b17565b90815260200160405180910390205f9054906101000a900460ff1615610bf7576040517f08c379a0000000000000000000000000000000000000000000000000000000008152600401610bee90611b77565b60405180910390fd5b5f8242610c049190611aaa565b905060016040518060e001604052808781526020018681526020015f81526020015f73ffffffffffffffffffffffffffffffffffffffff1681526020018381526020015f81526020015f6002811115610c6057610c5f611264565b5b815250908060018154018082558091505060019003905f5260205f2090600702015f909190919091505f820151815f019081610c9c9190611d32565b5060208201518160010155604082015181600201556060820151816003015f6101000a81548173ffffffffffffffffffffffffffffffffffffffff021916908373ffffffffffffffffffffffffffffffffffffffff1602179055506080820151816004015560a0820151816005015560c0820151816006015f6101000a81548160ff02191690836002811115610d3557610d34611264565b5b021790555050506001600286604051610d4e9190611b17565b90815260200160405180910390205f6101000a81548160ff0219169083151502179055507f411f4da18fed49d65f216aabbd840c349d443c68068da6f337005faf5e31b3268585604051610da3929190611e01565b60405180910390a15050505050565b5f805f805f60018681548110610dcb57610dca6116dc565b5b905f5260205f2090600702016040518060e00160405290815f82018054610df190611861565b80601f0160208091040260200160405190810160405280929190818152602001828054610e1d90611861565b8015610e685780601f10610e3f57610100808354040283529160200191610e68565b820191905f5260205f20905b815481529060010190602001808311610e4b57829003601f168201915b505050505081526020016001820154815260200160028201548152602001600382015f9054906101000a900473ffffffffffffffffffffffffffffffffffffffff1673ffffffffffffffffffffffffffffffffffffffff1673ffffffffffffffffffffffffffffffffffffffff1681526020016004820154815260200160058201548152602001600682015f9054906101000a900460ff166002811115610f1257610f11611264565b5b6002811115610f2457610f23611264565b5b8152505090505f42826080015111610f3c575f610f4d565b428260800151610f4c9190611e2f565b5b905081606001518260400151828460c00151955095509550955050509193509193565b806001805490508110610fb8576040517f08c379a0000000000000000000000000000000000000000000000000000000008152600401610faf906116be565b60405180910390fd5b5f60018381548110610fcd57610fcc6116dc565b5b905f5260205f20906007020190506001816006015f6101000a81548160ff0219169083600281111561100257611001611264565b5b02179055505f815f01805461101690611861565b80601f016020809104026020016040519081016040528092919081815260200182805461104290611861565b801561108d5780601f106110645761010080835404028352916020019161108d565b820191905f5260205f20905b81548152906001019060200180831161107057829003601f168201915b505050505090507f6a4fc6478f4a93574fcdd50ab147277a7be5c6e0d8287dec5d285fe8e39c51c681600186815481106110ca576110c96116dc565b5b905f5260205f2090600702016006015f9054906101000a900460ff16866040516110f693929190611e62565b60405180910390a150505050565b5f604051905090565b5f80fd5b5f80fd5b5f819050919050565b61112781611115565b8114611131575f80fd5b50565b5f813590506111428161111e565b92915050565b5f6020828403121561115d5761115c61110d565b5b5f61116a84828501611134565b91505092915050565b61117c81611115565b82525050565b5f6020820190506111955f830184611173565b92915050565b5f81519050919050565b5f82825260208201905092915050565b5f5b838110156111d25780820151818401526020810190506111b7565b5f8484015250505050565b5f601f19601f8301169050919050565b5f6111f78261119b565b61120181856111a5565b93506112118185602086016111b5565b61121a816111dd565b840191505092915050565b5f73ffffffffffffffffffffffffffffffffffffffff82169050919050565b5f61124e82611225565b9050919050565b61125e81611244565b82525050565b7f4e487b71000000000000000000000000000000000000000000000000000000005f52602160045260245ffd5b600381106112a2576112a1611264565b5b50565b5f8190506112b282611291565b919050565b5f6112c1826112a5565b9050919050565b6112d1816112b7565b82525050565b5f60e0820190508181035f8301526112ef818a6111ed565b90506112fe6020830189611173565b61130b6040830188611173565b6113186060830187611255565b6113256080830186611173565b61133260a0830185611173565b61133f60c08301846112c8565b98975050505050505050565b5f80fd5b5f80fd5b7f4e487b71000000000000000000000000000000000000000000000000000000005f52604160045260245ffd5b611389826111dd565b810181811067ffffffffffffffff821117156113a8576113a7611353565b5b80604052505050565b5f6113ba611104565b90506113c68282611380565b919050565b5f67ffffffffffffffff8211156113e5576113e4611353565b5b6113ee826111dd565b9050602081019050919050565b828183375f83830152505050565b5f61141b611416846113cb565b6113b1565b9050828152602081018484840111156114375761143661134f565b5b6114428482856113fb565b509392505050565b5f82601f83011261145e5761145d61134b565b5b813561146e848260208601611409565b91505092915050565b5f6020828403121561148c5761148b61110d565b5b5f82013567ffffffffffffffff8111156114a9576114a8611111565b5b6114b58482850161144a565b91505092915050565b5f8115159050919050565b6114d2816114be565b82525050565b5f6020820190506114eb5f8301846114c9565b92915050565b5f805f606084860312156115085761150761110d565b5b5f84013567ffffffffffffffff81111561152557611524611111565b5b6115318682870161144a565b935050602061154286828701611134565b925050604061155386828701611134565b9150509250925092565b5f61156782611225565b9050919050565b6115778161155d565b82525050565b5f6080820190506115905f83018761156e565b61159d6020830186611173565b6115aa6040830185611173565b6115b760608301846112c8565b95945050505050565b7f4f6e6c7920746865206f776e65722063616e2063726561746520616e206175635f8201527f74696f6e2e000000000000000000000000000000000000000000000000000000602082015250565b5f61161a6025836111a5565b9150611625826115c0565b604082019050919050565b5f6020820190508181035f8301526116478161160e565b9050919050565b7f5468697320494420646f6573206e6f74206d6174636820616e792063726561745f8201527f65642061756374696f6e2e000000000000000000000000000000000000000000602082015250565b5f6116a8602b836111a5565b91506116b38261164e565b604082019050919050565b5f6020820190508181035f8301526116d58161169c565b9050919050565b7f4e487b71000000000000000000000000000000000000000000000000000000005f52603260045260245ffd5b7f546869732061756374696f6e206973206e6f7420636c6f736564207965742e005f82015250565b5f61173d601f836111a5565b915061174882611709565b602082019050919050565b5f6020820190508181035f83015261176a81611731565b9050919050565b7f546869732061756374696f6e2069732070617965642c2063616e2774206265205f8201527f647261776e20616e796d6f72652e000000000000000000000000000000000000602082015250565b5f6117cb602e836111a5565b91506117d682611771565b604082019050919050565b5f6020820190508181035f8301526117f8816117bf565b9050919050565b5f6060820190506118125f830186611173565b61181f6020830185611173565b61182c604083018461156e565b949350505050565b7f4e487b71000000000000000000000000000000000000000000000000000000005f52602260045260245ffd5b5f600282049050600182168061187857607f821691505b60208210810361188b5761188a611834565b5b50919050565b7f4f776e65722063616e6e6f7420626964000000000000000000000000000000005f82015250565b5f6118c56010836111a5565b91506118d082611891565b602082019050919050565b5f6020820190508181035f8301526118f2816118b9565b9050919050565b7f546869732061756374696f6e20697320636c6f736564000000000000000000005f82015250565b5f61192d6016836111a5565b9150611938826118f9565b602082019050919050565b5f6020820190508181035f83015261195a81611921565b9050919050565b7f4f66666572206d75737420626520686967686572207468616e2063757272656e5f8201527f7420707269636500000000000000000000000000000000000000000000000000602082015250565b5f6119bb6027836111a5565b91506119c682611961565b604082019050919050565b5f6020820190508181035f8301526119e8816119af565b9050919050565b7f4f66666572206d75737420626520686967686572207468616e20696e697469615f8201527f6c20707269636500000000000000000000000000000000000000000000000000602082015250565b5f611a496027836111a5565b9150611a54826119ef565b604082019050919050565b5f6020820190508181035f830152611a7681611a3d565b9050919050565b7f4e487b71000000000000000000000000000000000000000000000000000000005f52601160045260245ffd5b5f611ab482611115565b9150611abf83611115565b9250828201905080821115611ad757611ad6611a7d565b5b92915050565b5f81905092915050565b5f611af18261119b565b611afb8185611add565b9350611b0b8185602086016111b5565b80840191505092915050565b5f611b228284611ae7565b915081905092915050565b7f546869732061756374696f6e206e616d6520697320616c7265647920757365645f82015250565b5f611b616020836111a5565b9150611b6c82611b2d565b602082019050919050565b5f6020820190508181035f830152611b8e81611b55565b9050919050565b5f819050815f5260205f209050919050565b5f6020601f8301049050919050565b5f82821b905092915050565b5f60088302611bf17fffffffffffffffffffffffffffffffffffffffffffffffffffffffffffffffff82611bb6565b611bfb8683611bb6565b95508019841693508086168417925050509392505050565b5f819050919050565b5f611c36611c31611c2c84611115565b611c13565b611115565b9050919050565b5f819050919050565b611c4f83611c1c565b611c63611c5b82611c3d565b848454611bc2565b825550505050565b5f90565b611c77611c6b565b611c82818484611c46565b505050565b5b81811015611ca557611c9a5f82611c6f565b600181019050611c88565b5050565b601f821115611cea57611cbb81611b95565b611cc484611ba7565b81016020851015611cd3578190505b611ce7611cdf85611ba7565b830182611c87565b50505b505050565b5f82821c905092915050565b5f611d0a5f1984600802611cef565b1980831691505092915050565b5f611d228383611cfb565b9150826002028217905092915050565b611d3b8261119b565b67ffffffffffffffff811115611d5457611d53611353565b5b611d5e8254611861565b611d69828285611ca9565b5f60209050601f831160018114611d9a575f8415611d88578287015190505b611d928582611d17565b865550611df9565b601f198416611da886611b95565b5f5b82811015611dcf57848901518255600182019150602085019450602081019050611daa565b86831015611dec5784890151611de8601f891682611cfb565b8355505b6001600288020188555050505b505050505050565b5f6040820190508181035f830152611e1981856111ed565b9050611e286020830184611173565b9392505050565b5f611e3982611115565b9150611e4483611115565b9250828203905081811115611e5c57611e5b611a7d565b5b92915050565b5f6060820190508181035f830152611e7a81866111ed565b9050611e8960208301856112c8565b611e966040830184611173565b94935050505056fea2646970667358221220b94638ab3b23d02c94f8396821d96e270bdec33f7544797b844145175f3272b464736f6c63430008180033",
					"opcodes": "PUSH1 0x80 PUSH1 0x40 MSTORE CALLVALUE DUP1 ISZERO PUSH2 0xF JUMPI PUSH0 DUP1 REVERT JUMPDEST POP CALLER PUSH0 DUP1 PUSH2 0x100 EXP DUP2 SLOAD DUP2 PUSH20 0xFFFFFFFFFFFFFFFFFFFFFFFFFFFFFFFFFFFFFFFF MUL NOT AND SWAP1 DUP4 PUSH20 0xFFFFFFFFFFFFFFFFFFFFFFFFFFFFFFFFFFFFFFFF AND MUL OR SWAP1 SSTORE POP PUSH2 0x1ED4 DUP1 PUSH2 0x5C PUSH0 CODECOPY PUSH0 RETURN INVALID PUSH1 0x80 PUSH1 0x40 MSTORE PUSH1 0x4 CALLDATASIZE LT PUSH2 0x85 JUMPI PUSH0 CALLDATALOAD PUSH1 0xE0 SHR DUP1 PUSH4 0x744D3411 GT PUSH2 0x58 JUMPI DUP1 PUSH4 0x744D3411 EQ PUSH2 0x139 JUMPI DUP1 PUSH4 0xAA1ED30E EQ PUSH2 0x175 JUMPI DUP1 PUSH4 0xC44B5230 EQ PUSH2 0x191 JUMPI DUP1 PUSH4 0xE33A33B3 EQ PUSH2 0x1CD JUMPI DUP1 PUSH4 0xF20E5E35 EQ PUSH2 0x1F5 JUMPI PUSH2 0x85 JUMP JUMPDEST DUP1 PUSH4 0x236ED8F3 EQ PUSH2 0x89 JUMPI DUP1 PUSH4 0x2E1A7D4D EQ PUSH2 0xB1 JUMPI DUP1 PUSH4 0x3EF14CC8 EQ PUSH2 0xCD JUMPI DUP1 PUSH4 0x571A26A0 EQ PUSH2 0xF7 JUMPI JUMPDEST PUSH0 DUP1 REVERT JUMPDEST CALLVALUE DUP1 ISZERO PUSH2 0x94 JUMPI PUSH0 DUP1 REVERT JUMPDEST POP PUSH2 0xAF PUSH1 0x4 DUP1 CALLDATASIZE SUB DUP2 ADD SWAP1 PUSH2 0xAA SWAP2 SWAP1 PUSH2 0x1148 JUMP JUMPDEST PUSH2 0x234 JUMP JUMPDEST STOP JUMPDEST PUSH2 0xCB PUSH1 0x4 DUP1 CALLDATASIZE SUB DUP2 ADD SWAP1 PUSH2 0xC6 SWAP2 SWAP1 PUSH2 0x1148 JUMP JUMPDEST PUSH2 0x2CD JUMP JUMPDEST STOP JUMPDEST CALLVALUE DUP1 ISZERO PUSH2 0xD8 JUMPI PUSH0 DUP1 REVERT JUMPDEST POP PUSH2 0xE1 PUSH2 0x5A8 JUMP JUMPDEST PUSH1 0x40 MLOAD PUSH2 0xEE SWAP2 SWAP1 PUSH2 0x1182 JUMP JUMPDEST PUSH1 0x40 MLOAD DUP1 SWAP2 SUB SWAP1 RETURN JUMPDEST CALLVALUE DUP1 ISZERO PUSH2 0x102 JUMPI PUSH0 DUP1 REVERT JUMPDEST POP PUSH2 0x11D PUSH1 0x4 DUP1 CALLDATASIZE SUB DUP2 ADD SWAP1 PUSH2 0x118 SWAP2 SWAP1 PUSH2 0x1148 JUMP JUMPDEST PUSH2 0x5B4 JUMP JUMPDEST PUSH1 0x40 MLOAD PUSH2 0x130 SWAP8 SWAP7 SWAP6 SWAP5 SWAP4 SWAP3 SWAP2 SWAP1 PUSH2 0x12D7 JUMP JUMPDEST PUSH1 0x40 MLOAD DUP1 SWAP2 SUB SWAP1 RETURN JUMPDEST CALLVALUE DUP1 ISZERO PUSH2 0x144 JUMPI PUSH0 DUP1 REVERT JUMPDEST POP PUSH2 0x15F PUSH1 0x4 DUP1 CALLDATASIZE SUB DUP2 ADD SWAP1 PUSH2 0x15A SWAP2 SWAP1 PUSH2 0x1148 JUMP JUMPDEST PUSH2 0x6B2 JUMP JUMPDEST PUSH1 0x40 MLOAD PUSH2 0x16C SWAP2 SWAP1 PUSH2 0x1182 JUMP JUMPDEST PUSH1 0x40 MLOAD DUP1 SWAP2 SUB SWAP1 RETURN JUMPDEST PUSH2 0x18F PUSH1 0x4 DUP1 CALLDATASIZE SUB DUP2 ADD SWAP1 PUSH2 0x18A SWAP2 SWAP1 PUSH2 0x1148 JUMP JUMPDEST PUSH2 0x6DE JUMP JUMPDEST STOP JUMPDEST CALLVALUE DUP1 ISZERO PUSH2 0x19C JUMPI PUSH0 DUP1 REVERT JUMPDEST POP PUSH2 0x1B7 PUSH1 0x4 DUP1 CALLDATASIZE SUB DUP2 ADD SWAP1 PUSH2 0x1B2 SWAP2 SWAP1 PUSH2 0x1477 JUMP JUMPDEST PUSH2 0xAC9 JUMP JUMPDEST PUSH1 0x40 MLOAD PUSH2 0x1C4 SWAP2 SWAP1 PUSH2 0x14D8 JUMP JUMPDEST PUSH1 0x40 MLOAD DUP1 SWAP2 SUB SWAP1 RETURN JUMPDEST CALLVALUE DUP1 ISZERO PUSH2 0x1D8 JUMPI PUSH0 DUP1 REVERT JUMPDEST POP PUSH2 0x1F3 PUSH1 0x4 DUP1 CALLDATASIZE SUB DUP2 ADD SWAP1 PUSH2 0x1EE SWAP2 SWAP1 PUSH2 0x14F1 JUMP JUMPDEST PUSH2 0xAFE JUMP JUMPDEST STOP JUMPDEST CALLVALUE DUP1 ISZERO PUSH2 0x200 JUMPI PUSH0 DUP1 REVERT JUMPDEST POP PUSH2 0x21B PUSH1 0x4 DUP1 CALLDATASIZE SUB DUP2 ADD SWAP1 PUSH2 0x216 SWAP2 SWAP1 PUSH2 0x1148 JUMP JUMPDEST PUSH2 0xDB2 JUMP JUMPDEST PUSH1 0x40 MLOAD PUSH2 0x22B SWAP5 SWAP4 SWAP3 SWAP2 SWAP1 PUSH2 0x157D JUMP JUMPDEST PUSH1 0x40 MLOAD DUP1 SWAP2 SUB SWAP1 RETURN JUMPDEST CALLER PUSH20 0xFFFFFFFFFFFFFFFFFFFFFFFFFFFFFFFFFFFFFFFF AND PUSH0 DUP1 SLOAD SWAP1 PUSH2 0x100 EXP SWAP1 DIV PUSH20 0xFFFFFFFFFFFFFFFFFFFFFFFFFFFFFFFFFFFFFFFF AND PUSH20 0xFFFFFFFFFFFFFFFFFFFFFFFFFFFFFFFFFFFFFFFF AND EQ PUSH2 0x2C1 JUMPI PUSH1 0x40 MLOAD PUSH32 0x8C379A000000000000000000000000000000000000000000000000000000000 DUP2 MSTORE PUSH1 0x4 ADD PUSH2 0x2B8 SWAP1 PUSH2 0x1630 JUMP JUMPDEST PUSH1 0x40 MLOAD DUP1 SWAP2 SUB SWAP1 REVERT JUMPDEST PUSH2 0x2CA DUP2 PUSH2 0xF70 JUMP JUMPDEST POP JUMP JUMPDEST CALLER PUSH20 0xFFFFFFFFFFFFFFFFFFFFFFFFFFFFFFFFFFFFFFFF AND PUSH0 DUP1 SLOAD SWAP1 PUSH2 0x100 EXP SWAP1 DIV PUSH20 0xFFFFFFFFFFFFFFFFFFFFFFFFFFFFFFFFFFFFFFFF AND PUSH20 0xFFFFFFFFFFFFFFFFFFFFFFFFFFFFFFFFFFFFFFFF AND EQ PUSH2 0x35A JUMPI PUSH1 0x40 MLOAD PUSH32 0x8C379A000000000000000000000000000000000000000000000000000000000 DUP2 MSTORE PUSH1 0x4 ADD PUSH2 0x351 SWAP1 PUSH2 0x1630 JUMP JUMPDEST PUSH1 0x40 MLOAD DUP1 SWAP2 SUB SWAP1 REVERT JUMPDEST DUP1 PUSH1 0x1 DUP1 SLOAD SWAP1 POP DUP2 LT PUSH2 0x3A2 JUMPI PUSH1 0x40 MLOAD PUSH32 0x8C379A000000000000000000000000000000000000000000000000000000000 DUP2 MSTORE PUSH1 0x4 ADD PUSH2 0x399 SWAP1 PUSH2 0x16BE JUMP JUMPDEST PUSH1 0x40 MLOAD DUP1 SWAP2 SUB SWAP1 REVERT JUMPDEST PUSH0 PUSH1 0x1 DUP4 DUP2 SLOAD DUP2 LT PUSH2 0x3B7 JUMPI PUSH2 0x3B6 PUSH2 0x16DC JUMP JUMPDEST JUMPDEST SWAP1 PUSH0 MSTORE PUSH1 0x20 PUSH0 KECCAK256 SWAP1 PUSH1 0x7 MUL ADD SWAP1 POP PUSH0 PUSH1 0x2 DUP2 GT ISZERO PUSH2 0x3D8 JUMPI PUSH2 0x3D7 PUSH2 0x1264 JUMP JUMPDEST JUMPDEST DUP2 PUSH1 0x6 ADD PUSH0 SWAP1 SLOAD SWAP1 PUSH2 0x100 EXP SWAP1 DIV PUSH1 0xFF AND PUSH1 0x2 DUP2 GT ISZERO PUSH2 0x3FB JUMPI PUSH2 0x3FA PUSH2 0x1264 JUMP JUMPDEST JUMPDEST SUB PUSH2 0x43B JUMPI PUSH1 0x40 MLOAD PUSH32 0x8C379A000000000000000000000000000000000000000000000000000000000 DUP2 MSTORE PUSH1 0x4 ADD PUSH2 0x432 SWAP1 PUSH2 0x1753 JUMP JUMPDEST PUSH1 0x40 MLOAD DUP1 SWAP2 SUB SWAP1 REVERT JUMPDEST PUSH1 0x2 DUP1 DUP2 GT ISZERO PUSH2 0x44E JUMPI PUSH2 0x44D PUSH2 0x1264 JUMP JUMPDEST JUMPDEST DUP2 PUSH1 0x6 ADD PUSH0 SWAP1 SLOAD SWAP1 PUSH2 0x100 EXP SWAP1 DIV PUSH1 0xFF AND PUSH1 0x2 DUP2 GT ISZERO PUSH2 0x471 JUMPI PUSH2 0x470 PUSH2 0x1264 JUMP JUMPDEST JUMPDEST SUB PUSH2 0x4B1 JUMPI PUSH1 0x40 MLOAD PUSH32 0x8C379A000000000000000000000000000000000000000000000000000000000 DUP2 MSTORE PUSH1 0x4 ADD PUSH2 0x4A8 SWAP1 PUSH2 0x17E1 JUMP JUMPDEST PUSH1 0x40 MLOAD DUP1 SWAP2 SUB SWAP1 REVERT JUMPDEST PUSH0 DUP2 PUSH1 0x2 ADD SLOAD SWAP1 POP PUSH0 DUP1 SLOAD SWAP1 PUSH2 0x100 EXP SWAP1 DIV PUSH20 0xFFFFFFFFFFFFFFFFFFFFFFFFFFFFFFFFFFFFFFFF AND PUSH20 0xFFFFFFFFFFFFFFFFFFFFFFFFFFFFFFFFFFFFFFFF AND PUSH2 0x8FC DUP3 SWAP1 DUP2 ISZERO MUL SWAP1 PUSH1 0x40 MLOAD PUSH0 PUSH1 0x40 MLOAD DUP1 DUP4 SUB DUP2 DUP6 DUP9 DUP9 CALL SWAP4 POP POP POP POP ISZERO DUP1 ISZERO PUSH2 0x51B JUMPI RETURNDATASIZE PUSH0 DUP1 RETURNDATACOPY RETURNDATASIZE PUSH0 REVERT JUMPDEST POP PUSH1 0x2 DUP3 PUSH1 0x6 ADD PUSH0 PUSH2 0x100 EXP DUP2 SLOAD DUP2 PUSH1 0xFF MUL NOT AND SWAP1 DUP4 PUSH1 0x2 DUP2 GT ISZERO PUSH2 0x543 JUMPI PUSH2 0x542 PUSH2 0x1264 JUMP JUMPDEST JUMPDEST MUL OR SWAP1 SSTORE POP PUSH32 0x997F26EE6E00428B7ECF9A9493036A5910A83FD47A598E6B0EC6CAD8FB59E30E DUP5 DUP3 PUSH0 DUP1 SLOAD SWAP1 PUSH2 0x100 EXP SWAP1 DIV PUSH20 0xFFFFFFFFFFFFFFFFFFFFFFFFFFFFFFFFFFFFFFFF AND PUSH1 0x40 MLOAD PUSH2 0x59A SWAP4 SWAP3 SWAP2 SWAP1 PUSH2 0x17FF JUMP JUMPDEST PUSH1 0x40 MLOAD DUP1 SWAP2 SUB SWAP1 LOG1 POP POP POP POP JUMP JUMPDEST PUSH0 PUSH1 0x1 DUP1 SLOAD SWAP1 POP SWAP1 POP SWAP1 JUMP JUMPDEST PUSH1 0x1 DUP2 DUP2 SLOAD DUP2 LT PUSH2 0x5C3 JUMPI PUSH0 DUP1 REVERT JUMPDEST SWAP1 PUSH0 MSTORE PUSH1 0x20 PUSH0 KECCAK256 SWAP1 PUSH1 0x7 MUL ADD PUSH0 SWAP2 POP SWAP1 POP DUP1 PUSH0 ADD DUP1 SLOAD PUSH2 0x5E2 SWAP1 PUSH2 0x1861 JUMP JUMPDEST DUP1 PUSH1 0x1F ADD PUSH1 0x20 DUP1 SWAP2 DIV MUL PUSH1 0x20 ADD PUSH1 0x40 MLOAD SWAP1 DUP2 ADD PUSH1 0x40 MSTORE DUP1 SWAP3 SWAP2 SWAP1 DUP2 DUP2 MSTORE PUSH1 0x20 ADD DUP3 DUP1 SLOAD PUSH2 0x60E SWAP1 PUSH2 0x1861 JUMP JUMPDEST DUP1 ISZERO PUSH2 0x659 JUMPI DUP1 PUSH1 0x1F LT PUSH2 0x630 JUMPI PUSH2 0x100 DUP1 DUP4 SLOAD DIV MUL DUP4 MSTORE SWAP2 PUSH1 0x20 ADD SWAP2 PUSH2 0x659 JUMP JUMPDEST DUP3 ADD SWAP2 SWAP1 PUSH0 MSTORE PUSH1 0x20 PUSH0 KECCAK256 SWAP1 JUMPDEST DUP2 SLOAD DUP2 MSTORE SWAP1 PUSH1 0x1 ADD SWAP1 PUSH1 0x20 ADD DUP1 DUP4 GT PUSH2 0x63C JUMPI DUP3 SWAP1 SUB PUSH1 0x1F AND DUP3 ADD SWAP2 JUMPDEST POP POP POP POP POP SWAP1 DUP1 PUSH1 0x1 ADD SLOAD SWAP1 DUP1 PUSH1 0x2 ADD SLOAD SWAP1 DUP1 PUSH1 0x3 ADD PUSH0 SWAP1 SLOAD SWAP1 PUSH2 0x100 EXP SWAP1 DIV PUSH20 0xFFFFFFFFFFFFFFFFFFFFFFFFFFFFFFFFFFFFFFFF AND SWAP1 DUP1 PUSH1 0x4 ADD SLOAD SWAP1 DUP1 PUSH1 0x5 ADD SLOAD SWAP1 DUP1 PUSH1 0x6 ADD PUSH0 SWAP1 SLOAD SWAP1 PUSH2 0x100 EXP SWAP1 DIV PUSH1 0xFF AND SWAP1 POP DUP8 JUMP JUMPDEST PUSH0 PUSH1 0x1 DUP3 DUP2 SLOAD DUP2 LT PUSH2 0x6C7 JUMPI PUSH2 0x6C6 PUSH2 0x16DC JUMP JUMPDEST JUMPDEST SWAP1 PUSH0 MSTORE PUSH1 0x20 PUSH0 KECCAK256 SWAP1 PUSH1 0x7 MUL ADD PUSH1 0x5 ADD SLOAD SWAP1 POP SWAP2 SWAP1 POP JUMP JUMPDEST DUP1 PUSH1 0x1 DUP1 SLOAD SWAP1 POP DUP2 LT PUSH2 0x726 JUMPI PUSH1 0x40 MLOAD PUSH32 0x8C379A000000000000000000000000000000000000000000000000000000000 DUP2 MSTORE PUSH1 0x4 ADD PUSH2 0x71D SWAP1 PUSH2 0x16BE JUMP JUMPDEST PUSH1 0x40 MLOAD DUP1 SWAP2 SUB SWAP1 REVERT JUMPDEST PUSH0 DUP1 SLOAD SWAP1 PUSH2 0x100 EXP SWAP1 DIV PUSH20 0xFFFFFFFFFFFFFFFFFFFFFFFFFFFFFFFFFFFFFFFF AND PUSH20 0xFFFFFFFFFFFFFFFFFFFFFFFFFFFFFFFFFFFFFFFF AND CALLER PUSH20 0xFFFFFFFFFFFFFFFFFFFFFFFFFFFFFFFFFFFFFFFF AND SUB PUSH2 0x7B3 JUMPI PUSH1 0x40 MLOAD PUSH32 0x8C379A000000000000000000000000000000000000000000000000000000000 DUP2 MSTORE PUSH1 0x4 ADD PUSH2 0x7AA SWAP1 PUSH2 0x18DB JUMP JUMPDEST PUSH1 0x40 MLOAD DUP1 SWAP2 SUB SWAP1 REVERT JUMPDEST DUP2 PUSH0 PUSH1 0x1 DUP3 DUP2 SLOAD DUP2 LT PUSH2 0x7C9 JUMPI PUSH2 0x7C8 PUSH2 0x16DC JUMP JUMPDEST JUMPDEST SWAP1 PUSH0 MSTORE PUSH1 0x20 PUSH0 KECCAK256 SWAP1 PUSH1 0x7 MUL ADD SWAP1 POP PUSH0 PUSH1 0x2 DUP2 GT ISZERO PUSH2 0x7EA JUMPI PUSH2 0x7E9 PUSH2 0x1264 JUMP JUMPDEST JUMPDEST DUP2 PUSH1 0x6 ADD PUSH0 SWAP1 SLOAD SWAP1 PUSH2 0x100 EXP SWAP1 DIV PUSH1 0xFF AND PUSH1 0x2 DUP2 GT ISZERO PUSH2 0x80D JUMPI PUSH2 0x80C PUSH2 0x1264 JUMP JUMPDEST JUMPDEST EQ DUP1 ISZERO PUSH2 0x81E JUMPI POP TIMESTAMP DUP2 PUSH1 0x4 ADD SLOAD GT ISZERO JUMPDEST ISZERO PUSH2 0x82D JUMPI PUSH2 0x82C DUP3 PUSH2 0xF70 JUMP JUMPDEST JUMPDEST PUSH0 PUSH1 0x2 DUP2 GT ISZERO PUSH2 0x840 JUMPI PUSH2 0x83F PUSH2 0x1264 JUMP JUMPDEST JUMPDEST DUP2 PUSH1 0x6 ADD PUSH0 SWAP1 SLOAD SWAP1 PUSH2 0x100 EXP SWAP1 DIV PUSH1 0xFF AND PUSH1 0x2 DUP2 GT ISZERO PUSH2 0x863 JUMPI PUSH2 0x862 PUSH2 0x1264 JUMP JUMPDEST JUMPDEST EQ PUSH2 0x8A3 JUMPI PUSH1 0x40 MLOAD PUSH32 0x8C379A000000000000000000000000000000000000000000000000000000000 DUP2 MSTORE PUSH1 0x4 ADD PUSH2 0x89A SWAP1 PUSH2 0x1943 JUMP JUMPDEST PUSH1 0x40 MLOAD DUP1 SWAP2 SUB SWAP1 REVERT JUMPDEST DUP4 PUSH0 PUSH1 0x1 DUP3 DUP2 SLOAD DUP2 LT PUSH2 0x8B9 JUMPI PUSH2 0x8B8 PUSH2 0x16DC JUMP JUMPDEST JUMPDEST SWAP1 PUSH0 MSTORE PUSH1 0x20 PUSH0 KECCAK256 SWAP1 PUSH1 0x7 MUL ADD SWAP1 POP DUP1 PUSH1 0x2 ADD SLOAD CALLVALUE GT PUSH2 0x90D JUMPI PUSH1 0x40 MLOAD PUSH32 0x8C379A000000000000000000000000000000000000000000000000000000000 DUP2 MSTORE PUSH1 0x4 ADD PUSH2 0x904 SWAP1 PUSH2 0x19D1 JUMP JUMPDEST PUSH1 0x40 MLOAD DUP1 SWAP2 SUB SWAP1 REVERT JUMPDEST DUP1 PUSH1 0x1 ADD SLOAD CALLVALUE GT PUSH2 0x953 JUMPI PUSH1 0x40 MLOAD PUSH32 0x8C379A000000000000000000000000000000000000000000000000000000000 DUP2 MSTORE PUSH1 0x4 ADD PUSH2 0x94A SWAP1 PUSH2 0x1A5F JUMP JUMPDEST PUSH1 0x40 MLOAD DUP1 SWAP2 SUB SWAP1 REVERT JUMPDEST PUSH0 PUSH1 0x1 DUP8 DUP2 SLOAD DUP2 LT PUSH2 0x968 JUMPI PUSH2 0x967 PUSH2 0x16DC JUMP JUMPDEST JUMPDEST SWAP1 PUSH0 MSTORE PUSH1 0x20 PUSH0 KECCAK256 SWAP1 PUSH1 0x7 MUL ADD SWAP1 POP PUSH0 DUP2 PUSH1 0x3 ADD PUSH0 SWAP1 SLOAD SWAP1 PUSH2 0x100 EXP SWAP1 DIV PUSH20 0xFFFFFFFFFFFFFFFFFFFFFFFFFFFFFFFFFFFFFFFF AND SWAP1 POP PUSH0 DUP3 PUSH1 0x2 ADD SLOAD SWAP1 POP PUSH0 PUSH20 0xFFFFFFFFFFFFFFFFFFFFFFFFFFFFFFFFFFFFFFFF AND DUP3 PUSH20 0xFFFFFFFFFFFFFFFFFFFFFFFFFFFFFFFFFFFFFFFF AND EQ PUSH2 0xA1D JUMPI DUP2 PUSH20 0xFFFFFFFFFFFFFFFFFFFFFFFFFFFFFFFFFFFFFFFF AND PUSH2 0x8FC DUP3 SWAP1 DUP2 ISZERO MUL SWAP1 PUSH1 0x40 MLOAD PUSH0 PUSH1 0x40 MLOAD DUP1 DUP4 SUB DUP2 DUP6 DUP9 DUP9 CALL SWAP4 POP POP POP POP ISZERO DUP1 ISZERO PUSH2 0xA1B JUMPI RETURNDATASIZE PUSH0 DUP1 RETURNDATACOPY RETURNDATASIZE PUSH0 REVERT JUMPDEST POP JUMPDEST CALLVALUE DUP4 PUSH1 0x2 ADD DUP2 SWAP1 SSTORE POP CALLER DUP4 PUSH1 0x3 ADD PUSH0 PUSH2 0x100 EXP DUP2 SLOAD DUP2 PUSH20 0xFFFFFFFFFFFFFFFFFFFFFFFFFFFFFFFFFFFFFFFF MUL NOT AND SWAP1 DUP4 PUSH20 0xFFFFFFFFFFFFFFFFFFFFFFFFFFFFFFFFFFFFFFFF AND MUL OR SWAP1 SSTORE POP PUSH1 0x1 DUP4 PUSH1 0x5 ADD PUSH0 DUP3 DUP3 SLOAD PUSH2 0xA7C SWAP2 SWAP1 PUSH2 0x1AAA JUMP JUMPDEST SWAP3 POP POP DUP2 SWAP1 SSTORE POP PUSH32 0x2F2317489EB3B025DA5521EA9C4A7BD075188F0B72C209B7D7A29FF80E7B6220 DUP10 CALLVALUE CALLER PUSH1 0x40 MLOAD PUSH2 0xAB6 SWAP4 SWAP3 SWAP2 SWAP1 PUSH2 0x17FF JUMP JUMPDEST PUSH1 0x40 MLOAD DUP1 SWAP2 SUB SWAP1 LOG1 POP POP POP POP POP POP POP POP POP JUMP JUMPDEST PUSH1 0x2 DUP2 DUP1 MLOAD PUSH1 0x20 DUP2 ADD DUP3 ADD DUP1 MLOAD DUP5 DUP3 MSTORE PUSH1 0x20 DUP4 ADD PUSH1 0x20 DUP6 ADD KECCAK256 DUP2 DUP4 MSTORE DUP1 SWAP6 POP POP POP POP POP POP PUSH0 SWAP2 POP SLOAD SWAP1 PUSH2 0x100 EXP SWAP1 DIV PUSH1 0xFF AND DUP2 JUMP JUMPDEST CALLER PUSH20 0xFFFFFFFFFFFFFFFFFFFFFFFFFFFFFFFFFFFFFFFF AND PUSH0 DUP1 SLOAD SWAP1 PUSH2 0x100 EXP SWAP1 DIV PUSH20 0xFFFFFFFFFFFFFFFFFFFFFFFFFFFFFFFFFFFFFFFF AND PUSH20 0xFFFFFFFFFFFFFFFFFFFFFFFFFFFFFFFFFFFFFFFF AND EQ PUSH2 0xB8B JUMPI PUSH1 0x40 MLOAD PUSH32 0x8C379A000000000000000000000000000000000000000000000000000000000 DUP2 MSTORE PUSH1 0x4 ADD PUSH2 0xB82 SWAP1 PUSH2 0x1630 JUMP JUMPDEST PUSH1 0x40 MLOAD DUP1 SWAP2 SUB SWAP1 REVERT JUMPDEST DUP3 PUSH1 0x2 DUP2 PUSH1 0x40 MLOAD PUSH2 0xB9C SWAP2 SWAP1 PUSH2 0x1B17 JUMP JUMPDEST SWAP1 DUP2 MSTORE PUSH1 0x20 ADD PUSH1 0x40 MLOAD DUP1 SWAP2 SUB SWAP1 KECCAK256 PUSH0 SWAP1 SLOAD SWAP1 PUSH2 0x100 EXP SWAP1 DIV PUSH1 0xFF AND ISZERO PUSH2 0xBF7 JUMPI PUSH1 0x40 MLOAD PUSH32 0x8C379A000000000000000000000000000000000000000000000000000000000 DUP2 MSTORE PUSH1 0x4 ADD PUSH2 0xBEE SWAP1 PUSH2 0x1B77 JUMP JUMPDEST PUSH1 0x40 MLOAD DUP1 SWAP2 SUB SWAP1 REVERT JUMPDEST PUSH0 DUP3 TIMESTAMP PUSH2 0xC04 SWAP2 SWAP1 PUSH2 0x1AAA JUMP JUMPDEST SWAP1 POP PUSH1 0x1 PUSH1 0x40 MLOAD DUP1 PUSH1 0xE0 ADD PUSH1 0x40 MSTORE DUP1 DUP8 DUP2 MSTORE PUSH1 0x20 ADD DUP7 DUP2 MSTORE PUSH1 0x20 ADD PUSH0 DUP2 MSTORE PUSH1 0x20 ADD PUSH0 PUSH20 0xFFFFFFFFFFFFFFFFFFFFFFFFFFFFFFFFFFFFFFFF AND DUP2 MSTORE PUSH1 0x20 ADD DUP4 DUP2 MSTORE PUSH1 0x20 ADD PUSH0 DUP2 MSTORE PUSH1 0x20 ADD PUSH0 PUSH1 0x2 DUP2 GT ISZERO PUSH2 0xC60 JUMPI PUSH2 0xC5F PUSH2 0x1264 JUMP JUMPDEST JUMPDEST DUP2 MSTORE POP SWAP1 DUP1 PUSH1 0x1 DUP2 SLOAD ADD DUP1 DUP3 SSTORE DUP1 SWAP2 POP POP PUSH1 0x1 SWAP1 SUB SWAP1 PUSH0 MSTORE PUSH1 0x20 PUSH0 KECCAK256 SWAP1 PUSH1 0x7 MUL ADD PUSH0 SWAP1 SWAP2 SWAP1 SWAP2 SWAP1 SWAP2 POP PUSH0 DUP3 ADD MLOAD DUP2 PUSH0 ADD SWAP1 DUP2 PUSH2 0xC9C SWAP2 SWAP1 PUSH2 0x1D32 JUMP JUMPDEST POP PUSH1 0x20 DUP3 ADD MLOAD DUP2 PUSH1 0x1 ADD SSTORE PUSH1 0x40 DUP3 ADD MLOAD DUP2 PUSH1 0x2 ADD SSTORE PUSH1 0x60 DUP3 ADD MLOAD DUP2 PUSH1 0x3 ADD PUSH0 PUSH2 0x100 EXP DUP2 SLOAD DUP2 PUSH20 0xFFFFFFFFFFFFFFFFFFFFFFFFFFFFFFFFFFFFFFFF MUL NOT AND SWAP1 DUP4 PUSH20 0xFFFFFFFFFFFFFFFFFFFFFFFFFFFFFFFFFFFFFFFF AND MUL OR SWAP1 SSTORE POP PUSH1 0x80 DUP3 ADD MLOAD DUP2 PUSH1 0x4 ADD SSTORE PUSH1 0xA0 DUP3 ADD MLOAD DUP2 PUSH1 0x5 ADD SSTORE PUSH1 0xC0 DUP3 ADD MLOAD DUP2 PUSH1 0x6 ADD PUSH0 PUSH2 0x100 EXP DUP2 SLOAD DUP2 PUSH1 0xFF MUL NOT AND SWAP1 DUP4 PUSH1 0x2 DUP2 GT ISZERO PUSH2 0xD35 JUMPI PUSH2 0xD34 PUSH2 0x1264 JUMP JUMPDEST JUMPDEST MUL OR SWAP1 SSTORE POP POP POP PUSH1 0x1 PUSH1 0x2 DUP7 PUSH1 0x40 MLOAD PUSH2 0xD4E SWAP2 SWAP1 PUSH2 0x1B17 JUMP JUMPDEST SWAP1 DUP2 MSTORE PUSH1 0x20 ADD PUSH1 0x40 MLOAD DUP1 SWAP2 SUB SWAP1 KECCAK256 PUSH0 PUSH2 0x100 EXP DUP2 SLOAD DUP2 PUSH1 0xFF MUL NOT AND SWAP1 DUP4 ISZERO ISZERO MUL OR SWAP1 SSTORE POP PUSH32 0x411F4DA18FED49D65F216AABBD840C349D443C68068DA6F337005FAF5E31B326 DUP6 DUP6 PUSH1 0x40 MLOAD PUSH2 0xDA3 SWAP3 SWAP2 SWAP1 PUSH2 0x1E01 JUMP JUMPDEST PUSH1 0x40 MLOAD DUP1 SWAP2 SUB SWAP1 LOG1 POP POP POP POP POP JUMP JUMPDEST PUSH0 DUP1 PUSH0 DUP1 PUSH0 PUSH1 0x1 DUP7 DUP2 SLOAD DUP2 LT PUSH2 0xDCB JUMPI PUSH2 0xDCA PUSH2 0x16DC JUMP JUMPDEST JUMPDEST SWAP1 PUSH0 MSTORE PUSH1 0x20 PUSH0 KECCAK256 SWAP1 PUSH1 0x7 MUL ADD PUSH1 0x40 MLOAD DUP1 PUSH1 0xE0 ADD PUSH1 0x40 MSTORE SWAP1 DUP2 PUSH0 DUP3 ADD DUP1 SLOAD PUSH2 0xDF1 SWAP1 PUSH2 0x1861 JUMP JUMPDEST DUP1 PUSH1 0x1F ADD PUSH1 0x20 DUP1 SWAP2 DIV MUL PUSH1 0x20 ADD PUSH1 0x40 MLOAD SWAP1 DUP2 ADD PUSH1 0x40 MSTORE DUP1 SWAP3 SWAP2 SWAP1 DUP2 DUP2 MSTORE PUSH1 0x20 ADD DUP3 DUP1 SLOAD PUSH2 0xE1D SWAP1 PUSH2 0x1861 JUMP JUMPDEST DUP1 ISZERO PUSH2 0xE68 JUMPI DUP1 PUSH1 0x1F LT PUSH2 0xE3F JUMPI PUSH2 0x100 DUP1 DUP4 SLOAD DIV MUL DUP4 MSTORE SWAP2 PUSH1 0x20 ADD SWAP2 PUSH2 0xE68 JUMP JUMPDEST DUP3 ADD SWAP2 SWAP1 PUSH0 MSTORE PUSH1 0x20 PUSH0 KECCAK256 SWAP1 JUMPDEST DUP2 SLOAD DUP2 MSTORE SWAP1 PUSH1 0x1 ADD SWAP1 PUSH1 0x20 ADD DUP1 DUP4 GT PUSH2 0xE4B JUMPI DUP3 SWAP1 SUB PUSH1 0x1F AND DUP3 ADD SWAP2 JUMPDEST POP POP POP POP POP DUP2 MSTORE PUSH1 0x20 ADD PUSH1 0x1 DUP3 ADD SLOAD DUP2 MSTORE PUSH1 0x20 ADD PUSH1 0x2 DUP3 ADD SLOAD DUP2 MSTORE PUSH1 0x20 ADD PUSH1 0x3 DUP3 ADD PUSH0 SWAP1 SLOAD SWAP1 PUSH2 0x100 EXP SWAP1 DIV PUSH20 0xFFFFFFFFFFFFFFFFFFFFFFFFFFFFFFFFFFFFFFFF AND PUSH20 0xFFFFFFFFFFFFFFFFFFFFFFFFFFFFFFFFFFFFFFFF AND PUSH20 0xFFFFFFFFFFFFFFFFFFFFFFFFFFFFFFFFFFFFFFFF AND DUP2 MSTORE PUSH1 0x20 ADD PUSH1 0x4 DUP3 ADD SLOAD DUP2 MSTORE PUSH1 0x20 ADD PUSH1 0x5 DUP3 ADD SLOAD DUP2 MSTORE PUSH1 0x20 ADD PUSH1 0x6 DUP3 ADD PUSH0 SWAP1 SLOAD SWAP1 PUSH2 0x100 EXP SWAP1 DIV PUSH1 0xFF AND PUSH1 0x2 DUP2 GT ISZERO PUSH2 0xF12 JUMPI PUSH2 0xF11 PUSH2 0x1264 JUMP JUMPDEST JUMPDEST PUSH1 0x2 DUP2 GT ISZERO PUSH2 0xF24 JUMPI PUSH2 0xF23 PUSH2 0x1264 JUMP JUMPDEST JUMPDEST DUP2 MSTORE POP POP SWAP1 POP PUSH0 TIMESTAMP DUP3 PUSH1 0x80 ADD MLOAD GT PUSH2 0xF3C JUMPI PUSH0 PUSH2 0xF4D JUMP JUMPDEST TIMESTAMP DUP3 PUSH1 0x80 ADD MLOAD PUSH2 0xF4C SWAP2 SWAP1 PUSH2 0x1E2F JUMP JUMPDEST JUMPDEST SWAP1 POP DUP2 PUSH1 0x60 ADD MLOAD DUP3 PUSH1 0x40 ADD MLOAD DUP3 DUP5 PUSH1 0xC0 ADD MLOAD SWAP6 POP SWAP6 POP SWAP6 POP SWAP6 POP POP POP SWAP2 SWAP4 POP SWAP2 SWAP4 JUMP JUMPDEST DUP1 PUSH1 0x1 DUP1 SLOAD SWAP1 POP DUP2 LT PUSH2 0xFB8 JUMPI PUSH1 0x40 MLOAD PUSH32 0x8C379A000000000000000000000000000000000000000000000000000000000 DUP2 MSTORE PUSH1 0x4 ADD PUSH2 0xFAF SWAP1 PUSH2 0x16BE JUMP JUMPDEST PUSH1 0x40 MLOAD DUP1 SWAP2 SUB SWAP1 REVERT JUMPDEST PUSH0 PUSH1 0x1 DUP4 DUP2 SLOAD DUP2 LT PUSH2 0xFCD JUMPI PUSH2 0xFCC PUSH2 0x16DC JUMP JUMPDEST JUMPDEST SWAP1 PUSH0 MSTORE PUSH1 0x20 PUSH0 KECCAK256 SWAP1 PUSH1 0x7 MUL ADD SWAP1 POP PUSH1 0x1 DUP2 PUSH1 0x6 ADD PUSH0 PUSH2 0x100 EXP DUP2 SLOAD DUP2 PUSH1 0xFF MUL NOT AND SWAP1 DUP4 PUSH1 0x2 DUP2 GT ISZERO PUSH2 0x1002 JUMPI PUSH2 0x1001 PUSH2 0x1264 JUMP JUMPDEST JUMPDEST MUL OR SWAP1 SSTORE POP PUSH0 DUP2 PUSH0 ADD DUP1 SLOAD PUSH2 0x1016 SWAP1 PUSH2 0x1861 JUMP JUMPDEST DUP1 PUSH1 0x1F ADD PUSH1 0x20 DUP1 SWAP2 DIV MUL PUSH1 0x20 ADD PUSH1 0x40 MLOAD SWAP1 DUP2 ADD PUSH1 0x40 MSTORE DUP1 SWAP3 SWAP2 SWAP1 DUP2 DUP2 MSTORE PUSH1 0x20 ADD DUP3 DUP1 SLOAD PUSH2 0x1042 SWAP1 PUSH2 0x1861 JUMP JUMPDEST DUP1 ISZERO PUSH2 0x108D JUMPI DUP1 PUSH1 0x1F LT PUSH2 0x1064 JUMPI PUSH2 0x100 DUP1 DUP4 SLOAD DIV MUL DUP4 MSTORE SWAP2 PUSH1 0x20 ADD SWAP2 PUSH2 0x108D JUMP JUMPDEST DUP3 ADD SWAP2 SWAP1 PUSH0 MSTORE PUSH1 0x20 PUSH0 KECCAK256 SWAP1 JUMPDEST DUP2 SLOAD DUP2 MSTORE SWAP1 PUSH1 0x1 ADD SWAP1 PUSH1 0x20 ADD DUP1 DUP4 GT PUSH2 0x1070 JUMPI DUP3 SWAP1 SUB PUSH1 0x1F AND DUP3 ADD SWAP2 JUMPDEST POP POP POP POP POP SWAP1 POP PUSH32 0x6A4FC6478F4A93574FCDD50AB147277A7BE5C6E0D8287DEC5D285FE8E39C51C6 DUP2 PUSH1 0x1 DUP7 DUP2 SLOAD DUP2 LT PUSH2 0x10CA JUMPI PUSH2 0x10C9 PUSH2 0x16DC JUMP JUMPDEST JUMPDEST SWAP1 PUSH0 MSTORE PUSH1 0x20 PUSH0 KECCAK256 SWAP1 PUSH1 0x7 MUL ADD PUSH1 0x6 ADD PUSH0 SWAP1 SLOAD SWAP1 PUSH2 0x100 EXP SWAP1 DIV PUSH1 0xFF AND DUP7 PUSH1 0x40 MLOAD PUSH2 0x10F6 SWAP4 SWAP3 SWAP2 SWAP1 PUSH2 0x1E62 JUMP JUMPDEST PUSH1 0x40 MLOAD DUP1 SWAP2 SUB SWAP1 LOG1 POP POP POP POP JUMP JUMPDEST PUSH0 PUSH1 0x40 MLOAD SWAP1 POP SWAP1 JUMP JUMPDEST PUSH0 DUP1 REVERT JUMPDEST PUSH0 DUP1 REVERT JUMPDEST PUSH0 DUP2 SWAP1 POP SWAP2 SWAP1 POP JUMP JUMPDEST PUSH2 0x1127 DUP2 PUSH2 0x1115 JUMP JUMPDEST DUP2 EQ PUSH2 0x1131 JUMPI PUSH0 DUP1 REVERT JUMPDEST POP JUMP JUMPDEST PUSH0 DUP2 CALLDATALOAD SWAP1 POP PUSH2 0x1142 DUP2 PUSH2 0x111E JUMP JUMPDEST SWAP3 SWAP2 POP POP JUMP JUMPDEST PUSH0 PUSH1 0x20 DUP3 DUP5 SUB SLT ISZERO PUSH2 0x115D JUMPI PUSH2 0x115C PUSH2 0x110D JUMP JUMPDEST JUMPDEST PUSH0 PUSH2 0x116A DUP5 DUP3 DUP6 ADD PUSH2 0x1134 JUMP JUMPDEST SWAP2 POP POP SWAP3 SWAP2 POP POP JUMP JUMPDEST PUSH2 0x117C DUP2 PUSH2 0x1115 JUMP JUMPDEST DUP3 MSTORE POP POP JUMP JUMPDEST PUSH0 PUSH1 0x20 DUP3 ADD SWAP1 POP PUSH2 0x1195 PUSH0 DUP4 ADD DUP5 PUSH2 0x1173 JUMP JUMPDEST SWAP3 SWAP2 POP POP JUMP JUMPDEST PUSH0 DUP2 MLOAD SWAP1 POP SWAP2 SWAP1 POP JUMP JUMPDEST PUSH0 DUP3 DUP3 MSTORE PUSH1 0x20 DUP3 ADD SWAP1 POP SWAP3 SWAP2 POP POP JUMP JUMPDEST PUSH0 JUMPDEST DUP4 DUP2 LT ISZERO PUSH2 0x11D2 JUMPI DUP1 DUP3 ADD MLOAD DUP2 DUP5 ADD MSTORE PUSH1 0x20 DUP2 ADD SWAP1 POP PUSH2 0x11B7 JUMP JUMPDEST PUSH0 DUP5 DUP5 ADD MSTORE POP POP POP POP JUMP JUMPDEST PUSH0 PUSH1 0x1F NOT PUSH1 0x1F DUP4 ADD AND SWAP1 POP SWAP2 SWAP1 POP JUMP JUMPDEST PUSH0 PUSH2 0x11F7 DUP3 PUSH2 0x119B JUMP JUMPDEST PUSH2 0x1201 DUP2 DUP6 PUSH2 0x11A5 JUMP JUMPDEST SWAP4 POP PUSH2 0x1211 DUP2 DUP6 PUSH1 0x20 DUP7 ADD PUSH2 0x11B5 JUMP JUMPDEST PUSH2 0x121A DUP2 PUSH2 0x11DD JUMP JUMPDEST DUP5 ADD SWAP2 POP POP SWAP3 SWAP2 POP POP JUMP JUMPDEST PUSH0 PUSH20 0xFFFFFFFFFFFFFFFFFFFFFFFFFFFFFFFFFFFFFFFF DUP3 AND SWAP1 POP SWAP2 SWAP1 POP JUMP JUMPDEST PUSH0 PUSH2 0x124E DUP3 PUSH2 0x1225 JUMP JUMPDEST SWAP1 POP SWAP2 SWAP1 POP JUMP JUMPDEST PUSH2 0x125E DUP2 PUSH2 0x1244 JUMP JUMPDEST DUP3 MSTORE POP POP JUMP JUMPDEST PUSH32 0x4E487B7100000000000000000000000000000000000000000000000000000000 PUSH0 MSTORE PUSH1 0x21 PUSH1 0x4 MSTORE PUSH1 0x24 PUSH0 REVERT JUMPDEST PUSH1 0x3 DUP2 LT PUSH2 0x12A2 JUMPI PUSH2 0x12A1 PUSH2 0x1264 JUMP JUMPDEST JUMPDEST POP JUMP JUMPDEST PUSH0 DUP2 SWAP1 POP PUSH2 0x12B2 DUP3 PUSH2 0x1291 JUMP JUMPDEST SWAP2 SWAP1 POP JUMP JUMPDEST PUSH0 PUSH2 0x12C1 DUP3 PUSH2 0x12A5 JUMP JUMPDEST SWAP1 POP SWAP2 SWAP1 POP JUMP JUMPDEST PUSH2 0x12D1 DUP2 PUSH2 0x12B7 JUMP JUMPDEST DUP3 MSTORE POP POP JUMP JUMPDEST PUSH0 PUSH1 0xE0 DUP3 ADD SWAP1 POP DUP2 DUP2 SUB PUSH0 DUP4 ADD MSTORE PUSH2 0x12EF DUP2 DUP11 PUSH2 0x11ED JUMP JUMPDEST SWAP1 POP PUSH2 0x12FE PUSH1 0x20 DUP4 ADD DUP10 PUSH2 0x1173 JUMP JUMPDEST PUSH2 0x130B PUSH1 0x40 DUP4 ADD DUP9 PUSH2 0x1173 JUMP JUMPDEST PUSH2 0x1318 PUSH1 0x60 DUP4 ADD DUP8 PUSH2 0x1255 JUMP JUMPDEST PUSH2 0x1325 PUSH1 0x80 DUP4 ADD DUP7 PUSH2 0x1173 JUMP JUMPDEST PUSH2 0x1332 PUSH1 0xA0 DUP4 ADD DUP6 PUSH2 0x1173 JUMP JUMPDEST PUSH2 0x133F PUSH1 0xC0 DUP4 ADD DUP5 PUSH2 0x12C8 JUMP JUMPDEST SWAP9 SWAP8 POP POP POP POP POP POP POP POP JUMP JUMPDEST PUSH0 DUP1 REVERT JUMPDEST PUSH0 DUP1 REVERT JUMPDEST PUSH32 0x4E487B7100000000000000000000000000000000000000000000000000000000 PUSH0 MSTORE PUSH1 0x41 PUSH1 0x4 MSTORE PUSH1 0x24 PUSH0 REVERT JUMPDEST PUSH2 0x1389 DUP3 PUSH2 0x11DD JUMP JUMPDEST DUP2 ADD DUP2 DUP2 LT PUSH8 0xFFFFFFFFFFFFFFFF DUP3 GT OR ISZERO PUSH2 0x13A8 JUMPI PUSH2 0x13A7 PUSH2 0x1353 JUMP JUMPDEST JUMPDEST DUP1 PUSH1 0x40 MSTORE POP POP POP JUMP JUMPDEST PUSH0 PUSH2 0x13BA PUSH2 0x1104 JUMP JUMPDEST SWAP1 POP PUSH2 0x13C6 DUP3 DUP3 PUSH2 0x1380 JUMP JUMPDEST SWAP2 SWAP1 POP JUMP JUMPDEST PUSH0 PUSH8 0xFFFFFFFFFFFFFFFF DUP3 GT ISZERO PUSH2 0x13E5 JUMPI PUSH2 0x13E4 PUSH2 0x1353 JUMP JUMPDEST JUMPDEST PUSH2 0x13EE DUP3 PUSH2 0x11DD JUMP JUMPDEST SWAP1 POP PUSH1 0x20 DUP2 ADD SWAP1 POP SWAP2 SWAP1 POP JUMP JUMPDEST DUP3 DUP2 DUP4 CALLDATACOPY PUSH0 DUP4 DUP4 ADD MSTORE POP POP POP JUMP JUMPDEST PUSH0 PUSH2 0x141B PUSH2 0x1416 DUP5 PUSH2 0x13CB JUMP JUMPDEST PUSH2 0x13B1 JUMP JUMPDEST SWAP1 POP DUP3 DUP2 MSTORE PUSH1 0x20 DUP2 ADD DUP5 DUP5 DUP5 ADD GT ISZERO PUSH2 0x1437 JUMPI PUSH2 0x1436 PUSH2 0x134F JUMP JUMPDEST JUMPDEST PUSH2 0x1442 DUP5 DUP3 DUP6 PUSH2 0x13FB JUMP JUMPDEST POP SWAP4 SWAP3 POP POP POP JUMP JUMPDEST PUSH0 DUP3 PUSH1 0x1F DUP4 ADD SLT PUSH2 0x145E JUMPI PUSH2 0x145D PUSH2 0x134B JUMP JUMPDEST JUMPDEST DUP2 CALLDATALOAD PUSH2 0x146E DUP5 DUP3 PUSH1 0x20 DUP7 ADD PUSH2 0x1409 JUMP JUMPDEST SWAP2 POP POP SWAP3 SWAP2 POP POP JUMP JUMPDEST PUSH0 PUSH1 0x20 DUP3 DUP5 SUB SLT ISZERO PUSH2 0x148C JUMPI PUSH2 0x148B PUSH2 0x110D JUMP JUMPDEST JUMPDEST PUSH0 DUP3 ADD CALLDATALOAD PUSH8 0xFFFFFFFFFFFFFFFF DUP2 GT ISZERO PUSH2 0x14A9 JUMPI PUSH2 0x14A8 PUSH2 0x1111 JUMP JUMPDEST JUMPDEST PUSH2 0x14B5 DUP5 DUP3 DUP6 ADD PUSH2 0x144A JUMP JUMPDEST SWAP2 POP POP SWAP3 SWAP2 POP POP JUMP JUMPDEST PUSH0 DUP2 ISZERO ISZERO SWAP1 POP SWAP2 SWAP1 POP JUMP JUMPDEST PUSH2 0x14D2 DUP2 PUSH2 0x14BE JUMP JUMPDEST DUP3 MSTORE POP POP JUMP JUMPDEST PUSH0 PUSH1 0x20 DUP3 ADD SWAP1 POP PUSH2 0x14EB PUSH0 DUP4 ADD DUP5 PUSH2 0x14C9 JUMP JUMPDEST SWAP3 SWAP2 POP POP JUMP JUMPDEST PUSH0 DUP1 PUSH0 PUSH1 0x60 DUP5 DUP7 SUB SLT ISZERO PUSH2 0x1508 JUMPI PUSH2 0x1507 PUSH2 0x110D JUMP JUMPDEST JUMPDEST PUSH0 DUP5 ADD CALLDATALOAD PUSH8 0xFFFFFFFFFFFFFFFF DUP2 GT ISZERO PUSH2 0x1525 JUMPI PUSH2 0x1524 PUSH2 0x1111 JUMP JUMPDEST JUMPDEST PUSH2 0x1531 DUP7 DUP3 DUP8 ADD PUSH2 0x144A JUMP JUMPDEST SWAP4 POP POP PUSH1 0x20 PUSH2 0x1542 DUP7 DUP3 DUP8 ADD PUSH2 0x1134 JUMP JUMPDEST SWAP3 POP POP PUSH1 0x40 PUSH2 0x1553 DUP7 DUP3 DUP8 ADD PUSH2 0x1134 JUMP JUMPDEST SWAP2 POP POP SWAP3 POP SWAP3 POP SWAP3 JUMP JUMPDEST PUSH0 PUSH2 0x1567 DUP3 PUSH2 0x1225 JUMP JUMPDEST SWAP1 POP SWAP2 SWAP1 POP JUMP JUMPDEST PUSH2 0x1577 DUP2 PUSH2 0x155D JUMP JUMPDEST DUP3 MSTORE POP POP JUMP JUMPDEST PUSH0 PUSH1 0x80 DUP3 ADD SWAP1 POP PUSH2 0x1590 PUSH0 DUP4 ADD DUP8 PUSH2 0x156E JUMP JUMPDEST PUSH2 0x159D PUSH1 0x20 DUP4 ADD DUP7 PUSH2 0x1173 JUMP JUMPDEST PUSH2 0x15AA PUSH1 0x40 DUP4 ADD DUP6 PUSH2 0x1173 JUMP JUMPDEST PUSH2 0x15B7 PUSH1 0x60 DUP4 ADD DUP5 PUSH2 0x12C8 JUMP JUMPDEST SWAP6 SWAP5 POP POP POP POP POP JUMP JUMPDEST PUSH32 0x4F6E6C7920746865206F776E65722063616E2063726561746520616E20617563 PUSH0 DUP3 ADD MSTORE PUSH32 0x74696F6E2E000000000000000000000000000000000000000000000000000000 PUSH1 0x20 DUP3 ADD MSTORE POP JUMP JUMPDEST PUSH0 PUSH2 0x161A PUSH1 0x25 DUP4 PUSH2 0x11A5 JUMP JUMPDEST SWAP2 POP PUSH2 0x1625 DUP3 PUSH2 0x15C0 JUMP JUMPDEST PUSH1 0x40 DUP3 ADD SWAP1 POP SWAP2 SWAP1 POP JUMP JUMPDEST PUSH0 PUSH1 0x20 DUP3 ADD SWAP1 POP DUP2 DUP2 SUB PUSH0 DUP4 ADD MSTORE PUSH2 0x1647 DUP2 PUSH2 0x160E JUMP JUMPDEST SWAP1 POP SWAP2 SWAP1 POP JUMP JUMPDEST PUSH32 0x5468697320494420646F6573206E6F74206D6174636820616E79206372656174 PUSH0 DUP3 ADD MSTORE PUSH32 0x65642061756374696F6E2E000000000000000000000000000000000000000000 PUSH1 0x20 DUP3 ADD MSTORE POP JUMP JUMPDEST PUSH0 PUSH2 0x16A8 PUSH1 0x2B DUP4 PUSH2 0x11A5 JUMP JUMPDEST SWAP2 POP PUSH2 0x16B3 DUP3 PUSH2 0x164E JUMP JUMPDEST PUSH1 0x40 DUP3 ADD SWAP1 POP SWAP2 SWAP1 POP JUMP JUMPDEST PUSH0 PUSH1 0x20 DUP3 ADD SWAP1 POP DUP2 DUP2 SUB PUSH0 DUP4 ADD MSTORE PUSH2 0x16D5 DUP2 PUSH2 0x169C JUMP JUMPDEST SWAP1 POP SWAP2 SWAP1 POP JUMP JUMPDEST PUSH32 0x4E487B7100000000000000000000000000000000000000000000000000000000 PUSH0 MSTORE PUSH1 0x32 PUSH1 0x4 MSTORE PUSH1 0x24 PUSH0 REVERT JUMPDEST PUSH32 0x546869732061756374696F6E206973206E6F7420636C6F736564207965742E00 PUSH0 DUP3 ADD MSTORE POP JUMP JUMPDEST PUSH0 PUSH2 0x173D PUSH1 0x1F DUP4 PUSH2 0x11A5 JUMP JUMPDEST SWAP2 POP PUSH2 0x1748 DUP3 PUSH2 0x1709 JUMP JUMPDEST PUSH1 0x20 DUP3 ADD SWAP1 POP SWAP2 SWAP1 POP JUMP JUMPDEST PUSH0 PUSH1 0x20 DUP3 ADD SWAP1 POP DUP2 DUP2 SUB PUSH0 DUP4 ADD MSTORE PUSH2 0x176A DUP2 PUSH2 0x1731 JUMP JUMPDEST SWAP1 POP SWAP2 SWAP1 POP JUMP JUMPDEST PUSH32 0x546869732061756374696F6E2069732070617965642C2063616E277420626520 PUSH0 DUP3 ADD MSTORE PUSH32 0x647261776E20616E796D6F72652E000000000000000000000000000000000000 PUSH1 0x20 DUP3 ADD MSTORE POP JUMP JUMPDEST PUSH0 PUSH2 0x17CB PUSH1 0x2E DUP4 PUSH2 0x11A5 JUMP JUMPDEST SWAP2 POP PUSH2 0x17D6 DUP3 PUSH2 0x1771 JUMP JUMPDEST PUSH1 0x40 DUP3 ADD SWAP1 POP SWAP2 SWAP1 POP JUMP JUMPDEST PUSH0 PUSH1 0x20 DUP3 ADD SWAP1 POP DUP2 DUP2 SUB PUSH0 DUP4 ADD MSTORE PUSH2 0x17F8 DUP2 PUSH2 0x17BF JUMP JUMPDEST SWAP1 POP SWAP2 SWAP1 POP JUMP JUMPDEST PUSH0 PUSH1 0x60 DUP3 ADD SWAP1 POP PUSH2 0x1812 PUSH0 DUP4 ADD DUP7 PUSH2 0x1173 JUMP JUMPDEST PUSH2 0x181F PUSH1 0x20 DUP4 ADD DUP6 PUSH2 0x1173 JUMP JUMPDEST PUSH2 0x182C PUSH1 0x40 DUP4 ADD DUP5 PUSH2 0x156E JUMP JUMPDEST SWAP5 SWAP4 POP POP POP POP JUMP JUMPDEST PUSH32 0x4E487B7100000000000000000000000000000000000000000000000000000000 PUSH0 MSTORE PUSH1 0x22 PUSH1 0x4 MSTORE PUSH1 0x24 PUSH0 REVERT JUMPDEST PUSH0 PUSH1 0x2 DUP3 DIV SWAP1 POP PUSH1 0x1 DUP3 AND DUP1 PUSH2 0x1878 JUMPI PUSH1 0x7F DUP3 AND SWAP2 POP JUMPDEST PUSH1 0x20 DUP3 LT DUP2 SUB PUSH2 0x188B JUMPI PUSH2 0x188A PUSH2 0x1834 JUMP JUMPDEST JUMPDEST POP SWAP2 SWAP1 POP JUMP JUMPDEST PUSH32 0x4F776E65722063616E6E6F742062696400000000000000000000000000000000 PUSH0 DUP3 ADD MSTORE POP JUMP JUMPDEST PUSH0 PUSH2 0x18C5 PUSH1 0x10 DUP4 PUSH2 0x11A5 JUMP JUMPDEST SWAP2 POP PUSH2 0x18D0 DUP3 PUSH2 0x1891 JUMP JUMPDEST PUSH1 0x20 DUP3 ADD SWAP1 POP SWAP2 SWAP1 POP JUMP JUMPDEST PUSH0 PUSH1 0x20 DUP3 ADD SWAP1 POP DUP2 DUP2 SUB PUSH0 DUP4 ADD MSTORE PUSH2 0x18F2 DUP2 PUSH2 0x18B9 JUMP JUMPDEST SWAP1 POP SWAP2 SWAP1 POP JUMP JUMPDEST PUSH32 0x546869732061756374696F6E20697320636C6F73656400000000000000000000 PUSH0 DUP3 ADD MSTORE POP JUMP JUMPDEST PUSH0 PUSH2 0x192D PUSH1 0x16 DUP4 PUSH2 0x11A5 JUMP JUMPDEST SWAP2 POP PUSH2 0x1938 DUP3 PUSH2 0x18F9 JUMP JUMPDEST PUSH1 0x20 DUP3 ADD SWAP1 POP SWAP2 SWAP1 POP JUMP JUMPDEST PUSH0 PUSH1 0x20 DUP3 ADD SWAP1 POP DUP2 DUP2 SUB PUSH0 DUP4 ADD MSTORE PUSH2 0x195A DUP2 PUSH2 0x1921 JUMP JUMPDEST SWAP1 POP SWAP2 SWAP1 POP JUMP JUMPDEST PUSH32 0x4F66666572206D75737420626520686967686572207468616E2063757272656E PUSH0 DUP3 ADD MSTORE PUSH32 0x7420707269636500000000000000000000000000000000000000000000000000 PUSH1 0x20 DUP3 ADD MSTORE POP JUMP JUMPDEST PUSH0 PUSH2 0x19BB PUSH1 0x27 DUP4 PUSH2 0x11A5 JUMP JUMPDEST SWAP2 POP PUSH2 0x19C6 DUP3 PUSH2 0x1961 JUMP JUMPDEST PUSH1 0x40 DUP3 ADD SWAP1 POP SWAP2 SWAP1 POP JUMP JUMPDEST PUSH0 PUSH1 0x20 DUP3 ADD SWAP1 POP DUP2 DUP2 SUB PUSH0 DUP4 ADD MSTORE PUSH2 0x19E8 DUP2 PUSH2 0x19AF JUMP JUMPDEST SWAP1 POP SWAP2 SWAP1 POP JUMP JUMPDEST PUSH32 0x4F66666572206D75737420626520686967686572207468616E20696E69746961 PUSH0 DUP3 ADD MSTORE PUSH32 0x6C20707269636500000000000000000000000000000000000000000000000000 PUSH1 0x20 DUP3 ADD MSTORE POP JUMP JUMPDEST PUSH0 PUSH2 0x1A49 PUSH1 0x27 DUP4 PUSH2 0x11A5 JUMP JUMPDEST SWAP2 POP PUSH2 0x1A54 DUP3 PUSH2 0x19EF JUMP JUMPDEST PUSH1 0x40 DUP3 ADD SWAP1 POP SWAP2 SWAP1 POP JUMP JUMPDEST PUSH0 PUSH1 0x20 DUP3 ADD SWAP1 POP DUP2 DUP2 SUB PUSH0 DUP4 ADD MSTORE PUSH2 0x1A76 DUP2 PUSH2 0x1A3D JUMP JUMPDEST SWAP1 POP SWAP2 SWAP1 POP JUMP JUMPDEST PUSH32 0x4E487B7100000000000000000000000000000000000000000000000000000000 PUSH0 MSTORE PUSH1 0x11 PUSH1 0x4 MSTORE PUSH1 0x24 PUSH0 REVERT JUMPDEST PUSH0 PUSH2 0x1AB4 DUP3 PUSH2 0x1115 JUMP JUMPDEST SWAP2 POP PUSH2 0x1ABF DUP4 PUSH2 0x1115 JUMP JUMPDEST SWAP3 POP DUP3 DUP3 ADD SWAP1 POP DUP1 DUP3 GT ISZERO PUSH2 0x1AD7 JUMPI PUSH2 0x1AD6 PUSH2 0x1A7D JUMP JUMPDEST JUMPDEST SWAP3 SWAP2 POP POP JUMP JUMPDEST PUSH0 DUP2 SWAP1 POP SWAP3 SWAP2 POP POP JUMP JUMPDEST PUSH0 PUSH2 0x1AF1 DUP3 PUSH2 0x119B JUMP JUMPDEST PUSH2 0x1AFB DUP2 DUP6 PUSH2 0x1ADD JUMP JUMPDEST SWAP4 POP PUSH2 0x1B0B DUP2 DUP6 PUSH1 0x20 DUP7 ADD PUSH2 0x11B5 JUMP JUMPDEST DUP1 DUP5 ADD SWAP2 POP POP SWAP3 SWAP2 POP POP JUMP JUMPDEST PUSH0 PUSH2 0x1B22 DUP3 DUP5 PUSH2 0x1AE7 JUMP JUMPDEST SWAP2 POP DUP2 SWAP1 POP SWAP3 SWAP2 POP POP JUMP JUMPDEST PUSH32 0x546869732061756374696F6E206E616D6520697320616C726564792075736564 PUSH0 DUP3 ADD MSTORE POP JUMP JUMPDEST PUSH0 PUSH2 0x1B61 PUSH1 0x20 DUP4 PUSH2 0x11A5 JUMP JUMPDEST SWAP2 POP PUSH2 0x1B6C DUP3 PUSH2 0x1B2D JUMP JUMPDEST PUSH1 0x20 DUP3 ADD SWAP1 POP SWAP2 SWAP1 POP JUMP JUMPDEST PUSH0 PUSH1 0x20 DUP3 ADD SWAP1 POP DUP2 DUP2 SUB PUSH0 DUP4 ADD MSTORE PUSH2 0x1B8E DUP2 PUSH2 0x1B55 JUMP JUMPDEST SWAP1 POP SWAP2 SWAP1 POP JUMP JUMPDEST PUSH0 DUP2 SWAP1 POP DUP2 PUSH0 MSTORE PUSH1 0x20 PUSH0 KECCAK256 SWAP1 POP SWAP2 SWAP1 POP JUMP JUMPDEST PUSH0 PUSH1 0x20 PUSH1 0x1F DUP4 ADD DIV SWAP1 POP SWAP2 SWAP1 POP JUMP JUMPDEST PUSH0 DUP3 DUP3 SHL SWAP1 POP SWAP3 SWAP2 POP POP JUMP JUMPDEST PUSH0 PUSH1 0x8 DUP4 MUL PUSH2 0x1BF1 PUSH32 0xFFFFFFFFFFFFFFFFFFFFFFFFFFFFFFFFFFFFFFFFFFFFFFFFFFFFFFFFFFFFFFFF DUP3 PUSH2 0x1BB6 JUMP JUMPDEST PUSH2 0x1BFB DUP7 DUP4 PUSH2 0x1BB6 JUMP JUMPDEST SWAP6 POP DUP1 NOT DUP5 AND SWAP4 POP DUP1 DUP7 AND DUP5 OR SWAP3 POP POP POP SWAP4 SWAP3 POP POP POP JUMP JUMPDEST PUSH0 DUP2 SWAP1 POP SWAP2 SWAP1 POP JUMP JUMPDEST PUSH0 PUSH2 0x1C36 PUSH2 0x1C31 PUSH2 0x1C2C DUP5 PUSH2 0x1115 JUMP JUMPDEST PUSH2 0x1C13 JUMP JUMPDEST PUSH2 0x1115 JUMP JUMPDEST SWAP1 POP SWAP2 SWAP1 POP JUMP JUMPDEST PUSH0 DUP2 SWAP1 POP SWAP2 SWAP1 POP JUMP JUMPDEST PUSH2 0x1C4F DUP4 PUSH2 0x1C1C JUMP JUMPDEST PUSH2 0x1C63 PUSH2 0x1C5B DUP3 PUSH2 0x1C3D JUMP JUMPDEST DUP5 DUP5 SLOAD PUSH2 0x1BC2 JUMP JUMPDEST DUP3 SSTORE POP POP POP POP JUMP JUMPDEST PUSH0 SWAP1 JUMP JUMPDEST PUSH2 0x1C77 PUSH2 0x1C6B JUMP JUMPDEST PUSH2 0x1C82 DUP2 DUP5 DUP5 PUSH2 0x1C46 JUMP JUMPDEST POP POP POP JUMP JUMPDEST JUMPDEST DUP2 DUP2 LT ISZERO PUSH2 0x1CA5 JUMPI PUSH2 0x1C9A PUSH0 DUP3 PUSH2 0x1C6F JUMP JUMPDEST PUSH1 0x1 DUP2 ADD SWAP1 POP PUSH2 0x1C88 JUMP JUMPDEST POP POP JUMP JUMPDEST PUSH1 0x1F DUP3 GT ISZERO PUSH2 0x1CEA JUMPI PUSH2 0x1CBB DUP2 PUSH2 0x1B95 JUMP JUMPDEST PUSH2 0x1CC4 DUP5 PUSH2 0x1BA7 JUMP JUMPDEST DUP2 ADD PUSH1 0x20 DUP6 LT ISZERO PUSH2 0x1CD3 JUMPI DUP2 SWAP1 POP JUMPDEST PUSH2 0x1CE7 PUSH2 0x1CDF DUP6 PUSH2 0x1BA7 JUMP JUMPDEST DUP4 ADD DUP3 PUSH2 0x1C87 JUMP JUMPDEST POP POP JUMPDEST POP POP POP JUMP JUMPDEST PUSH0 DUP3 DUP3 SHR SWAP1 POP SWAP3 SWAP2 POP POP JUMP JUMPDEST PUSH0 PUSH2 0x1D0A PUSH0 NOT DUP5 PUSH1 0x8 MUL PUSH2 0x1CEF JUMP JUMPDEST NOT DUP1 DUP4 AND SWAP2 POP POP SWAP3 SWAP2 POP POP JUMP JUMPDEST PUSH0 PUSH2 0x1D22 DUP4 DUP4 PUSH2 0x1CFB JUMP JUMPDEST SWAP2 POP DUP3 PUSH1 0x2 MUL DUP3 OR SWAP1 POP SWAP3 SWAP2 POP POP JUMP JUMPDEST PUSH2 0x1D3B DUP3 PUSH2 0x119B JUMP JUMPDEST PUSH8 0xFFFFFFFFFFFFFFFF DUP2 GT ISZERO PUSH2 0x1D54 JUMPI PUSH2 0x1D53 PUSH2 0x1353 JUMP JUMPDEST JUMPDEST PUSH2 0x1D5E DUP3 SLOAD PUSH2 0x1861 JUMP JUMPDEST PUSH2 0x1D69 DUP3 DUP3 DUP6 PUSH2 0x1CA9 JUMP JUMPDEST PUSH0 PUSH1 0x20 SWAP1 POP PUSH1 0x1F DUP4 GT PUSH1 0x1 DUP2 EQ PUSH2 0x1D9A JUMPI PUSH0 DUP5 ISZERO PUSH2 0x1D88 JUMPI DUP3 DUP8 ADD MLOAD SWAP1 POP JUMPDEST PUSH2 0x1D92 DUP6 DUP3 PUSH2 0x1D17 JUMP JUMPDEST DUP7 SSTORE POP PUSH2 0x1DF9 JUMP JUMPDEST PUSH1 0x1F NOT DUP5 AND PUSH2 0x1DA8 DUP7 PUSH2 0x1B95 JUMP JUMPDEST PUSH0 JUMPDEST DUP3 DUP2 LT ISZERO PUSH2 0x1DCF JUMPI DUP5 DUP10 ADD MLOAD DUP3 SSTORE PUSH1 0x1 DUP3 ADD SWAP2 POP PUSH1 0x20 DUP6 ADD SWAP5 POP PUSH1 0x20 DUP2 ADD SWAP1 POP PUSH2 0x1DAA JUMP JUMPDEST DUP7 DUP4 LT ISZERO PUSH2 0x1DEC JUMPI DUP5 DUP10 ADD MLOAD PUSH2 0x1DE8 PUSH1 0x1F DUP10 AND DUP3 PUSH2 0x1CFB JUMP JUMPDEST DUP4 SSTORE POP JUMPDEST PUSH1 0x1 PUSH1 0x2 DUP9 MUL ADD DUP9 SSTORE POP POP POP JUMPDEST POP POP POP POP POP POP JUMP JUMPDEST PUSH0 PUSH1 0x40 DUP3 ADD SWAP1 POP DUP2 DUP2 SUB PUSH0 DUP4 ADD MSTORE PUSH2 0x1E19 DUP2 DUP6 PUSH2 0x11ED JUMP JUMPDEST SWAP1 POP PUSH2 0x1E28 PUSH1 0x20 DUP4 ADD DUP5 PUSH2 0x1173 JUMP JUMPDEST SWAP4 SWAP3 POP POP POP JUMP JUMPDEST PUSH0 PUSH2 0x1E39 DUP3 PUSH2 0x1115 JUMP JUMPDEST SWAP2 POP PUSH2 0x1E44 DUP4 PUSH2 0x1115 JUMP JUMPDEST SWAP3 POP DUP3 DUP3 SUB SWAP1 POP DUP2 DUP2 GT ISZERO PUSH2 0x1E5C JUMPI PUSH2 0x1E5B PUSH2 0x1A7D JUMP JUMPDEST JUMPDEST SWAP3 SWAP2 POP POP JUMP JUMPDEST PUSH0 PUSH1 0x60 DUP3 ADD SWAP1 POP DUP2 DUP2 SUB PUSH0 DUP4 ADD MSTORE PUSH2 0x1E7A DUP2 DUP7 PUSH2 0x11ED JUMP JUMPDEST SWAP1 POP PUSH2 0x1E89 PUSH1 0x20 DUP4 ADD DUP6 PUSH2 0x12C8 JUMP JUMPDEST PUSH2 0x1E96 PUSH1 0x40 DUP4 ADD DUP5 PUSH2 0x1173 JUMP JUMPDEST SWAP5 SWAP4 POP POP POP POP JUMP INVALID LOG2 PUSH5 0x6970667358 0x22 SLT KECCAK256 0xB9 CHAINID CODESIZE 0xAB EXTCODESIZE 0x23 0xD0 0x2C SWAP5 0xF8 CODECOPY PUSH9 0x21D96E270BDEC33F75 PREVRANDAO PUSH26 0x7B844145175F3272B464736F6C63430008180033000000000000 "
				},
				"gasEstimates": {
					"creation": {
						"codeDepositCost": "1578400",
						"executionCost": "25915",
						"totalCost": "1604315"
					},
					"external": {
						"auctions(uint256)": "infinite",
						"closeAuction(uint256)": "infinite",
						"createNewAuction(string,uint256,uint256)": "infinite",
						"getAuctionDetails(uint256)": "infinite",
						"getBidCount(uint256)": "infinite",
						"getTotalAuctions()": "2485",
						"namesUsed(string)": "infinite",
						"sendNewBid(uint256)": "infinite",
						"withdraw(uint256)": "infinite"
					},
					"internal": {
						"_closeAuction(uint256)": "infinite"
					}
				},
				"methodIdentifiers": {
					"auctions(uint256)": "571a26a0",
					"closeAuction(uint256)": "236ed8f3",
					"createNewAuction(string,uint256,uint256)": "e33a33b3",
					"getAuctionDetails(uint256)": "f20e5e35",
					"getBidCount(uint256)": "744d3411",
					"getTotalAuctions()": "3ef14cc8",
					"namesUsed(string)": "c44b5230",
					"sendNewBid(uint256)": "aa1ed30e",
					"withdraw(uint256)": "2e1a7d4d"
				}
			},
			"storageLayout": {
				"storage": [
					{
						"astId": 3,
						"contract": "AuctionSystem/AuctionSystem.sol:AuctionSystem",
						"label": "owner",
						"offset": 0,
						"slot": "0",
						"type": "t_address"
					},
					{
						"astId": 27,
						"contract": "AuctionSystem/AuctionSystem.sol:AuctionSystem",
						"label": "auctions",
						"offset": 0,
						"slot": "1",
						"type": "t_array(t_struct(Auction)23_storage)dyn_storage"
					},
					{
						"astId": 31,
						"contract": "AuctionSystem/AuctionSystem.sol:AuctionSystem",
						"label": "namesUsed",
						"offset": 0,
						"slot": "2",
						"type": "t_mapping(t_string_memory_ptr,t_bool)"
					}
				],
				"types": {
					"t_address": {
						"encoding": "inplace",
						"label": "address",
						"numberOfBytes": "20"
					},
					"t_address_payable": {
						"encoding": "inplace",
						"label": "address payable",
						"numberOfBytes": "20"
					},
					"t_array(t_struct(Auction)23_storage)dyn_storage": {
						"base": "t_struct(Auction)23_storage",
						"encoding": "dynamic_array",
						"label": "struct AuctionSystem.Auction[]",
						"numberOfBytes": "32"
					},
					"t_bool": {
						"encoding": "inplace",
						"label": "bool",
						"numberOfBytes": "1"
					},
					"t_enum(AuctionStatus)7": {
						"encoding": "inplace",
						"label": "enum AuctionSystem.AuctionStatus",
						"numberOfBytes": "1"
					},
					"t_mapping(t_string_memory_ptr,t_bool)": {
						"encoding": "mapping",
						"key": "t_string_memory_ptr",
						"label": "mapping(string => bool)",
						"numberOfBytes": "32",
						"value": "t_bool"
					},
					"t_string_memory_ptr": {
						"encoding": "bytes",
						"label": "string",
						"numberOfBytes": "32"
					},
					"t_string_storage": {
						"encoding": "bytes",
						"label": "string",
						"numberOfBytes": "32"
					},
					"t_struct(Auction)23_storage": {
						"encoding": "inplace",
						"label": "struct AuctionSystem.Auction",
						"members": [
							{
								"astId": 9,
								"contract": "AuctionSystem/AuctionSystem.sol:AuctionSystem",
								"label": "name",
								"offset": 0,
								"slot": "0",
								"type": "t_string_storage"
							},
							{
								"astId": 11,
								"contract": "AuctionSystem/AuctionSystem.sol:AuctionSystem",
								"label": "initialPrice",
								"offset": 0,
								"slot": "1",
								"type": "t_uint256"
							},
							{
								"astId": 13,
								"contract": "AuctionSystem/AuctionSystem.sol:AuctionSystem",
								"label": "currentPrice",
								"offset": 0,
								"slot": "2",
								"type": "t_uint256"
							},
							{
								"astId": 15,
								"contract": "AuctionSystem/AuctionSystem.sol:AuctionSystem",
								"label": "bidder",
								"offset": 0,
								"slot": "3",
								"type": "t_address_payable"
							},
							{
								"astId": 17,
								"contract": "AuctionSystem/AuctionSystem.sol:AuctionSystem",
								"label": "deadline",
								"offset": 0,
								"slot": "4",
								"type": "t_uint256"
							},
							{
								"astId": 19,
								"contract": "AuctionSystem/AuctionSystem.sol:AuctionSystem",
								"label": "bidCount",
								"offset": 0,
								"slot": "5",
								"type": "t_uint256"
							},
							{
								"astId": 22,
								"contract": "AuctionSystem/AuctionSystem.sol:AuctionSystem",
								"label": "status",
								"offset": 0,
								"slot": "6",
								"type": "t_enum(AuctionStatus)7"
							}
						],
						"numberOfBytes": "224"
					},
					"t_uint256": {
						"encoding": "inplace",
						"label": "uint256",
						"numberOfBytes": "32"
					}
				}
			},
			"userdoc": {
				"kind": "user",
				"methods": {},
				"version": 1
			}
		}
	}
}